:020000040800F2
:1000000000500020294D00088D4600089146000848
:1000100095460008994600089D460008000000002B
:10002000000000000000000000000000A1460008E1
:10003000A546000800000000A9460008AD460008DB
:10004000714D0008714D0008714D0008714D000898
:10005000714D0008714D0008714D0008714D000888
:10006000714D0008714D0008714D0008714D000878
:10007000714D0008714D0008714D0008714D000868
:10008000714D0008714D0008714D0008714D000858
:10009000B1460008714D0008714D0008714D00080F
:1000A000714D0008714D0008714D0008714D000838
:1000B000714D0008714D0008714D0008714D000828
:1000C000714D0008714D0008714D0008714D000818
:1000D000714D0008714D0008714D0008714D000808
:1000E000BD460008714D0008714D00080000000079
:1000F0000000000000000000000000000000000000
:0C01000000000000000000005FF808F1A3
:10010C0010B5054C237833B9044B13B10448AFF345
:10011C0000800123237010BD6C0100200000000042
:10012C00BC4D000808B5034B1BB103490348AFF3A2
:10013C00008008BD0000000070010020BC4D0008CC
:10014C0038B54FF47A730D490D4A09781268B3FB30
:10015C00F1F30546B2FBF3F000F0A2F808B90F2D4D
:10016C0001D9012038BD0446024629464FF0FF3024
:10017C0000F052F8034B20461D6038BD00000020F3
:10018C00DC00002004000020074A08B51368032097
:10019C0043F01003136000F02DF80020FFF7D0FFA0
:1001AC0004F012FA002008BD00200240034A044B60
:1001BC0011681B780B441360704700BFA801002026
:1001CC0000000020014B1868704700BFA8010020F8
:1001DC0038B50446FFF7F6FF631C054602D0044B06
:1001EC001B781C44FFF7EEFF401BA042FAD338BD2E
:1001FC00000000204FF6FF01064A0002D36800F40D
:10020C00E0600B4043F0BF6343F400330343D3601F
:10021C00704700BF00ED00E0184B30B4DB68C3F34F
:10022C000223C3F10705042D03F1040428BF0425A0
:10023C00062C19D94FF0FF34033B9C4022EA0404EE
:10024C004FF0FF32AA4021EA020101FA03F22243E5
:10025C0012010028D2B20ADB00F1604000F56140C7
:10026C0080F8002330BC704700242346E8E7044B99
:10027C0000F00F0003441A7630BC704700ED00E02C
:10028C00FCEC00E0002807DB012300F01F01034A0F
:10029C008B40400942F82030704700BF00E100E07D
:1002AC000138B0F1807F0DD230B4F0250022072147
:1002BC00054B064C586084F82350104630BC9A60AD
:1002CC00196070470120704710E000E000ED00E07D
:1002DC000A68002A00F0DB802DE9F04F4FF0000A8D
:1002EC0085B05546DFF8D0C1DFF8D0E16D4FDFF8AF
:1002FC00D08103E0013532FA05F378D00123AB400D
:10030C0002EA0304A342F5D14A68122A00F09E8047
:10031C0000F28780022A00F09D807CD9032A69D0E4
:10032C00112A02D1CB6803F1040AFF2C66D881464E
:10033C000368AA000F2606FA02FB23EA0B030AFA4B
:10034C0002F21343C9F800304A68D30061D5DCF8D7
:10035C00189025F0030349F00109CCF81890DCF84B
:10036C00189003F1804309F00109CDF80C9003F5C6
:10037C00803305F00309DDF80CB04FEA8909D3F896
:10038C0008B006FA09F62BEA06067045019611D05C
:10039C00404563D0444EB0427AD0444EB0420CBF7C
:1003AC004FF0030B4FF0040B019E0BFA09F946EAD0
:1003BC00090601969E603B68D6034CBF2343A343BA
:1003CC003B607B6896034CBF2343A3437B60BB68B5
:1003DC00D6024CBF2343A343BB609202FB6815D5E6
:1003EC001C43FC600A68013532FA05F386D105B06E
:1003FC00BDE8F08FFF2C4FF0000A98D905F1804230
:10040C00083A4368920000F1040993E723EA0404D4
:10041C00FC600A686EE7A2B1012A86D1D1F80CA063
:10042C0083E7234EB2420CD020D9224EB24208D0E0
:10043C0006F58036B24204D0A6F58016B2427FF49F
:10044C0074AF8A68E2B94FF0040A6EE7CB6803F127
:10045C000C0A6AE7CB6803F1080A66E74FF0010B58
:10046C000BFA09F946EA09060196A3E7A6F58016E8
:10047C00B242E6D006F58036B2427FF456AFE0E7E2
:10048C00012A0CBF036143614FF0080A4DE7704726
:10049C004FF0020B019E0BFA09F946EA0906019688
:1004AC0088E700BF00040140001001400014014027
:1004BC000000211000003110001002400008014023
:1004CC00000C01408368194214BF012000207047C2
:1004DC0002B9090401617047044A5169014200D113
:1004EC00704708B5506104F091FA08BD0004014052
:1004FC00F0B587B0002874D090F82932044603F088
:10050C00FF02002B68D00323264684F8293220688A
:10051C0001F0D0F856F810CB6D4637460FCF0FC50B
:10052C003B68271D2B60604697E80E0001F0B0F881
:10053C00054630B10223012584F82932284607B03C
:10054C00F0BD0146206801F0BFF8D4F804C0BCF13E
:10055C00000F29D028464FF0010E2A4604EB401319
:10056C00451C83F82800D886E8B2604583F829E05A
:10057C0083F82B20C3E90E221A64EFD3002319460B
:10058C0004EB43125D1C03F10A0082F82831EBB234
:10059C004001634582F8291182F82B11C2F83811F9
:1005AC00C2F83C112150EBD30FCE6D46D4F800C0ED
:1005BC000FC5336860462B6097E80E0001F086F893
:1005CC0005460028B6D1012384F82400206884F85D
:1005DC00293201F099FCB1E780F8282204F0D0F818
:1005EC0091E70125284607B0F0BD00BF90F82832EE
:1005FC00012B10D0012110B5044680F8281204F00C
:10060C00E1F9206801F07EFC206801F049F8002037
:10061C0084F8280210BD0220704700BF2DE9F84F66
:10062C000446006801F072FC0104226843D41046B1
:10063C0001F06CFC460500F17181206801F066FC4C
:10064C0010F4804F206807D0B0F8443023F4804376
:10065C001B041B0CA0F8443001F058FC10F4005F94
:10066C00206807D0B0F8443023F400531B041B0C53
:10067C00A0F8443001F04AFCC50400F13181206837
:10068C0001F044FC000500F10481206801F03EFCFF
:10069C00820500F1F180206801F038FCC30508D513
:1006AC002268B2F8443023F480731B041B0CA2F8AC
:1006BC004430BDE8F88FDFF814A4DFF814B4B2F8B6
:1006CC0044301F04B3D5B2F8441089B211F00F05B1
:1006DC0057D111F01001138800F03E819BB213F436
:1006EC00006540F07A811B04E9D540F68F731188C0
:1006FC000B4043F080031380B2F8503094F828116B
:10070C0003EBC10302EB4303B3F80C34C3F309034B
:10071C00C4F844319BB1D4F83C1181B11046B4F803
:10072C002E2101F0F9FBD4F83C31D4F844212946B0
:10073C001344C4F83C31204604F048F82268B2F85F
:10074C005030D4F838119BB202F20C40002940F022
:10075C009881C15A21F4F8410904090CC152C15ABB
:10076C006FEA41416FEA514189B2C1521188D64BAF
:10077C000B4083F4405343F4004343F08003138055
:10078C009DE732F82560B6B2310426D4330696D5EF
:10079C0032F8251004EB45130AEA010141F400413B
:1007AC0022F82510B2F8501093F82850D86B01EBB2
:1007BC00C50102EB4101B1F804141D6CC1F3090130
:1007CC0046185964DE63002D40F0EF8093F8281032
:1007DC00204604F003F8226871E740F68F7332F874
:1007EC0025106F010B4043F0800322F8253004EBF9
:1007FC00070999F8343102F58060002B00F00F8165
:10080C0099F8283132F823C002EB83011CF4804F95
:10081C00B2F850C04FEAC303634400F01B810233AB
:10082C0030F81380C8F30908B8F1000F40F05D816F
:10083C000B880BEA030343F4004343F0C0030B8023
:10084C002744D7F84421D7F83C31D7F8400142442B
:10085C004344C7F84421C7F83C31002800F0F78026
:10086C00D7F8382197F82811904580F0148120464C
:10087C0003F0ACFF226889E722682046B2F84430C6
:10088C0023F400731B041B0CA2F8443003F0AEFFDE
:10089C0001E72368B3F84020184642F00802A3F899
:1008AC004020B3F8442022F400621204120CA3F886
:1008BC004420B3F8402042F00402A3F8402001F099
:1008CC0025FBC10408D52268B2F8443023F48053C8
:1008DC001B041B0CA2F84430204603F09DFFD4E609
:1008EC0022682046B2F8403023F004031B041B0C92
:1008FC00A2F84030B2F8403023F008031B041B0C64
:10090C00A2F8403003F098FF2068B0F8443023F48C
:10091C0080531B041B0CA0F84430B1E6226820461F
:10092C00B2F8443023F480631B041B0CA2F844304F
:10093C0003F060FF94F82832012B3FF47EAE0025C3
:10094C00012384F8245084F828322946206801F0C9
:10095C00D3FA84F8285270E60AEA030343F40043FE
:10096C001380B2F8503094F82800E56B03EBC00309
:10097C0002EB4302B2F804342046C3F309031D44CE
:10098C006364E56303F02AFF94F824301BB3236CF3
:10099C002268002B7FF493AE94F8241041F0800170
:1009AC00A2F84C1084F8243089E64FF0000C012793
:1009BC0093F82830104603F00702510163182831D0
:1009CC0083F82820C3E90F652144C3F844C083F899
:1009DC00297001F0F3F8226871E6B2F8503094F8FF
:1009EC002811104603EBC10302EB4302B2F80C349E
:1009FC0004F50C71C3F30903B4F82E21C4F8443187
:100A0C0001F08AFA40F68F732268204611880B4059
:100A1C0043F08003138003F0D3FE22684FE6B2F854
:100A2C00503099F82811063303EBC10330F81380CA
:100A3C00C8F30908B8F1000F3FF402AF1046434663
:100A4C00B9F82E21D9F83C1101F066FAF8E697F8BE
:100A5C0028110CE7063330F81380C8F30908B8F1F5
:100A6C00000F3FF4E5AE43461046B9F83221D9F8F1
:100A7C003C1101F051FA99F82831216801EB8301FE
:100A8C00D6E63E2926D84D08CF0748BF0135AD0222
:100A9C00ADB2C5526AE64FF0000C01F007014F01F0
:100AAC00E21907F5947782F82811C2F84001C2F8D0
:100ABC003C31C2F844C182F829C1E119206801F027
:100ACC007DF8226862E600BF8FBFFFFF0F8FFFFF2C
:100ADC008F8FFFFF4D09CE06064908BF05F1FF3584
:100AEC0041EA8525ADB2C55240E610464346B9F8F9
:100AFC003021BCE70080FFFF90F82822012A0DD09E
:100B0C0010B50446012284F8241080F828220068CD
:100B1C0001F0F2F9002084F8280210BD0220704781
:100B2C00F8B501F0070509064FEA45141FD4002754
:100B3C00061904F5947186F8297101444C780D70EE
:100B4C000A61CB7004B1CD81022B04BF00230B7161
:100B5C0090F82832012B12D00123044680F8283259
:100B6C00006800F0CDFD002084F82802F8BD0127B4
:100B7C00061904F1280186F829700144DEE70220E9
:100B8C00F8BD00BF01F00702090610B54FEA421389
:100B9C0016D40024C11803F5947381F82941C118A7
:100BAC000A7090F82832012B15D00123044680F8E6
:100BBC002832006800F02CFF002084F8280210BDB9
:100BCC000124C118283381F82940C1180A7090F803
:100BDC002832012BE9D1022010BD00BF70B50026D0
:100BEC0001F007014D01441905F5947584F828119D
:100BFC00C4F83C214119C4F840310068C4F8446180
:100C0C0084F8296100F0DAFF304670BDF8B5002693
:100C1C00012701F007014D014419283584F82810EB
:100C2C00C4E90F234119006884F82970666400F048
:100C3C00C5FF3046F8BD00BF38B5436801F0070565
:100C4C009D421BD80B061BD400244901431883F882
:100C5C002941012301F5947281180D708B7090F865
:100C6C0028229A421BD0044680F82832006801F0F2
:100C7C00CDF8B5B1002084F8280238BD012038BD6C
:100C8C0001226B0103F12801034483F8292001237D
:100C9C0001440D708B7090F828229A42E3D1022007
:100CAC0038BD04F50C71206801F034F9E2E700BF9F
:100CBC0038B5436801F00F029A421ED801F00702C2
:100CCC0009064FEA42131AD40025C41884F8295196
:100CDC00002503F5947101440A708D7090F8283248
:100CEC00012B1AD00123044680F82832006801F049
:100CFC00AFF884F82852284638BD012038BD0125AC
:100D0C00C41884F82950002503F1280101440A7005
:100D1C008D7090F82832012BE4D1022038BD00BF31
:100D2C0011F0800F0DD001F0070100EB41102830BD
:100D3C0099B26AB101221B0C43810181027300201C
:100D4C00704700EB411000F5947099B2002AF1D174
:100D5C00C180027300207047002800F055812DE9F6
:100D6C00F041036882B0DD07044635D5A8494A68CE
:100D7C0002F00C02042A00F005814A6802F00C0211
:100D8C00082A00F0FB806368B3F5803F10D0002B7D
:100D9C0000F02081B3F5A02F00F078819C4B1A68ED
:100DAC0022F480321A601A6822F480221A6004E05D
:100DBC00974A136843F480331360FFF703FA944D9A
:100DCC00064605E0FFF7FEF9801B642800F2F5806B
:100DDC002B689A03F6D523689F074DD41A0722D5A2
:100DEC00A369002B00F0BA8001228A4B884D1A604F
:100DFC00FFF7E8F9064605E0FFF7E4F9801B022847
:100E0C0000F2DB806B6A9B07F6D5834B834A1B6829
:100E1C00A2FB03235B0A019300BF019B5A1E0192A4
:100E2C00002BF9D123685D0769D5794BDA69D000BD
:100E3C0000F1EC800125DA6942F08052DA61DB695D
:100E4C0003F080530093009B754B1A68D10540F159
:100E5C00A380E368012B37D0002B00F0E780052B33
:100E6C006B4B1A6A00F01F8122F001021A621A6A97
:100E7C0022F004021A622CE0654A516811F00C0F42
:100E8C0061D0516801F00C01082959D02369002B5D
:100E9C0000F0EB800122634B5D4D1A60FFF792F975
:100EAC00064605E0FFF78EF9801B022800F28580CC
:100EBC002B689807F6D52B68626923F0F80343EA90
:100ECC00C2032B60236889E7514A136A43F001037C
:100EDC001362FFF777F94E4E804641F2883705E0F2
:100EEC00FFF770F9A0EB0800B84266D8336A9B078D
:100EFC00F6D525B1464AD36923F08053D361E06916
:100F0C00D0B1434D6A6802F00C02082A00F0D3807D
:100F1C0002284FF00001444A00F0DE801160FFF718
:100F2C0051F92C46054604E0FFF74CF9401B02280A
:100F3C0043D823689B01F7D4002002B0BDE8F081B0
:100F4C005268D603A2D4324A1268950739D5226961
:100F5C00012A36D0012002B0BDE8F0812D4A2C4D7B
:100F6C001360FFF72FF9064604E0FFF72BF9801BFF
:100F7C00022822D86B6A9F07F7D453E74A68D0033C
:100F8C007FF501AF224A126891037FF525AF6268A5
:100F9C00002A7FF421AFDDE71A681E4642F4807206
:100FAC001A60FFF70FF907463368DA053FF551AFC2
:100FBC00FFF708F9C01B6428F6D9032002B0BDE87E
:100FCC00F081134960690A6822F0F80242EAC00213
:100FDC000A6003E703F1804303F504331A681D46E6
:100FEC0022F480321A601A6822F480221A60FFF709
:100FFC00E9F8064604E0FFF7E5F8801B6428DCD826
:10100C002B689B03F7D4E6E60120704700251BE70D
:10101C000010024080044242DC000020D34D6210DC
:10102C0000700040000042426000424203F18043E5
:10103C0003F504331A6A1E4622F001021A621A6A78
:10104C0041F2883822F004021A62FFF7BBF8074617
:10105C0004E0FFF7B7F8C01B4045AED8336A9807D9
:10106C00F7D4002D3FF44BAF44E7344A344D1360B2
:10107C00FFF7A8F8064604E0FFF7A4F8801B022847
:10108C009BD82B689907F7D42368A7E603F1804314
:10109C00A3F53C331A6842F480221A601A6842F4B1
:1010AC0080321A6089E642F004021A621A6A42F02F
:1010BC0001021A620DE701283FF44DAF6B68226AFA
:1010CC0003F4803191427FF445AF606A03F47013EE
:1010DC00181A18BF01203EE71160FFF773F8064697
:1010EC0005E0FFF76FF8801B02283FF666AF2B6810
:1010FC009901F6D4226AB2F5803F05D16B68A168DC
:10110C0023F400330B436B6001250D4B606A596867
:10111C00024321F474110B480A435A6005601C46C3
:10112C00FFF750F8054605E0FFF74CF8401B022886
:10113C003FF643AF23689A01F6D5FDE60000424224
:10114C00001002406000424278B15D4A136803F01F
:10115C0007038B420BD2136823F007030B43136076
:10116C00136803F007038B4201D0012070472DE96F
:10117C00F041036886B09D0714D55C0704D5514C2B
:10118C00626842F4E06262601A0704D54D4C6268F2
:10119C0042F4605262604B4C8568626822F0F00247
:1011AC002A436260DB0704460D4620D54268454B56
:1011BC00012A1B686FD0022A7ED0980727D5414E92
:1011CC0041F28838736823F0030313437360FEF70E
:1011DC00F9FF074604E0FEF7F5FFC01B404569D850
:1011EC007368626803F00C03B3EB820FF3D1344ADB
:1011FC00136803F00703AB420DD9136823F0070300
:10120C002B431360136803F00703AB4203D0012098
:10121C0006B0BDE8F0812368590706D52949E06876
:10122C004A6822F4E06202434A601A0707D5254A4D
:10123C002169536823F4605343EAC103536040F2BD
:10124C000122214B06ACADF804200FCB04E90F00B2
:10125C001C494A6802F00C03082B1AD1C2F38343D1
:10126C00234413F8100CD30318D4184B03FB00F3CE
:10127C00144A174852681749C2F30312805C164A85
:10128C00C34008681360FEF75BFF002006B0BDE8A2
:10129C00F081124BECE79F0391D4B8E74A680F4BEF
:1012AC00C2F3404203FB00F3224412F8142CB3FBAC
:1012BC00F2F3DDE70320ABE79E0180D4A7E700BF84
:1012CC000020024000100240D44D000800093D00EF
:1012DC00E44D000804000020DC00002000127A001D
:1012EC002DE9F0410446006882B0C5072AD53A4B77
:1012FC00DA69D1003DD5394B00251A68D20546D59F
:10130C00354960680A6A12F440720FD000F44073D9
:10131C0093420BD0012700260B6A314A23F440700C
:10132C00176016600862D80745D460682A4A136AA9
:10133C0023F44073034313621DB1D36923F080532C
:10134C00D3612068830706D5234AA168536823F428
:10135C0040430B43536010F0100007D000201E4A8E
:10136C00E168536823F480030B43536002B0BDE87B
:10137C00F081DA69012542F08052DA61DB6903F011
:10138C0080530193019B154B1A68D205B8D41A6887
:10139C001E4642F480721A60FEF714FF074633684B
:1013AC00DB05ADD4FEF70EFFC01B6428F7D9032074
:1013BC0002B0BDE8F0810E46FEF704FF41F288371B
:1013CC008046336A9A07B0D4FEF7FCFEA0EB080007
:1013DC00B842F6D9EBE700BF0010024000700040A5
:1013EC004004424200283BD0F8B5002390F851103D
:1013FC000446836201F0FF0261B31A46D4E9013658
:10140C00022700210125E068334326690343606904
:10141C003343E669D4F818C00343206A3343266883
:10142C0084F8517003430CF40070034330684FEAA6
:10143C001C4C134320F040000CF00402306033606D
:10144C007260F369084623F40063F361616584F804
:10145C005150F8BD80F8502003F0D8F8A26ACDE7BF
:10146C00012070472DE9F04190F8504082B0012CDA
:10147C005ED01F46012380F85030044616460D46B8
:10148C00FEF7A0FE804694F85100C0B2012809D0A6
:10149C0002200122002384F8512084F8503002B03D
:1014AC00BDE8F081002DF4D0002EF2D000230321F2
:1014BC00A26884F85110B2F5004F63652563E68687
:1014CC00A686A363A387C4E91033E387206803D1FE
:1014DC00036843F48043036003685B062CD5E36820
:1014EC006268B3F5006F45D0002A6ED12B78037378
:1014FC00E38E226B013B9BB201322068E3862263B0
:10150C007E1C0BD028E0236B1B780373E38E226BBD
:10151C00013B9BB20132E38622632068E38E9BB2CF
:10152C00002B40D083689D07EDD4FEF74BFEF4E70B
:10153C00022002B0BDE8F081036843F04003036071
:10154C00CDE7236B1B780373E38E226B013B9BB2BD
:10155C000132E38622632068E38E9BB21BB383685F
:10156C009B07EED4FEF72EFEA0EB0800B842F2D398
:10157C0003208EE7002A76D0012E74D0791C59D125
:10158C00E38E9BB27BB183689A0768D5226B32F8E5
:10159C00023BC360E38E2263013B9BB2E386E38E86
:1015AC009BB2002BEFD1791C12D183681A06FCD4A4
:1015BC00A3682BB90193C368019383680193019BC2
:1015CC00606D003018BF012063E7012E98D18DE7C4
:1015DC0083681B06ECD5FEF7F5FDA0EB08008742EF
:1015EC002068E0D861684268B1F5827F22F0E002A1
:1015FC00A368426040D0A26AB2F5005F07D10268CE
:10160C0022F400520260026842F40052026001228D
:10161C002021002584F85120626D84F850500A4333
:10162C0062656165C5E7FEF7CDFDA0EB0800B84229
:10163C009ED22068E38E9BB2002BB4D083689D07AA
:10164C00F1D5226B32F8023BC360E38E2263013B7F
:10165C009BB2E386E38E9BB2002BEFD1A3E7FEF7A0
:10166C00B1FD20688CE735F8023BC360E38E25633F
:10167C00013B9BB2E38681E7B3F5004F02D0B3F593
:10168C00806FB8D1026822F040020260B3E700BF5D
:10169C0084B001A880E80E0004B00020704700BFA1
:1016AC000246B0F84030002043F43F43A2F84030EB
:1016BC00704700BF44F2FF030246B0F84010002010
:1016CC000B40A2F8403070470020704784B070B4D3
:1016DC00044601250020A4F84050A4F84000A4F8CA
:1016EC004400A4F85000B4F8406004AD46F43F4602
:1016FC00A4F8406085E80E0070BC04B0704700BFD1
:10170C0070B40D78034630F82540BC4AC8782240A6
:10171C00032800F24281DFE800F04E46024A002026
:10172C0048F28004224323F825200D78B44E33F878
:10173C0025202C433240224323F825200A7B002A03
:10174C003DD1CC880A784D786408640003EB021212
:10175C00002D00F0E880B3F850502A44A2F8004461
:10176C000A7833F8225003EB82046D060BD533F85C
:10177C002240264046F4004646F0C00623F822607C
:10178C000C7803EB8404CB78012B00F020812288A9
:10179C009C4B134083F0200343F4004343F080033D
:1017AC00238070BC704742F480620020B8E742F49A
:1017BC00C0620020B4E742F400720020B0E70C785D
:1017CC0033F82420324042F4014242F0800223F8E4
:1017DC0024200A780C89B3F8505003EB02126408E9
:1017EC0002F580626400ADB254530A784C89B3F8A8
:1017FC00505003EB0212640802F581626400ADB232
:10180C0054534A78002A42D10A7833F8225003EB19
:10181C0082046D040BD533F82240264046F4404632
:10182C0046F0800623F822600C7803EB84042288AF
:10183C0056060CD5228822F0F0021205120D42F445
:10184C00004242F0C00222800C7803EB840448F280
:10185C00800622886C4D22F0F0021205120D42F423
:10186C00004242F0C00222800C7833F824202A4037
:10187C0082F44052324323F824200978614A33F829
:10188C0021402240324323F8212070BC70470A7853
:10189C0033F8225003EB82046D040BD533F822404D
:1018AC00264046F4404646F0800623F822600C7829
:1018BC0003EB8404228852060CD5228822F0F00215
:1018CC001205120D42F4004242F0C00222800C7844
:1018DC0003EB8404228822F0F0021205120D42F46C
:1018EC00404242F080022280CA780C78012A61D0F2
:1018FC0033F82450434A2A4082F0200242F400423A
:10190C0042F0800223F82420097870BC33F821209F
:10191C0022F0F0029204920C42F4004242F0800257
:10192C0023F821207047B3F850600D693244A2F8B7
:10193C0008440A78B3F8504003EB021202F20C424E
:10194C00A4B265B33E2D4DD86E08ED0748BF0136E5
:10195C00B602B6B216530C7833F8245003EB84025B
:10196C006E040ED533F8242022F0F0021205120D6D
:10197C0042F4404242F0800223F824200A7803EB20
:10198C0082021188204B70BC0B4083F4405343F40B
:10199C00004343F08003138070470120C0E6155BC1
:1019AC0025F4F8452D042D0C1553155B45F4004515
:1019BC001553D0E733F8242022F0C0021205120D83
:1019CC0042F4004242F0800223F824209CE7238852
:1019DC0023F0C0031B051B0D43F4004343F08003AD
:1019EC00238052E76E09ED06084D08BF06F1FF365D
:1019FC0045EA8625ADB21553ADE700BF8F89FFFFD1
:101A0C008F8FFFFFBF8FFFFF8FBFFFFF0080FFFF98
:101A1C0030B40A780D7B00EB82034C7815BB002C9C
:101A2C0000F0998030F8224064060ED530F8223050
:101A3C0023F0F0031B051B0D43F4004343F0C003DC
:101A4C0020F822300B7800EB83031A88002030BC7E
:101A5C0022F0C0021205120D42F4004242F0800244
:101A6C001A807047002C41D130F8224064040ED506
:101A7C0030F8223023F0F0031B051B0D43F44043D8
:101A8C0043F0800320F822300B7800EB83031A8894
:101A9C0055060CD51A8822F0F0021205120D42F4EC
:101AAC00004242F0C0021A800B7800EB830348F22C
:101ABC0080051A883F4C22F0F0021205120D42F4F8
:101ACC00004242F0C0021A800A7830F822302340DB
:101ADC002B4320F822300A78374B30F822100B4079
:101AEC001D4320F82250002030BC704730F82240B3
:101AFC0064040ED530F8223023F0F0031B051B0DC7
:101B0C0043F4404343F0800320F822300B7800EB81
:101B1C0083031A8852063ED448F280051A88264C54
:101B2C0022F0F0021205120D42F4404242F0800203
:101B3C001A800A7830F8223023402B4320F82230C8
:101B4C000A781C4B30F822100B401D4320F8225011
:101B5C00002030BC704730F8224065040ED530F8B8
:101B6C00223023F0F0031B051B0D43F4404343F0DC
:101B7C00800320F822300B7800EB83031A880020B6
:101B8C0030BC22F0F0029204920C42F4004242F07B
:101B9C0080021A8070471A8822F0F0021205120D8A
:101BAC0042F4004242F0C0021A800B7800EB83032F
:101BBC00B2E700BF8FBFFFFFBF8FFFFFF0B44C78C1
:101BCC008B69012C0A695AD0934298BF00260D7B71
:101BDC0088BF9E1A8E6188BF13460A7815BBB0F871
:101BEC00505000F20C4412012C44002B00F0A88041
:101BFC003E2B00F2C9805D08DB0748BF0135AD0202
:101C0C00ADB2A5520A7830F822107D4BF0BC0B40D7
:101C1C0083F4405343F4004343F0800320F8223014
:101C2C0000207047002CEED1B0F8505000F2044464
:101C3C0012012C44002B40F0B380A55A714E25F4B0
:101C4C00F8452D042D0CA552A55A45F40045A55276
:101C5C004C78002C40F0AF80B0F850300A7800F28D
:101C6C000C4412011C44A35A23F4F8431B041B0C10
:101C7C00A352A35A33439BB2A3520A78C3E79342AD
:101C8C0086BF9C1A134600249AB20D7B013256086B
:101C9C008C619BB24A6900F580676DB30D7830F8A2
:101CAC0025402D016406B0F850C055D500F20C4407
:101CBC00644463534C8907EB44043EB102EB460386
:101CCC0032F8025B934224F8045BF9D10C784B7820
:101CDC0000EB8402002B45D130F8243023F0F003C4
:101CEC001B051B0D43F4004343F0C00320F82430C4
:101CFC000A7800EB820216E0CC8807EB44043EB174
:101D0C0004EB860632F8025B24F8045BA642F9D198
:101D1C00B0F850500C7800F204422A442401A3522B
:101D2C000A7800EB82021188374B0020F0BC0B4084
:101D3C0083F0300343F4004343F080031380704777
:101D4C00A35A23F4F8431B041B0CA352A35A43F4C9
:101D5C000043A3520A7856E700F2044464446353E8
:101D6C000C89A8E7012BDED130F8243023F0F003E6
:101D7C001B051B0D43F4404343F0800320F8243033
:101D8C000A7800EB8202CEE75D09DF061D4B08BF27
:101D9C0005F1FF3543EA85239BB2A3520A7832E75B
:101DAC003E2B16D85D08DE0748BF0135AD02ADB23B
:101DBC00A5524C78D4B1012C0A787FF424AFB0F83A
:101DCC00505000F20C4412019BB22C44A3520A78DE
:101DDC0019E75E09DD060B4D08BF06F1FF3645EA33
:101DEC008625ADB2A5524C78002CE4D1B0F8504009
:101DFC000B7800F20C4222441B01D5520A7802E700
:101E0C008FBFFFFF0080FFFFBF8FFFFF4B780A786B
:101E1C0030F822105BB90C4B0B4083F4805343F425
:101E2C00004343F0800320F8223000207047074B1A
:101E3C000B4083F0100343F4004343F0800320F87D
:101E4C0022300020704700BF8FBFFFFFBF8FFFFF06
:101E5C000B7B002B39D110B40B784C7800EB830240
:101E6C0014B330F8232052060BD530F8232022F07F
:101E7C00F0021205120D42F4004242F0C00220F8AA
:101E8C002320CB78012B1DD00A78194B30F8221067
:101E9C0010BC0B4083F0200343F4004343F0800359
:101EAC0020F822300020704730F8234064040ED410
:101EBC001188104B0B4083F4405343F4004343F020
:101ECC0080031380002010BC70470020704730F84E
:101EDC00232022F0F0021205120D42F4404242F08F
:101EEC00800220F823200A7800EB8202E0E700BF92
:101EFC00BF8FFFFF8FBFFFFF11B98023A0F84C30BD
:101F0C00002070470020704700207047B0F8440054
:101F1C00704700BF0020704700EB4202580802F5E2
:101F2C0080621AD0F0B4174606468D1C37F8044B65
:101F3C00013EA4B24FEA142C05F8024C05F801CC72
:101F4C0005F10205F2D1F0BC01EB400102EB80027D
:101F5C00D80744BF13880B707047DB0744BF138846
:101F6C000B70704729230380004870474000002005
:101F7C0029230380004870476C000020292303802C
:101F8C0000487047B00000200023D0F8B822184653
:101F9C001375704710B5D0F8B8422369012B07D1DF
:101FAC00D0F8BC326178DB68207898470023236135
:101FBC00002010BD0A23038000487047A4000020B5
:101FCC0038B50446D0F8B852D0F8BC3269782878C5
:101FDC00DB6898472A4620460423012102F0DEFCE8
:101FEC00002038BD002210B50B7882B013F06003CE
:101FFC00D0F8B842ADF8062022D0202B04D000F047
:10200C009BFC022002B010BD4B78023B092BF6D88A
:10201C0001A252F823F000BF07210008FB200008A2
:10202C000B2000080B2000080B2000080B200008D8
:10203C000B200008EB200008E1200008D920000844
:10204C004B780B2BDBD801A252F823F0C3200008ED
:10205C000B2000080B2000080B2000080B200008A8
:10206C000B200008A92000080B2000080B200008FA
:10207C000B200008992000088920000890F89C3259
:10208C00032BBCD18B780020E360BBE790F89C322B
:10209C00032BB4D104F10C01012207E04B881B0A7D
:1020AC00222B31D0212B37D000210A4600F076FCB0
:1020BC00002002B010BD90F89C32032B9FD102225D
:1020CC000DF1060100F06AFC00209BE78B780020E4
:1020DC00636097E74B8800201B0AA36092E70123FB
:1020EC00CA882361214600F06FFC00208AE7211D7D
:1020FC00012200F053FC002084E704F108010122C6
:10210C0000F04CFC00207DE7CA88D0F8BC32222AB3
:10211C0028BF22221968C9E7CA880249092A28BFA0
:10212C000922C3E79800002038B504460025812118
:10213C0002F0DEFBE5622046012102F0D9FBD4F867
:10214C00B832C4F86C514BB1D4F8BC329B68984788
:10215C00D4F8B80202F034FCC4F8B852002038BDF0
:10216C00F8B50446012502230322812102F0B0FBBD
:10217C00294602230322E562204602F0A9FBC4F89B
:10218C006C51182002F018FCC4F8B80270B100278A
:10219C000646D4F8BC3207755B6898473246294628
:1021AC002046042302F0FAFB3846F8BD2846F8BD59
:1021BC0038B590F89C52032D01D0002038BDD0F8D2
:1021CC00B8522C7D0CB1012038BD13460A460121B2
:1021DC002975812102F0D4FB204638BD19B1C0F815
:1021EC00BC12002070470220704700BF88B108B5B0
:1021FC00D0F8B43213B10023C0F8B43209B1C0F82E
:10220C00B0120123027080F89C3202F019FB0020FE
:10221C0008BD0220704700BF19B1C0F8B4120020ED
:10222C0070470220704700BF08B502F043FB002046
:10223C0008BD00BF08B5D0F8B4321BB11B68984775
:10224C0000B908BD022008BD08B5D0F8B4325B68EF
:10225C009847002008BD00BF38B5044600F52A7524
:10226C00284600F055FB012094F8A812B4F8AE22D1
:10227C0001F01F038342C4F89402C4F8982215D0CD
:10228C000ED3022B06D001F08001204602F03EFB5B
:10229C00002038BD2946204600F0A4FA002038BDA5
:1022AC002946204600F0F6F8002038BD2946204685
:1022BC0000F06CFA002038BD70B5054641B9D0F875
:1022CC009432032B0FD0052B0C462ED0002070BD62
:1022DC00D0F8B4329B69C3B190F89C22032A14D174
:1022EC009847002070BD1646D0F86031D0F86421B4
:1022FC0093420CD99B1A9A42C0F860318CBF9AB2A7
:10230C0092B2314600F070FBE0E7022070BDD0F8CD
:10231C00B4321B6923B190F89C22032A00D1984750
:10232C00284600F069FB002070BDC5F8941202F03D
:10233C00EDFA204670BD00BF70B5044681B9134656
:10234C00D0F89422022A19D032F0040302D1802151
:10235C0002F0DCFA94F8A0320020012B0BD070BDF7
:10236C00D0F8B4325B6963B390F89C22032A28D16D
:10237C009847002070BD84F8A00270BDD0E90862B7
:10238C00964220D8C369B3FBF2F502FB15350DB9A3
:10239C009A4226D9D4F8B432DB682BB194F89C223B
:1023AC00032A01D1204698478021204602F0AEFA3C
:1023BC00204600F02DFB94F8A0320020012BCED14A
:1023CC00D9E7022070BDB21A0D460262194692B2CC
:1023DC0000F0F2FA2B462A462946204602F0DEFA95
:1023EC00B8E7D0F898229342D4D22A4600F0E4FA07
:1023FC00C4F89852EEE700BF70B5002240260446A0
:10240C0001251146334602F063FA33468021C4F8A5
:10241C005851C4F864612046002202F059FA002198
:10242C00D4F8B832A561666284F89C52C4F8941250
:10243C006160C4F8A41223B1D4F8B43220465B68AE
:10244C009847002070BD00BF01740020704700BF8A
:10245C000346042290F89C12002083F89D1283F806
:10246C009C22704790F89C32042B04BF90F89D324C
:10247C0080F89C320020704790F89C22032A01D0EF
:10248C000020704708B5D0F8B432DB6903B1984727
:10249C00002008BD30B50B7883B003F06003202B0F
:1024AC000D46044628D0402B26D053B1802120461F
:1024BC0002F02CFA2046002102F028FA002003B08A
:1024CC0030BD4B78092BF1D801A252F823F000BF94
:1024DC005925000883250008B92400089F25000809
:1024EC00B9240008AB250008E7250008B92400082A
:1024FC001D26000817250008D4F8B43229469B681D
:10250C0020469847002003B030BD89789E4D0129A4
:10251C002970CBD890F89C32022B00F00B81032B46
:10252C0040F0FC80002900F025814168012909D088
:10253C00C9B2FFF789FE297820466160FFF77AFE61
:10254C000228B3D0204600F057FAB7E790F89C3237
:10255C00013B022BAAD8CB88022BA7D10021D0F8A3
:10256C00A422C16002B1C360022204F10C01204616
:10257C0000F014FAA2E790F89C32013B022B95D89C
:10258C004B88012B9AD10023C0F8A43200F034FA06
:10259C0094E74B88012B91D1C0F8A432D2E78B88F9
:1025AC00002B83D1CB88002B80D14D887F2D3FF61B
:1025BC007DAF90F89C32032B3FF478AFE9B280F8F2
:1025CC009E1202F0CFF9204600F016FA002D00F012
:1025DC00CD80022384F89C3270E700234A88ADF842
:1025EC000630130A013B062B3FF660AF01A151F8F0
:1025FC0023F000BFB52600089D260008C52600085C
:10260C00B9240008B92400088726000843260008CE
:10261C00CA88012A7FF44AAF90F89C32002B3FF411
:10262C0045AF022B40F29480032B7FF43FAF011D8A
:10263C0000F0B4F942E7037C002B7FF437AFD0F8FD
:10264C00B4320DF106001B6B984707234370BDF89D
:10265C000630EA886BB1002A3FF474AF934228BF6E
:10266C00134601461A462046ADF8063000F096F99E
:10267C00EA88002A7FF422AF64E7037C002B7FF406
:10268C0015AFD0F8B4320DF106005B6B9847DEE75E
:10269C00027CD0F8B432002A61D19B6A0DF106009D
:1026AC00984702234370D2E7D0F8B0320DF10601FF
:1026BC001B68007C9847CAE7D2B2052A3FF6F6AEF3
:1026CC00DFE802F026201A140E03D0F8B0329B6912
:1026DC00002B3FF4EBAE0DF10601207C9847B6E7DA
:1026EC00D0F8B0325B69002BF5D1DFE6D0F8B03210
:1026FC001B69002BEFD1D9E6D0F8B032DB68002B88
:10270C00E9D1D3E6D0F8B0329B68002BE3D1CDE60B
:10271C00D0F8B0325B68002BDDD1C7E6802102F027
:10272C00F5F80021204602F0F1F829782046FFF751
:10273C008BFDC3E600293FF405AF01210323416063
:10274C0080F89C32FFF776FD02287FF4FBAEADE6F5
:10275C000023014641F8083F00F020F9AEE6DB6AA1
:10276C000DF1060098470223437070E7012384F8AB
:10277C009C32A3E60223416080F89C32FFF764FD93
:10278C00204600F039F999E68801002038B50B781D
:10279C000D4603F06003202B04460CD0402B0AD0CE
:1027AC004BB18021204602F0B1F82046002102F006
:1027BC00ADF8002038BD94F89C32013B022BF0D8C8
:1027CC002B79012BEDD8D4F8B43229469B682046DE
:1027DC009847EB88002BECD10028EAD1204600F07A
:1027EC000BF9E6E770B50B78044603F06003202B79
:1027FC000CD0402B0AD083B18021204602F086F801
:10280C002046002102F082F8002070BDD4F8B432CA
:10281C0020469B689847002070BD4B788A88012B16
:10282C00D5B23ED014D3032BE6D190F89C32022BB8
:10283C0046D0032BE0D14B8833B96A0604D0CB8841
:10284C0013B9294602F062F8204600F0D5F8DBE710
:10285C0090F89C32022B3DD0032BCDD105F00F0309
:10286C0003EB8303120600EB830342D4D3F85831F5
:10287C00002BC1D005F07F0303EB830600EB86062B
:10288C0006F5AA7633B12946204602F05BF80028FB
:10289C003BD00123336031462046022200F07EF803
:1028AC00B2E790F89C32022B0AD0032BA4D14B88B0
:1028BC00002BA9D16E06C7D0294602F035F8C3E724
:1028CC006B0699D0294602F021F82046802102F0AF
:1028DC001DF899E768068FD1002311064CBF04F14F
:1028EC00140104F5AA7120460B60022200F056F880
:1028FC008AE79B69002B3FF47FAF05F07F035E1CDA
:10290C0006EB860600EB8606BCE73060C3E700BF2B
:10291C000B7803704B784370CA788B7803EB0223E7
:10292C0043804A790B7903EB02238380CA798B7934
:10293C0003EB0223C380704710B50446802101F0DD
:10294C00E5FF2046BDE81040002101F0DFBF00BFCD
:10295C0000B3037830B4F3B10446002314F8015FDC
:10296C000133DBB2002DF9D15B0002330324138059
:10297C000B704C7004785CB1022300255A1CD2B247
:10298C00CC548D5410F8014F0233DBB2002CF5D12E
:10299C0030BC704770470223E8E700BF38B51346D8
:1029AC0002250A46C0E90733C0F89452002101F011
:1029BC00E7FF002038BD00BF08B513460A460021CA
:1029CC0001F0DEFF002008BD38B5134603250A468A
:1029DC00C0F85C31C0F86031C0F89452002101F0AD
:1029EC00DDFF002038BD00BF08B513460A460021A4
:1029FC0001F0D4FF002008BD08B504220023C0F864
:102A0C00942219461A4601F0BBFF002008BD00BFF6
:102A1C0008B505220023C0F8942219461A4601F085
:102A2C00BDFF002008BD00BF002801F06C812DE91E
:102A3C00F04F01279BB0019039460022D648FDF794
:102A4C0047FD39460022D548FDF742FD3A460221A2
:102A5C00D248FDF73DFD1AAC00221021CF4804F8F6
:102A6C00037DFDF735FD39460022CC48FDF730FDDE
:102A7C003B463A462146CA48FEF7F4FC3A463946EC
:102A8C00C648FDF725FD4FF47A70FDF7A1FBEF2347
:102A9C001AAD03262C4600221021C04805F8043D2F
:102AAC00FDF716FD39460022BC48FDF711FD3B46EB
:102ABC003A462946BA48FEF7D5FC3A463946B74855
:102ACC00FDF706FD3A461021B44804F8056DFDF7F4
:102ADC00FFFC39460022B148FDF7FAFC3B463A466A
:102AEC002146AF48FEF7BEFC3A463946AB48FDF7E7
:102AFC00EFFC80231AAD2C464FF002093A46102108
:102B0C00A64805F8063DFDF7E3FC39460022A3482C
:102B1C00FDF7DEFC3B463A462946A148FEF7A2FCEF
:102B2C003A4639469D48FDF7D3FC3A4610219B485E
:102B3C0004F8079DFDF7CCFC394600229748FDF7B9
:102B4C00C7FC3B463A4621469548FEF78BFC3A4675
:102B5C0039469248FDF7BCFCCA231AAC002210215E
:102B6C008E4804F8083DFDF7B3FC394600228B482B
:102B7C00FDF7AEFC3B463A4621468948FEF772FC0F
:102B8C003A4639468548FDF7A3FCC3231AAD4FF0EE
:102B9C00080B2C463A461021804805F8093DFDF7F4
:102BAC0097FC394600227D48FDF792FC3B463A469D
:102BBC0029467B48FEF756FC3A4639467748FDF7DE
:102BCC0087FC3A461021754804F80ABDFDF780FCD5
:102BDC00394600227148FDF77BFC3B463A462146BC
:102BEC006F48FEF73FFC3A4639466C48FDF770FCDF
:102BFC0050231AAC3A461021684804F80B3DFDF7F7
:102C0C0067FC394600226548FDF762FC3B463A46B4
:102C1C0021466348FEF726FC3A4639465F48FDF7E5
:102C2C0057FCCB231AAC002210215C4804F80C3D55
:102C3C00FDF74EFC394600225848FDF749FC3B464F
:102C4C003A4621465648FEF70DFC3A46394653485B
:102C5C00FDF73EFC39231AAC3A4610214F4804F8D4
:102C6C000D3DFDF735FC394600224C48FDF730FC94
:102C7C003B463A4621464A48FEF7F4FB3A4639466B
:102C8C0046480024FDF724FC2C230DF1680845462A
:102C9C003A461021414808F80E3DFDF719FC39461B
:102CAC0022463E48FDF714FC3B463A4641463C481A
:102CBC00FEF7D8FB3A4639463848FDF709FC3A4648
:102CCC001021364805F80F4DFDF702FC2246394617
:102CDC003248FDF7FDFB3B463A4629463048FEF7A5
:102CEC00C1FB3A4639462D48FDF7F2FB34231AADA9
:102CFC003A461021294805F8103DFDF7E9FB22461C
:102D0C0039462648FDF7E4FB3B463A46294624481B
:102D1C00FEF7A8FB3A4639462048FDF7D9FB1AAD19
:102D2C003A4610211D4805F8119DFDF7D1FB2246AE
:102D3C0039461A48FDF7CCFB3B463A46294618481B
:102D4C00FEF790FB3A4639461448FDF7C1FBCF23FA
:102D5C001AAD22461021114805F8123D0DF16808F4
:102D6C00FDF7B6FB224639460C48FDF7B1FB6FF078
:102D7C003E0A294645463B463A460948FEF772FB51
:102D8C003A4639460548FDF7A3FB3A46102103485D
:102D9C0008F8134D06E000BF000C0140000801408C
:102DAC00B4010020FDF794FB22463946D348FDF7C9
:102DBC008FFB3B463A464146D148FEF753FB3A4619
:102DCC003946CE48FDF784FB3A461021CB4805F82E
:102DDC0014ADFDF77DFB22463946C848FDF778FB5C
:102DEC003B463A462946C648FEF73CFB3A4639462E
:102DFC00C248FDF76DFB30231AAD3A461021BF488F
:102E0C0005F8153DFDF764FB22463946BB48FDF736
:102E1C005FFB3B463A462946B948FEF723FB3A4648
:102E2C003946B648FDF754FBE8231AAD224610216B
:102E3C00B24805F8163DFDF74BFB22463946AF4824
:102E4C00FDF746FB3B463A462946AD48FEF70AFBE2
:102E5C003A463946A948FDF73BFB85231AAD3A465D
:102E6C001021A64805F8173DFDF732FB22463946DE
:102E7C00A248FDF72DFB3B463A462946A048FEF7F3
:102E8C00F1FA3A4639469D48FDF722FB1AAD3A460F
:102E9C0010219A4805F8184DFDF71AFB22463946C1
:102EAC009648FDF715FB3B463A4629469448FEF7F3
:102EBC00D9FA3A4639469148FDF70AFB78231AAD00
:102ECC003A4610218D4805F8193DFDF701FB2246C5
:102EDC0039468A48FDF7FCFA3B463A46294688486B
:102EEC00FEF7C0FA3A4639468448FDF7F1FAEA2370
:102EFC001AAD22461021814805F81A3DFDF7E8FA73
:102F0C00224639467D48FDF7E3FA3B463A462946C8
:102F1C007B48FEF7A7FA3A4639467848FDF7D8FAC7
:102F2C001AAD3A461021754805F81B4DFDF7D0FA3D
:102F3C00224639467148FDF7CBFA3B463A462946BC
:102F4C006F48FEF78FFA3A4639466C48FDF7C0FADF
:102F5C001AAD3A461021694805F81C4DFDF7B8FA30
:102F6C00224639466548FDF7B3FA3B463A462946B0
:102F7C006348FEF777FA3A4639466048FDF7A8FAF7
:102F8C00ED231AAD224610215C4805F81D3DFDF7D6
:102F9C009FFA224639465948FDF79AFA3B463A467B
:102FAC0029465748FEF75EFA3A4639465348FDF72C
:102FBC008FFA64231AAD3A461021504805F81E3D8D
:102FCC00FDF786FA224639464C48FDF781FA3B4616
:102FDC003A4629464A48FEF745FA3A4639464748A2
:102FEC00FDF776FA1AAD3A461021444805F81F6DE4
:102FFC00FDF76EFA224639464048FDF769FA3B4622
:10300C003A4629463E48FEF72DFA3A4639463B48A1
:10301C00FDF75EFA12231AAD3A461021374805F82F
:10302C00203DFDF755FA224639463448FDF750FA53
:10303C003B463A4629463248FEF714FA3A46394698
:10304C002E48FDF745FA81231AAD3A4610212B483C
:10305C0005F8213DFDF73CFA224639462748FDF795
:10306C0037FA3B463A4629462548FEF7FBF93A46DD
:10307C0039462248FDF72CFAF7231AAD22461021C7
:10308C001E4805F8223DFDF723FA224639461B4817
:10309C00FDF71EFA3B463A4629461948FEF7E2F977
:1030AC003A4639461548FDF713FA20231AAD3A462D
:1030BC001021124805F8233DFDF70AFA224639463D
:1030CC000E48FDF705FA3B463A4629460C48FEF7F2
:1030DC00C9F93A4639460948FDF7FAF9C0231AAD41
:1030EC0022461021054805F8243DFDF7F1F922464A
:1030FC0039460248FDF7ECF93B4603E00008014075
:10310C00B40100203A462946DA48FEF7ABF93A46B4
:10311C003946D948FDF7DCF923231AAD3A4610217C
:10312C00D54805F8253DFDF7D3F922463946D24856
:10313C00FDF7CEF9294610250DF16809C8463B4626
:10314C003A46CC48FEF78EF93A463946CA48FDF75E
:10315C00BFF922462946C84809F826ADFDF7B8F94B
:10316C0022463946C448FDF7B3F93B463A46494630
:10317C00C048FEF777F93A463946BF48FDF7A8F93B
:10318C003A462946BC4808F8275DFDF7A1F92246C6
:10319C003946B948FDF79CF93B463A464146B54895
:1031AC00FEF760F93A463946B348FDF791F9C52365
:1031BC000DF1680822462946AF4808F8283DFDF76E
:1031CC0087F922463946AC48FDF782F93B463A4628
:1031DC004146A848FEF746F93A463946A648FDF757
:1031EC0077F93E230DF168093A462946A248C846AC
:1031FC0009F8293DFDF76CF9224639469E48FDF742
:10320C0067F93B463A4649469A48FEF72BF93A4647
:10321C0039469948FDF75CF94FF028033A462946A0
:10322C00954808F82A3DFDF753F92246394692484D
:10323C00FDF74EF93B463A4641468E48FEF712F9E9
:10324C003A4639468C48FDF743F9C7230DF1680817
:10325C0022462946884808F82B3DFDF739F92246C5
:10326C0039468548FDF734F93B463A464146814894
:10327C00FEF7F8F83A4639467F48FDF729F98623D8
:10328C000DF1680A3A4629467B48D146D0460AF8E1
:10329C002C3DFDF71DF9224639467748FDF718F904
:1032AC003B463A4651467348FEF7DCF83A463946F7
:1032BC007148FDF70DF94FF03603224629466E484A
:1032CC0009F82D3DFDF704F9224639466A48FDF709
:1032DC00FFF83B463A4649466648FEF7C3F83A467D
:1032EC0039466548FDF7F4F84FF0480C3A46294644
:1032FC00614808F82ECDFDF7EBF8224639465E48BA
:10330C00FDF7E6F83B463A4641465A48FEF7AAF81E
:10331C003A4639465848FDF7DBF83A230DF1680870
:10332C0022462946544808F82F3DFDF7D1F822468D
:10333C0039465148FDF7CCF83B463A4641464D4894
:10334C00FEF790F83A4639464B48FDF7C1F855233D
:10335C000DF168083A462946474808F8303DFDF714
:10336C00B7F8224639464448FDF7B2F83B463A4690
:10337C0041464048FEF776F83A4639463E48FDF756
:10338C00A7F8B1230DF16808224629463A4808F8F7
:10339C00313DFDF79DF8224639463748FDF798F840
:1033AC003B463A4641463348FEF75CF83A463946C6
:1033BC003148FDF78DF80DF168083A4629462E483C
:1033CC0008F8324DFDF784F8224639462A48FDF7B5
:1033DC007FF83B463A4641462648FEF743F83A46C4
:1033EC0039462548FDF774F818230DF168083A465C
:1033FC002946214808F8333DFDF76AF8224639463C
:10340C001D48FDF765F83B463A4641461948FEF71C
:10341C0029F83A4639461848FDF75AF8B6230DF103
:10342C00680822462946144808F8343DFDF750F840
:10343C00224639461048FDF74BF83B4641463A4682
:10344C000C48FEF70FF83A4639460B48FDF740F8A2
:10345C000DF168083A462946074808F835BDFDF7CE
:10346C0037F8224639460448FDF732F83B464146C8
:10347C003A4603E0B401002000080140DB48FDF7A8
:10348C00F1FF3A463946DA48FDF722F882230DF16E
:10349C0068083A462946D64808F8363DFDF718F82C
:1034AC0022463946D248FDF713F83B4641463A4688
:1034BC00CE48FDF7D7FF3A463946CD48FDF708F818
:1034CC0027230DF168083A462946C94808F8373DC4
:1034DC00FCF7FEFF22463946C548FCF7F9FF3B4690
:1034EC0041463A46C148FDF7BDFF3A463946C04809
:1034FC00FCF7EEFFF2230DF1680822462946BC4882
:10350C0008F8383DFCF7E4FF22463946B848FCF78A
:10351C00DFFF3B4641463A46B448FDF7A3FF3A4627
:10352C003946B348FCF7D4FF0DF168083A462946F2
:10353C00AF4808F8394DFCF7CBFF22463946AC486A
:10354C00FCF7C6FF3B4641463A46A848FDF78AFFC2
:10355C003A463946A648FCF7BBFF26230DF168080E
:10356C0022462946A24808F83A3DFCF7B1FF22460C
:10357C0039469F48FCF7ACFF3B4641463A469B48D0
:10358C00FDF770FF3A4639469948FCF7A1FF0DF15B
:10359C0068083A462946964808F83B7DFCF798FFA0
:1035AC00224639469248FCF793FF3B4641463A4641
:1035BC008E48FDF757FF3A4639468D48FCF788FF91
:1035CC00E0231AAF22462946894807F83C3DFCF710
:1035DC007FFF224601218648FCF77AFF01233946FA
:1035EC001A468248FDF73EFF01220F2711468048FC
:1035FC00FCF76EFF0DF16808294601227C4808F89B
:10360C003D7DFCF765FF224601217948FCF760FF00
:10361C00012341461A467548FDF724FF01224FF05D
:10362C00310811467248FCF753FF0DF16809294621
:10363C0001226F4809F83E8DFCF74AFF2246012112
:10364C006B48FCF745FF012349461A466748FDF7CE
:10365C0009FF012266481146FCF73AFF2B230DF1B6
:10366C00680929460122624809F83F3DFCF730FF02
:10367C00224601215E48FCF72BFF012349461A46DE
:10368C005A48FDF7EFFE012259481146FCF720FF7E
:10369C004FF00C0E0DF1680929460122544809F827
:1036AC0040EDFCF715FF224601215148FCF710FFB5
:1036BC00012349461A464D48FDF7D4FE01224FF02E
:1036CC000E0911464A48FCF703FF0DF1680A29461A
:1036DC00012247480AF8419DFCF7FAFE22460121D7
:1036EC004348FCF7F5FE012351461A463F48FDF7C7
:1036FC00B9FE01223E481146FCF7EAFE0DF1680ABC
:10370C00294601223A480AF842BDFCF7E1FE22465E
:10371C0001213748FCF7DCFE012351461A46334899
:10372C00FDF7A0FE012232481146FCF7D1FE4E23D4
:10373C000DF1680A294601222D480AF8433DFCF791
:10374C00C7FE224601212A48FCF7C2FE012351463E
:10375C001A462648FDF786FE012225481146FCF73D
:10376C00B7FEF1230DF1680A2946012220480AF818
:10377C00443DFCF7ADFE224601211D48FCF7A8FE96
:10378C00012351461A461948FDF76CFE01221848D0
:10379C001146FCF79DFE37230DF1680A29460122DC
:1037AC0013480AF8453DFCF793FE224601211048C8
:1037BC00FCF78EFE012351461A460C48FDF752FECB
:1037CC0001220B481146FCF783FE4FF0070C0DF15C
:1037DC00680A2946012206480AF846CDFCF778FE0D
:1037EC00224601210248FCF773FE03E0B4010020DD
:1037FC0000080140012351461A46D448FDF732FE19
:10380C000122D3481146FCF763FE0DF1680A2946E4
:10381C000122CF480AF8475DFCF75AFE22460121E7
:10382C00CB48FCF755FE012351461A46C748FDF715
:10383C0019FE0122C6481146FCF74AFE1AAD0122B8
:10384C001021C34805F8486DFCF742FE22460121C1
:10385C00BF48FCF73DFE012329461A46BB48FDF73D
:10386C0001FE0122BA481146FCF732FE1AAD0122C4
:10387C001021B74805F8499DFCF72AFE2246012184
:10388C00B348FCF725FE012329461A46AF48FDF73D
:10389C00E9FD0122AE481146FCF71AFE09231AADC8
:1038AC0001221021AA4805F84A3DFCF711FE2246D8
:1038BC000121A748FCF70CFE012329461A46A34810
:1038CC00FDF7D0FD0122A2481146FCF701FE1AAD0E
:1038DC00012210219E4805F84B4DFCF7F9FD2246BC
:1038EC0001219B48FCF7F4FD012329461A46974811
:1038FC00FDF7B8FD012296481146FCF7E9FDE123DE
:10390C001AAD22461021924805F84C3DFCF7E0FD1B
:10391C00224601218E48FCF7DBFD012329461A467D
:10392C008A48FDF79FFD012289481146FCF7D0FD1E
:10393C001AAD01221021864805F84D4DFCF7C8FD43
:10394C00224601218248FCF7C3FD012329461A4671
:10395C007E48FDF787FD01227D481146FCF7B8FD36
:10396C001AAC012210217A4804F84E9DFCF7B0FDE8
:10397C00002201217648FCF7ABFD012321461A46B3
:10398C007248FDF76FFD012271481146FCF7A0FD4E
:10399C0014231AAC012210216D4804F84F3DFCF79A
:1039AC0097FD002201216A48FCF792FD0123214674
:1039BC001A466648FDF756FD012265481146FCF78C
:1039CC0087FD1AAC01221021614804F8506DFCF7F8
:1039DC007FFD002201215E48FCF77AFD0123214680
:1039EC001A465A48FDF73EFD01221125114658484A
:1039FC00FCF76EFD1AAC01221021554804F8515DFC
:103A0C00FCF766FD002201215148FCF761FD012302
:103A1C0021461A464D48FDF725FD01224FF00706B9
:103A2C0011464B48FCF754FD1AAC012210214848B2
:103A3C0004F8526DFCF74CFD002201214448FCF7C0
:103A4C0047FD012321461A464048FDF70BFD012294
:103A5C003F481146FCF73CFD1AAC012210213C48B2
:103A6C0004F8538DFCF734FD002201213848FCF793
:103A7C002FFD012321461A463448FDF7F3FC0122A1
:103A8C006FF03E0A11463248FCF722FD1AAC0122B7
:103A9C0010212F4804F854ADFCF71AFD0022012127
:103AAC002B48FCF715FD012321461A462748FDF744
:103ABC00D9FC012226481146FCF70AFD4FF0480CB0
:103ACC001AAC01221021224804F855CDFCF700FD58
:103ADC00002201211E48FCF7FBFC012321461A465B
:103AEC001A48FDF7BFFC012219481146FCF7F0FCFF
:103AFC001AAC01221021164804F856BDFCF7E8FC5C
:103B0C00002201211248FCF7E3FC012321461A464E
:103B1C000E48FDF7A7FC01220D481146FCF7D8FC16
:103B2C001AAC012210210A4804F8577DFCF7D0FC8E
:103B3C00002201210648FCF7CBFC012321461A4642
:103B4C000248FDF78FFC012204E000BFB401002005
:103B5C00000801406C481146FCF7BAFC4FF00C0E03
:103B6C001AAC01221021684804F858EDFCF7B0FC9F
:103B7C00002201216448FCF7ABFC012321461A46C4
:103B8C006248FDF76FFC01225F481146FCF7A0FC70
:103B9C001AAC012210215C4804F8598DFCF798FCF2
:103BAC00002201215848FCF793FC012321461A46B8
:103BBC005648FDF757FC01224FF036061146524885
:103BCC00FCF786FC1AAC012210214F4804F85A6D00
:103BDC00FCF77EFC002201214B48FCF779FC012309
:103BEC0021461A464948FDF73DFC0122464811463C
:103BFC00FCF76EFC1AAC01221021434804F85B7DE3
:103C0C00FCF766FC002201213F48FCF761FC012314
:103C1C0021461A463D48FDF725FC01223A4811463B
:103C2C00FCF756FC1AAC00221021374804F85C5DF6
:103C3C00FCF74EFC002201213348FCF749FC012320
:103C4C0021461A463148FDF70DFC01222E4811463B
:103C5C00FCF73EFC7820FCF7BBFA29231AAC0022B7
:103C6C001021294804F85D3DFCF732FC00220121AB
:103C7C002548FCF72DFC012321461A462348FDF765
:103C8C00F1FB01224FF0020911461F48FCF720FC02
:103C9C00019A1F4B1AACC2F8023082F80090102126
:103CAC000022194804F8016DFCF712FC00220121D6
:103CBC001548FCF70DFC012321461A461348FDF765
:103CCC00D1FB012210481146FCF702FC4FF02803EF
:103CDC001AAC012210210C4804F8023DFCF7F8FB49
:103CEC00002201210848FCF7F3FB012321461A4668
:103CFC000648FDF7B7FB012203481146FCF7E8FB29
:103D0C001BB0BDE8F08F704700080140B4010020E3
:103D1C004001F0002DE9F04F85B0BDF83870BDF8CA
:103D2C003C90002800F05B811E464388751A9E4229
:103D3C0028BF03F1FF36838828BFB6B29F42A7EB9A
:103D4C00020A28BF03F1FF374FF02A038B46904637
:103D5C0004460AFB05FA4FF0000204AD4FF01001C7
:103D6C00A04828BFBFB205F8023DFCF7B1FB00220A
:103D7C0001219C48FCF7ACFB012329461A469A48C2
:103D8C00FDF770FB012297481146FCF7A1FB04AD2F
:103D9C004FEA1B2301221021924805F8033DFCF742
:103DAC0097FB002201218F48FCF792FB0123294647
:103DBC001A468D48FDF756FB01228A481146FCF73E
:103DCC0087FB04AD01221021864805F804BDFCF7E1
:103DDC007FFB002201218348FCF77AFB0123294653
:103DEC001A468148FDF73EFB01227E481146FCF73E
:103DFC006FFB04AD330A012210217A4805F8053D0A
:103E0C00FCF766FB002201217648FCF761FB0123DD
:103E1C0029461A467448FDF725FB012271481146C4
:103E2C00FCF756FB04AD012210216E4805F8066D17
:103E3C00FCF74EFB002201216A48FCF749FB0123E9
:103E4C0029461A466848FDF70DFB012265481146C4
:103E5C00FCF73EFB2B2304AD00221021614805F832
:103E6C00073DFCF735FB002201215E48FCF730FBD7
:103E7C00012329461A465C48FDF7F4FA01225948F9
:103E8C001146FCF725FB04AD4FEA18230122102143
:103E9C00544805F8083DFCF71BFB00220121514852
:103EAC00FCF716FB012329461A464F48FDF7DAFAB0
:103EBC0001224C481146FCF70BFB04AD01221021EA
:103ECC00484805F8098DFCF703FB00220121454801
:103EDC00FCF7FEFA012329461A464348FDF7C2FABD
:103EEC00012240481146FCF7F3FA04AD3B0A0122CB
:103EFC0010213C4805F80A3DFCF7EAFA00220121A2
:103F0C003848FCF7E5FA012329461A463648FDF7EE
:103F1C00A9FA012233481146FCF7DAFA04AD012262
:103F2C001021304805F80B7DFCF7D2FA0022012154
:103F3C002C48FCF7CDFA012329461A462A48FDF7EE
:103F4C0091FA01222C2711462648FCF7C1FAA388C6
:103F5C00658804AE03FB05F5002255454FF01001B2
:103F6C00204828BF554606F8017DFCF7B1FA00221F
:103F7C0001211C48FCF7ACFA012331461A461A48B9
:103F8C00FDF770FA012217481146FCF7A1FA01223D
:103F9C0010211448FCF79CFA002201211148FCF76F
:103FAC0097FA4FEA19238DF804908DF803308DB1F0
:103FBC0000240D4E01230DF103011A463046FDF786
:103FCC0051FA012301A91C441A463046FDF74AFA5E
:103FDC00AC42EFD1012203481146FCF779FA05B047
:103FEC00BDE8F08F00080140B401002060B12DE95C
:103FFC00F04F448885B08C4203D9B0F804C0944586
:10400C0003D805B0BDE8F08F704798462A234F1CA3
:10401C00BFB2BC4202F10105ADB298BF04F1FF344E
:10402C00A7EB010698BFA7B2AC45A5EB020E044660
:10403C0098BF0CF1FF3591468B460DF1100A4FF0ED
:10404C0000024FF01001A44898BFADB20EFB06F66B
:10405C000AF8023DFCF73CFA002201219E48FCF7CD
:10406C0037FA012351461A469C48FDF7FBF9012209
:10407C0099481146FCF72CFA0DF1100A4FEA1B2354
:10408C000122102194480AF8033DFCF721FA002282
:10409C0001219148FCF71CFA012351461A468F481E
:1040AC00FDF7E0F901228C481146FCF711FA0DF1ED
:1040BC00100A0122102188480AF804BDFCF708FAFE
:1040CC00002201218448FCF703FA012351461A46C9
:1040DC008248FDF7C7F901227F481146FCF7F8F931
:1040EC000DF1100A3B0A012210217B480AF8053D0C
:1040FC00FCF7EEF9002201217748FCF7E9F90123DE
:10410C0051461A467548FDF7ADF901227248114621
:10411C00FCF7DEF90DF1100A012210216E480AF8A5
:10412C00067DFCF7D5F9002201216B48FCF7D0F98C
:10413C00012351461A466948FDF794F90122664855
:10414C001146FCF7C5F92B2304AF0022102162485D
:10415C0007F8073DFCF7BCF9002201215E48FCF78B
:10416C00B7F9012339461A465C48FDF77BF9012261
:10417C0059481146FCF7ACF904AF4FEA1923012258
:10418C001021554807F8083DFCF7A2F9002201213F
:10419C005148FCF79DF9012339461A464F48FDF763
:1041AC0061F901224C481146FCF792F904AF012247
:1041BC001021494807F8099DFCF78AF900220121D2
:1041CC004548FCF785F9012339461A464348FDF763
:1041DC0049F9012240481146FCF77AF904AF2B0A41
:1041EC00012210213C4807F80A3DFCF771F9002226
:1041FC0001213948FCF76CF9012339461A46374836
:10420C00FDF730F9012234481146FCF761F904AF8F
:10421C0001221021304807F80B5DFCF759F90022F8
:10422C0001212D48FCF754F9012339461A462B4835
:10423C00FDF718F901222C2711462748FCF748F9FD
:10424C006188A38804AD03FB01F300229E424FF06A
:10425C001001214828BF1E4605F8017DFCF738F9EE
:10426C00002201211C48FCF733F9012329461A4688
:10427C001A48FDF7F7F8012217481146FCF728F900
:10428C00012210211448FCF723F9002201211248C5
:10429C00FCF71EF94FEA18238DF804808DF80330D3
:1042AC008EB100240D4D01230DF103011A46284651
:1042BC00FDF7D8F8012301A91C441A462846FDF73E
:1042CC00D1F8B442EFD1012203481146FCF700F9B2
:1042DC0005B0BDE8F08F00BF00080140B40100201C
:1042EC0030B50E4C83B002AD05F8010D002220460E
:1042FC002021FCF7EDF8012329461A460848FDF762
:10430C00B1F8204601222021FCF7E2F820460022D9
:10431C002021FCF7DDF803B030BD00BF000C0140DC
:10432C00B401002030B5012200244FF48033022563
:10433C004FF4E01195B00AA80A920E920B931293C7
:10434C0013910C94059401940D94CDE90F44CDE98F
:10435C000644CDE90844CDE9024404941195FCF7D8
:10436C00FBFC0F224FF48063294605A805920893A5
:10437C00069507940994FCF7E7FE102301A8049412
:10438C000193FCF7ADFF15B030BD00BF70B5002434
:10439C008AB0FBF7F9FEFFF7C5FFCDE90644CDE97E
:1043AC0008445D4B22469969022641F0100199613F
:1043BC0098694FF4005100F01000029002989D692A
:1043CC00564845F020059D619D6905F02005039533
:1043DC00039D9D6945F004059D619D6905F00405EB
:1043EC000495049D9D6945F008059D619B69012517
:1043FC0003F008030593059BFCF76AF8224640F28C
:10440C0013214748FCF764F8224621214548FCF764
:10441C005FF84FF4005306A94048CDE906350894DF
:10442C000996FBF755FF40F2132306A93C48CDE94A
:10443C00075409960693FBF74BFF212306A939482D
:10444C00CDE9075409960693FBF742FF4FF47042EF
:10445C00354B06A93348CDE906230895FBF738FF01
:10446C00224621462820FBF7D7FE28200A25FBF7F9
:10447C0009FF4FF4827600F057F908224FF40071CF
:10448C002A4B2B48C3E9061218601846C3E90244AC
:10449C00C3E90444C3E908449C625E60DD62FCF736
:1044AC00A1FF2449244800F04DF82448FEF7BCFA3B
:1044BC00F023224621460194009320484FF4A07328
:1044CC00FFF728FCC8244FF6FF732A462946CDE98E
:1044DC0000431A484FF4A073FFF71CFC4FF20F0374
:1044EC002A4629460193009432231448FFF712FC04
:1044FC008C25124E1424224601344FF4FC632946B9
:10450C003046A4B2FFF772FD642CF4D10135ADB284
:10451C00962DEFD1FEE700BF0010024000100140C5
:10452C0000080140000C014000003110B4010020D3
:10453C0000300140ED4200080C020020AC010020CC
:10454C00704700BF28B100234160037009B11846C1
:10455C000847704728B10022436802700BB110461F
:10456C0018477047E8B102F00203D2070AD50229B6
:10457C0025D0032918D0012904D1002B14BF2223E4
:10458C00022301E03BB90123017842680B4303701D
:10459C003AB1184610470329F5D8DFE801F0030EAD
:1045AC000C0A70471123EFE7002B14BF8823082354
:1045BC00EAE78123E8E74123E6E72123E4E7002B40
:1045CC0014BF44230423DFE70E4B82B09A690E49D3
:1045DC0042F001029A619A6902F001020092009A7B
:1045EC00DA6942F08052DA61DB6903F0805301939F
:1045FC00019B4B6823F0E06343F080634B6002B097
:10460C00704700BF001002400000014070B500244C
:10461C000268194B86B09A42CDE90244CDE90444B4
:10462C0001D006B070BDA0210226032503F560431E
:10463C009A69124842F480529A619A6902F4805243
:10464C000092009A9A6942F004029A619B69029165
:10465C0003F00403019302A9019B03960595FBF754
:10466C0037FE402302A90548CDE903440293FBF72A
:10467C002FFE06B070BD00BF0030014000080140A5
:10468C00704700BFFEE700BFFEE700BFFEE700BFBC
:10469C00FEE700BF704700BF704700BF704700BF08
:1046AC00FBF784BD0148FBF7B9BF00BFD80400205D
:1046BC0008B54FF48050FBF70FFF4FF40050FBF799
:1046CC000BFF4FF48040FBF707FFBDE808404FF4A9
:1046DC000040FBF701BF00BF30B44FF41F054FF093
:1046EC0000640E4B0E4A19680E4841F00101196026
:1046FC0059680A405A601A6822F0847222F4803297
:10470C001A601A6822F480221A605A6822F4FE0297
:10471C005A609D60846030BC704700BF001002403E
:10472C000000FFF800ED00E008B500221049114828
:10473C00FDF75CFDC0B910490E48FDF76DFD80B961
:10474C000E490C48FDF74AFD40B90A48FDF76CFDCF
:10475C0000B908BDBDE80840FFF7F2BEFFF7F0FE58
:10476C00F3E7FFF7EDFEEBE7FFF7EAFEE3E700BF49
:10477C001C0100201402002008000020040100206D
:10478C0002680E4B9A4200D07047002203F5DA33D0
:10479C0010B5DC6982B044F40004DC61DB691146BD
:1047AC0003F4000301931420019BFBF735FD142047
:1047BC0002B0BDE81040FBF765BD00BF005C0040D7
:1047CC0000F50C71D0F86802FDF746BD00EB411303
:1047DC00D3F83C21D0F86802FDF76EBD00EB411315
:1047EC00DA6BD0F86802FDF7A7BD00BFD0F86802FD
:1047FC00FDF742BE836810B5022B044601D0FFF7CB
:10480C009FFED4F868020121FDF71EFED4F8680261
:10481C00BDE81040FDF7F0BD10B50446D0F86802B5
:10482C00FDF716FEA36923B1024A136943F0060390
:10483C00136110BD00ED00E0D0F86802FDF712BE68
:10484C0038B50446002208250221184B1848C4F834
:10485C00C03218601846C3F86842C3E90151C3E975
:10486C0006221A62FBF744FE08B1FFF769FE00222C
:10487C0018231146D4F8C002FCF752FA5823002230
:10488C008021D4F8C002FCF74BFA98230022812136
:10489C00D4F8C002FCF744FAD4F8C002D8230022A2
:1048AC000121FCF73DFA002038BD00BFD8040020E0
:1048BC00005C004008B5D0F8C002FBF797FE032857
:1048CC0096BF024B0220185C08BD00BFF44D0008D7
:1048DC0010B51C46D0F8C00213462246FCF720F94E
:1048EC00032896BF014B0220185C10BDF44D000844
:1048FC0008B5D0F8C002FCF745F9032896BF024B67
:10490C000220185C08BD00BFF44D000808B5D0F8B3
:10491C00C002FCF791F9032896BF024B0220185CE9
:10492C0008BD00BFF44D000808B5D0F8C002FCF774
:10493C00BFF9032896BF024B0220185C08BD00BFCC
:10494C00F44D00080A06D0F8C03204D403EB41132E
:10495C0093F82A01704701F07F0103EB411393F8A0
:10496C002A00704708B5D0F8C002FCF7C5F8032838
:10497C0096BF024B0220185C08BD00BFF44D000826
:10498C0008B5D0F8C002FCF741F9032896BF024BDA
:10499C000220185C08BD00BFF44D000808B5D0F823
:1049AC00C002FCF71BF9032896BF024B0220185CCF
:1049BC0008BD00BFF44D0008004870478C01002072
:1049CC00704700BF704700BF0020704708B50C4B04
:1049DC00D3F8B8321B78022B09D0052B05D1002255
:1049EC004FF400510748FBF773FD002008BD01226E
:1049FC004FF400510348FBF76BFD002008BD00BFCE
:104A0C0014020020001001400020704738B54FF40C
:104A1C0080515148FBF756FD01284BD04FF4005103
:104A2C004D48FBF74FFD0128044628D04FF4804138
:104A3C004948FBF747FD0128044657D04FF4004185
:104A4C004548FBF73FFD012804466AD000240122AB
:104A5C004FF400514148FBF73BFD414B05221946F1
:104A6C0040485C70FDF7A4FB22463F484FF40071B0
:104A7C00FBF72EFDBDE838403C48FFF76BBD142515
:104A8C0000224FF400513548FBF722FD344B052230
:104A9C00194634485D70FDF78BFB22464FF40071CC
:104AAC003148FBF715FD2146BDE8384002222F485E
:104ABC00FFF758BD04460A2500224FF40051274841
:104ACC00FBF706FD264B0522194626485D70FDF7BF
:104ADC006FFB22464FF400712348FBF7F9FCBDE84D
:104AEC003840022200212148FFF73CBD1E25002240
:104AFC004FF400511948FBF7EBFC194B05221946F2
:104B0C0018485D70FDF754FB22464FF400711648AF
:104B1C00FBF7DEFCBDE83840022214481146FFF7D3
:104B2C0021BD282500224FF400510C48FBF7D0FC86
:104B3C000B4B052219460B485D70FDF739FB2246DD
:104B4C004FF400710848FBF7C3FCBDE83840022263
:104B5C0003210648FFF706BD000C01400010014080
:104B6C001401002014020020000801400C02002057
:104B7C00122301480B8070473801002004230148A0
:104B8C000B8070474C01002010B5044C0A460448B9
:104B9C002146FDF7DDFE204610BD00BF4407002076
:104BAC00244E000810B5044C0A4604482146FDF773
:104BBC00CFFE204610BD00BF44070020304E000839
:104BCC0010B5044C0A4604482146FDF7C1FE2046A8
:104BDC0010BD00BF44070020F84D000810B5044C70
:104BEC000A4604482146FDF7B3FE204610BD00BF1F
:104BFC00440700200C4E00081A20444A444B12680B
:104C0C001B680880D21801D14248704710B40024A8
:104C1C00130FD8B2092B40493E4B94BF303037307C
:104C2C0009689870C2F303600928DC70C4B294BFA1
:104C3C00303437341C710024C2F3035009285C71E2
:104C4C00C4B294BF303437349C710024C2F3034097
:104C5C000928DC71C4B294BF303437341C72002480
:104C6C00C2F3033009285C72C4B294BF30343734B9
:104C7C009C720024C2F303200928DC72C4B294BFD6
:104C8C00303437341C730024C2F30310092802F0AB
:104C9C000F025C73C4B298BF3034D0B288BF3734C3
:104CAC00092A94BF30303730187400200A0F092AB3
:104CBC005874D0B294BF3030373098740020C1F3A0
:104CCC000362092AD874D0B294BF303037301875CB
:104CDC000020C1F30352092A5875C1F30341D0B225
:104CEC0098BF3030CAB288BF3730092994BF3032F0
:104CFC0037329C739875002400201A760022D875E0
:104D0C00DC735A76034810BC704700BFE8F7FF1FEE
:104D1C00F0F7FF1F50010020ECF7FF1F002103E00C
:104D2C000B4B5B58435004310A480B4B42189A42C8
:104D3C00F6D30A4A02E0002342F8043B084B9A429D
:104D4C00F9D3FFF7C9FC00F00FF8FFF71FFB704712
:104D5C004C4E0008000000206C0100206C0100206B
:104D6C0044090020FEE7000070B500250C4E0D4CE8
:104D7C00A41BA410A54209D100F01AF800250A4E74
:104D8C000A4CA41BA410A54205D170BD56F82530C1
:104D9C0098470135EEE756F8253098470135F2E78C
:104DAC00444E0008444E0008444E0008484E00088B
:104DBC00F8B500BFF8BC08BC9E467047F8B500BFFC
:084DCC00F8BC08BC9E467047CC
:104DD40002030405060708090A0B0C0D0E0F101038
:104DE4000000000000000000010203040607080997
:104DF400000201024D7920437573746F6D20436F77
:104E04006E66696700000000437573746F6D204817
:104E1400494420496E746572666163650000000050
:104E240044694D6F6D6974650000000053557065E9
:104E34007220637573746F6D2064657669636500B1
:044E44003101000830
:044E48000D01000850
:104E4C0001000000100000006D2100083521000851
:104E5C00F11F000800000000A11F0008951F0008AA
:104E6C00CD1F000800000000000000000000000042
:104E7C007D1F0008711F0008891F0008C11F000852
:104E8C0009022900010100C03209040000020300DC
:104E9C0000000921110100012222000705810302F3
:104EAC0000050705010302000500000009022900A6
:104EBC00010100C0320904000002030000000921B6
:104ECC0011010001222200070581030200050705DC
:104EDC00010302000500000009211101000122223A
:104EEC00000000000A060002000000400100000063
:104EFC0009022900010100C032090400000203006C
:104F0C000000092111010001222200070581030282
:104F1C000005070501030200050000000024F40051
:104F2C000600FF0901A1018501090175089504B16D
:104F3C008285010901918285020902750895048117
:104F4C0082C00000E0000020D5490008154A000886
:104F5C00D949000802000000000000007D4B000849
:104F6C00894B0008954B0008B14B0008054C000814
:104F7C00CD4B0008E94B0008120100020000004074
:104F8C0083045057000201020301000004030904CA
:104F9C001A030000000000000000000000000000E8
:0C4FAC00000000000000000000000000F9
:0400000508004D2979
:00000001FF
