:020000040800F2
:1000000000500020552D0008452800084928000808
:100010004D2800085128000855280008000000005D
:100020000000000000000000000000005928000847
:100030005D2800080000000061280008652800080D
:100040009D2D00089D2D00089D2D00089D2D000868
:100050009D2D00089D2D00089D2D00089D2D000858
:100060009D2D00089D2D00089D2D00089D2D000848
:100070009D2D00089D2D00089D2D00089D2D000838
:100080009D2D00089D2D00089D2D00089D2D000828
:10009000692800089D2D00089D2D00089D2D000851
:1000A0009D2D00089D2D00089D2D00089D2D000808
:1000B0009D2D00089D2D00089D2D00089D2D0008F8
:1000C0009D2D00089D2D00089D2D00089D2D0008E8
:1000D0009D2D00089D2D00089D2D00089D2D0008D8
:1000E0009D2D00089D2D00089D2D0008000000009A
:1000F0000000000000000000000000000000000000
:0C01000000000000000000005FF808F1A3
:10010C0010B5054C237833B9044B13B10448AFF345
:10011C0000800123237010BD680100200000000046
:10012C00E82D000808B5034B1BB103490348AFF396
:10013C00008008BD000000006C010020E82D0008C4
:10014C0038B54FF47A730D490D4A09781268B3FB30
:10015C00F1F30546B2FBF3F000F090F808B90F2D5F
:10016C0001D9012038BD0446024629464FF0FF3024
:10017C0000F040F8034B20461D6038BD0000002005
:10018C00DC00002004000020074A08B51368032097
:10019C0043F01003136000F01BF80020FFF7D0FFB2
:1001AC0002F028FB002008BD00200240034A044B4B
:1001BC0011681B780B441360704700BFA40100202A
:1001CC0000000020014B1868704700BFA4010020FC
:1001DC004FF6FF01064A0002D36800F4E0600B40C2
:1001EC0043F0BF6343F400330343D360704700BF55
:1001FC0000ED00E0184B30B4DB68C3F30223C3F10D
:10020C000705042D03F1040428BF0425062C19D975
:10021C004FF0FF34033B9C4022EA04044FF0FF32C2
:10022C00AA4021EA020101FA03F22243120100283A
:10023C00D2B20ADB00F1604000F5614080F8002387
:10024C0030BC704700242346E8E7044B00F00F0055
:10025C0003441A7630BC704700ED00E0FCEC00E083
:10026C00002807DB012300F01F01034A8B404009E3
:10027C0042F82030704700BF00E100E00138B0F1D7
:10028C00807F0DD230B4F02500220721054B064C9F
:10029C00586084F82350104630BC9A60196070473F
:1002AC000120704710E000E000ED00E00A68002A31
:1002BC0000F0DB802DE9F04F4FF0000A85B0554679
:1002CC00DFF8D0C1DFF8D0E16D4FDFF8D08103E06B
:1002DC00013532FA05F378D00123AB4002EA03046E
:1002EC00A342F5D14A68122A00F09E8000F2878062
:1002FC00022A00F09D807CD9032A69D0112A02D1F0
:10030C00CB6803F1040AFF2C66D881460368AA0067
:10031C000F2606FA02FB23EA0B030AFA02F2134336
:10032C00C9F800304A68D30061D5DCF8189025F084
:10033C00030349F00109CCF81890DCF8189003F18C
:10034C00804309F00109CDF80C9003F5803305F0DA
:10035C000309DDF80CB04FEA8909D3F808B006FAA6
:10036C0009F62BEA06067045019611D0404563D07C
:10037C00444EB0427AD0444EB0420CBF4FF0030B07
:10038C004FF0040B019E0BFA09F946EA0906019697
:10039C009E603B68D6034CBF2343A3433B607B6802
:1003AC0096034CBF2343A3437B60BB68D6024CBF70
:1003BC002343A343BB609202FB6815D51C43FC602E
:1003CC000A68013532FA05F386D105B0BDE8F08F25
:1003DC00FF2C4FF0000A98D905F18042083A436887
:1003EC00920000F1040993E723EA0404FC600A6814
:1003FC006EE7A2B1012A86D1D1F80CA083E7234E77
:10040C00B2420CD020D9224EB24208D006F580362A
:10041C00B24204D0A6F58016B2427FF474AF8A685B
:10042C00E2B94FF0040A6EE7CB6803F10C0A6AE7F5
:10043C00CB6803F1080A66E74FF0010B0BFA09F9D8
:10044C0046EA09060196A3E7A6F58016B242E6D065
:10045C0006F58036B2427FF456AFE0E7012A0CBFB6
:10046C00036143614FF0080A4DE770474FF0020BF0
:10047C00019E0BFA09F946EA0906019688E700BFC6
:10048C000004014000100140001401400000211044
:10049C00000031100010024000080140000C014027
:1004AC0002B9090401617047F0B587B0002874D017
:1004BC0090F82932044603F0FF02002B68D0032386
:1004CC00264684F82932206800F07AFF56F810CBC3
:1004DC006D4637460FCF0FC53B68271D2B60604616
:1004EC0097E80E0000F05AFF054630B102230125B3
:1004FC0084F82932284607B0F0BD0146206800F088
:10050C0069FFD4F804C0BCF1000F29D028464FF085
:10051C00010E2A4604EB4013451C83F82800D886AC
:10052C00E8B2604583F829E083F82B20C3E90E225A
:10053C001A64EFD30023194604EB43125D1C03F13C
:10054C000A0082F82831EBB24001634582F8291188
:10055C0082F82B11C2F83811C2F83C112150EBD3A0
:10056C000FCE6D46D4F800C00FC5336860462B60C3
:10057C0097E80E0000F030FF05460028B6D10123A5
:10058C0084F82400206884F8293201F043FBB1E799
:10059C0080F8282202F0BCF991E70125284607B023
:1005AC00F0BD00BF90F82832012B10D0012110B5FE
:1005BC00044680F8281202F0CDFA206801F028FBDE
:1005CC00206800F0F3FE002084F8280210BD022001
:1005DC00704700BF2DE9F84F0446006801F01CFB82
:1005EC000104226843D4104601F016FB460500F1C5
:1005FC007181206801F010FB10F4804F206807D047
:10060C00B0F8443023F480431B041B0CA0F8443096
:10061C0001F002FB10F4005F206807D0B0F8443002
:10062C0023F400531B041B0CA0F8443001F0F4FA23
:10063C00C50400F13181206801F0EEFA000500F1EB
:10064C000481206801F0E8FA820500F1F18020684D
:10065C0001F0E2FAC30508D52268B2F8443023F45D
:10066C0080731B041B0CA2F84430BDE8F88FDFF834
:10067C0014A4DFF814B4B2F844301F04B3D5B2F8A4
:10068C00441089B211F00F0557D111F010011388E5
:10069C0000F03E819BB213F4006540F07A811B049C
:1006AC00E9D540F68F7311880B4043F0800313801B
:1006BC00B2F8503094F8281103EBC10302EB43035A
:1006CC00B3F80C34C3F30903C4F844319BB1D4F828
:1006DC003C1181B11046B4F82E2101F0A3FAD4F8E4
:1006EC003C31D4F8442129461344C4F83C3120460B
:1006FC0002F034F92268B2F85030D4F838119BB2B9
:10070C0002F20C40002940F09881C15A21F4F841C2
:10071C000904090CC152C15A6FEA41416FEA5141B7
:10072C0089B2C1521188D64B0B4083F4405343F429
:10073C00004343F0800313809DE732F82560B6B286
:10074C00310426D4330696D532F8251004EB451324
:10075C000AEA010141F4004122F82510B2F85010C8
:10076C0093F82850D86B01EBC50102EB4101B1F8AD
:10077C0004141D6CC1F3090146185964DE63002D85
:10078C0040F0EF8093F82810204602F0EFF8226832
:10079C0071E740F68F7332F825106F010B4043F070
:1007AC00800322F8253004EB070999F8343102F55F
:1007BC008060002B00F00F8199F8283132F823C0AB
:1007CC0002EB83011CF4804FB2F850C04FEAC30314
:1007DC00634400F01B81023330F81380C8F309081E
:1007EC00B8F1000F40F05D810B880BEA030343F472
:1007FC00004343F0C0030B802744D7F84421D7F8BB
:10080C003C31D7F8400142444344C7F84421C7F86F
:10081C003C31002800F0F780D7F8382197F82811E0
:10082C00904580F01481204602F098F8226889E700
:10083C0022682046B2F8443023F400731B041B0CCE
:10084C00A2F8443002F09AF801E72368B3F840208C
:10085C00184642F00802A3F84020B3F8442022F4D2
:10086C0000621204120CA3F84420B3F8402042F0AA
:10087C000402A3F8402001F0CFF9C10408D5226886
:10088C00B2F8443023F480531B041B0CA2F8443000
:10089C00204602F089F8D4E622682046B2F84030AF
:1008AC0023F004031B041B0CA2F84030B2F84030B8
:1008BC0023F008031B041B0CA2F8403002F084F850
:1008CC002068B0F8443023F480531B041B0CA0F8B0
:1008DC004430B1E622682046B2F8443023F48063F9
:1008EC001B041B0CA2F8443002F04CF894F828328C
:1008FC00012B3FF47EAE0025012384F8245084F8AC
:10090C0028322946206801F07DF984F8285270E6D7
:10091C000AEA030343F400431380B2F8503094F80E
:10092C002800E56B03EBC00302EB4302B2F804347E
:10093C002046C3F309031D446364E56302F016F813
:10094C0094F824301BB3236C2268002B7FF493AEF5
:10095C0094F8241041F08001A2F84C1084F8243053
:10096C0089E64FF0000C012793F82830104603F06D
:10097C00070251016318283183F82820C3E90F6559
:10098C002144C3F844C083F8297000F09DFF22680D
:10099C0071E6B2F8503094F82811104603EBC103FD
:1009AC0002EB4302B2F80C3404F50C71C3F30903E7
:1009BC00B4F82E21C4F8443101F034F940F68F73A9
:1009CC002268204611880B4043F08003138001F00D
:1009DC00BFFF22684FE6B2F8503099F82811063361
:1009EC0003EBC10330F81380C8F30908B8F1000F0A
:1009FC003FF402AF10464346B9F82E21D9F83C110A
:100A0C0001F010F9F8E697F828110CE7063330F8E6
:100A1C001380C8F30908B8F1000F3FF4E5AE434664
:100A2C001046B9F83221D9F83C1101F0FBF899F8CD
:100A3C002831216801EB8301D6E63E2926D84D08E2
:100A4C00CF0748BF0135AD02ADB2C5526AE64FF0D3
:100A5C00000C01F007014F01E21907F5947782F8B9
:100A6C002811C2F84001C2F83C31C2F844C182F8E6
:100A7C0029C1E119206800F027FF226862E600BF57
:100A8C008FBFFFFF0F8FFFFF8F8FFFFF4D09CE062C
:100A9C00064908BF05F1FF3541EA8525ADB2C552BF
:100AAC0040E610464346B9F83021BCE70080FFFF12
:100ABC0090F82822012A0DD010B50446012284F8A2
:100ACC00241080F82822006801F09CF8002084F89B
:100ADC00280210BD02207047F8B501F00705090681
:100AEC004FEA45141FD40027061904F5947186F8B3
:100AFC00297101444C780D700A61CB7004B1CD8121
:100B0C00022B04BF00230B7190F82832012B12D05A
:100B1C000123044680F82832006800F077FC00209E
:100B2C0084F82802F8BD0127061904F1280186F87B
:100B3C0029700144DEE70220F8BD00BF01F0070276
:100B4C00090610B54FEA421316D40024C11803F558
:100B5C00947381F82941C1180A7090F82832012B3E
:100B6C0015D00123044680F82832006800F0D6FD29
:100B7C00002084F8280210BD0124C118283381F804
:100B8C002940C1180A7090F82832012BE9D10220B3
:100B9C0010BD00BF70B5002601F007014D014419CE
:100BAC0005F5947584F82811C4F83C214119C4F852
:100BBC0040310068C4F8446184F8296100F084FE77
:100BCC00304670BDF8B50026012701F007014D0134
:100BDC004419283584F82810C4E90F2341190068FA
:100BEC0084F82970666400F06FFE3046F8BD00BFD3
:100BFC0038B5436801F007059D421BD80B061BD482
:100C0C0000244901431883F82941012301F594720A
:100C1C0081180D708B7090F828229A421BD00446D4
:100C2C0080F82832006800F077FFB5B1002084F816
:100C3C00280238BD012038BD01226B0103F12801C7
:100C4C00034483F82920012301440D708B7090F824
:100C5C0028229A42E3D1022038BD04F50C71206899
:100C6C0000F0DEFFE2E700BF38B5436801F00F0289
:100C7C009A421ED801F0070209064FEA42131AD411
:100C8C000025C41884F82951002503F594710144FA
:100C9C000A708D7090F82832012B1AD0012304466B
:100CAC0080F82832006800F059FF84F82852284652
:100CBC0038BD012038BD0125C41884F82950002501
:100CCC0003F1280101440A708D7090F82832012B31
:100CDC00E4D1022038BD00BF11F0800F0DD001F01F
:100CEC00070100EB4110283099B26AB101221B0CAC
:100CFC004381018102730020704700EB411000F525
:100D0C00947099B2002AF1D1C1800273002070470F
:100D1C00002800F055812DE9F041036882B0DD0711
:100D2C00044635D5A8494A6802F00C02042A00F0A2
:100D3C0005814A6802F00C02082A00F0FB80636807
:100D4C00B3F5803F10D0002B00F02081B3F5A02F1D
:100D5C0000F078819C4B1A6822F480321A601A6871
:100D6C0022F480221A6004E0974A136843F480331B
:100D7C001360FFF727FA944D064605E0FFF722FAB9
:100D8C00801B642800F2F5802B689A03F6D5236843
:100D9C009F074DD41A0722D5A369002B00F0BA8007
:100DAC0001228A4B884D1A60FFF70CFA064605E0C3
:100DBC00FFF708FA801B022800F2DB806B6A9B07A6
:100DCC00F6D5834B834A1B68A2FB03235B0A019372
:100DDC0000BF019B5A1E0192002BF9D123685D07BD
:100DEC0069D5794BDA69D00000F1EC800125DA691C
:100DFC0042F08052DA61DB6903F080530093009B70
:100E0C00754B1A68D10540F1A380E368012B37D0EC
:100E1C00002B00F0E780052B6B4B1A6A00F01F814A
:100E2C0022F001021A621A6A22F004021A622CE001
:100E3C00654A516811F00C0F61D0516801F00C013A
:100E4C00082959D02369002B00F0EB800122634B59
:100E5C005D4D1A60FFF7B6F9064605E0FFF7B2F9EB
:100E6C00801B022800F285802B689807F6D52B682A
:100E7C00626923F0F80343EAC2032B60236889E715
:100E8C00514A136A43F001031362FFF79BF94E4E6C
:100E9C00804641F2883705E0FFF794F9A0EB080093
:100EAC00B84266D8336A9B07F6D525B1464AD36952
:100EBC0023F08053D361E069D0B1434D6A6802F0EE
:100ECC000C02082A00F0D38002284FF00001444A9B
:100EDC0000F0DE801160FFF775F92C46054604E042
:100EEC00FFF770F9401B022843D823689B01F7D405
:100EFC00002002B0BDE8F0815268D603A2D4324A79
:100F0C001268950739D52269012A36D0012002B022
:100F1C00BDE8F0812D4A2C4D1360FFF753F90646BE
:100F2C0004E0FFF74FF9801B022822D86B6A9F0759
:100F3C00F7D453E74A68D0037FF501AF224A126811
:100F4C0091037FF525AF6268002A7FF421AFDDE7BE
:100F5C001A681E4642F480721A60FFF733F907468E
:100F6C003368DA053FF551AFFFF72CF9C01B642845
:100F7C00F6D9032002B0BDE8F081134960690A6814
:100F8C0022F0F80242EAC0020A6003E703F1804350
:100F9C0003F504331A681D4622F480321A601A686D
:100FAC0022F480221A60FFF70DF9064604E0FFF7E1
:100FBC0009F9801B6428DCD82B689B03F7D4E6E680
:100FCC000120704700251BE70010024080044242BC
:100FDC00DC000020D34D6210007000400000424243
:100FEC006000424203F1804303F504331A6A1E4643
:100FFC0022F001021A621A6A41F2883822F00402C5
:10100C001A62FFF7DFF8074604E0FFF7DBF8C01BB6
:10101C004045AED8336A9807F7D4002D3FF44BAF58
:10102C0044E7344A344D1360FFF7CCF8064604E02D
:10103C00FFF7C8F8801B02289BD82B689907F7D4B8
:10104C002368A7E603F18043A3F53C331A6842F406
:10105C0080221A601A6842F480321A6089E642F0E3
:10106C0004021A621A6A42F001021A620DE70128A0
:10107C003FF44DAF6B68226A03F4803191427FF4E8
:10108C0045AF606A03F47013181A18BF01203EE7CD
:10109C001160FFF797F8064605E0FFF793F8801B01
:1010AC0002283FF666AF2B689901F6D4226AB2F596
:1010BC00803F05D16B68A16823F400330B436B6050
:1010CC0001250D4B606A5968024321F474110B48D9
:1010DC000A435A6005601C46FFF774F8054605E0A4
:1010EC00FFF770F8401B02283FF643AF23689A01C4
:1010FC00F6D5FDE60000424200100240600042427C
:10110C0078B15D4A136803F007038B420BD2136866
:10111C0023F007030B431360136803F007038B42A0
:10112C0001D0012070472DE9F041036886B09D077E
:10113C0014D55C0704D5514C626842F4E0626260DD
:10114C001A0704D54D4C626842F4605262604B4CF5
:10115C008568626822F0F0022A436260DB0704466D
:10116C000D4620D54268454B012A1B686FD0022AD8
:10117C007ED0980727D5414E41F28838736823F00A
:10118C00030313437360FFF71DF8074604E0FFF7F2
:10119C0019F8C01B404569D87368626803F00C03EA
:1011AC00B3EB820FF3D1344A136803F00703AB425D
:1011BC000DD9136823F007032B431360136803F056
:1011CC000703AB4203D0012006B0BDE8F0812368D1
:1011DC00590706D52949E0684A6822F4E0620243BF
:1011EC004A601A0707D5254A2169536823F46053CE
:1011FC0043EAC103536040F20122214B06ACADF827
:10120C0004200FCB04E90F001C494A6802F00C03C0
:10121C00082B1AD1C2F38343234413F8100CD303C5
:10122C0018D4184B03FB00F3144A1748526817499B
:10123C00C2F30312805C164AC34008681360FEF7C1
:10124C007FFF002006B0BDE8F081124BECE79F0356
:10125C0091D4B8E74A680F4BC2F3404203FB00F34A
:10126C00224412F8142CB3FBF2F3DDE70320ABE7B6
:10127C009E0180D4A7E700BF00200240001002406E
:10128C00002E000800093D00102E0008040000206C
:10129C00DC00002000127A002DE9F04104460068C1
:1012AC0082B0C5072AD53A4BDA69D1003DD5394B06
:1012BC0000251A68D20546D5354960680A6A12F4C9
:1012CC0040720FD000F4407393420BD001270026DC
:1012DC000B6A314A23F44070176016600862D80715
:1012EC0045D460682A4A136A23F44073034313629B
:1012FC001DB1D36923F08053D3612068830706D5D1
:10130C00234AA168536823F440430B43536010F005
:10131C00100007D000201E4AE168536823F48003B4
:10132C000B43536002B0BDE8F081DA69012542F04D
:10133C008052DA61DB6903F080530193019B154BFA
:10134C001A68D205B8D41A681E4642F480721A6024
:10135C00FEF738FF07463368DB05ADD4FEF732FFE6
:10136C00C01B6428F7D9032002B0BDE8F0810E46FB
:10137C00FEF728FF41F288378046336A9A07B0D4CB
:10138C00FEF720FFA0EB0800B842F6D9EBE700BF50
:10139C0000100240007000404004424284B001A89A
:1013AC0080E80E0004B00020704700BF0246B0F881
:1013BC004030002043F43F43A2F84030704700BF58
:1013CC0044F2FF030246B0F8401000200B40A2F894
:1013DC00403070470020704784B070B4044601253B
:1013EC000020A4F84050A4F84000A4F84400A4F84D
:1013FC005000B4F8406004AD46F43F46A4F8406099
:10140C0085E80E0070BC04B0704700BF70B40D7856
:10141C00034630F82540BC4AC8782240032800F225
:10142C004281DFE800F04E46024A002048F2800478
:10143C00224323F825200D78B44E33F825202C4375
:10144C003240224323F825200A7B002A3DD1CC8848
:10145C000A784D786408640003EB0212002D00F04A
:10146C00E880B3F850502A44A2F800440A7833F8C4
:10147C00225003EB82046D060BD533F82240264034
:10148C0046F4004646F0C00623F822600C7803EBC5
:10149C008404CB78012B00F0208122889C4B1340D4
:1014AC0083F0200343F4004343F08003238070BC9B
:1014BC00704742F480620020B8E742F4C06200201A
:1014CC00B4E742F400720020B0E70C7833F8242023
:1014DC00324042F4014242F0800223F824200A7880
:1014EC000C89B3F8505003EB0212640802F58062C9
:1014FC006400ADB254530A784C89B3F8505003EBE6
:10150C000212640802F581626400ADB254534A7849
:10151C00002A42D10A7833F8225003EB82046D047E
:10152C000BD533F82240264046F4404646F0800660
:10153C0023F822600C7803EB8404228856060CD521
:10154C00228822F0F0021205120D42F4004242F001
:10155C00C00222800C7803EB840448F280062288B7
:10156C006C4D22F0F0021205120D42F4004242F0D2
:10157C00C00222800C7833F824202A4082F4405296
:10158C00324323F824200978614A33F82140224061
:10159C00324323F8212070BC70470A7833F822506C
:1015AC0003EB82046D040BD533F82240264046F43D
:1015BC00404646F0800623F822600C7803EB840446
:1015CC00228852060CD5228822F0F0021205120D48
:1015DC0042F4004242F0C00222800C7803EB8404F7
:1015EC00228822F0F0021205120D42F4404242F021
:1015FC0080022280CA780C78012A61D033F82450FA
:10160C00434A2A4082F0200242F4004242F0800217
:10161C0023F82420097870BC33F8212022F0F00242
:10162C009204920C42F4004242F0800223F82120F2
:10163C007047B3F850600D693244A2F808440A7838
:10164C00B3F8504003EB021202F20C42A4B265B3A1
:10165C003E2D4DD86E08ED0748BF0136B602B6B226
:10166C0016530C7833F8245003EB84026E040ED519
:10167C0033F8242022F0F0021205120D42F44042FD
:10168C0042F0800223F824200A7803EB82021188AE
:10169C00204B70BC0B4083F4405343F4004343F0A5
:1016AC008003138070470120C0E6155B25F4F845D4
:1016BC002D042D0C1553155B45F400451553D0E73F
:1016CC0033F8242022F0C0021205120D42F400421D
:1016DC0042F0800223F824209CE7238823F0C003E7
:1016EC001B051B0D43F4004343F08003238052E79A
:1016FC006E09ED06084D08BF06F1FF3645EA862552
:10170C00ADB21553ADE700BF8F89FFFF8F8FFFFF81
:10171C00BF8FFFFF8FBFFFFF0080FFFF30B40A7841
:10172C000D7B00EB82034C7815BB002C00F09980EC
:10173C0030F8224064060ED530F8223023F0F00346
:10174C001B051B0D43F4004343F0C00320F822306B
:10175C000B7800EB83031A88002030BC22F0C00207
:10176C001205120D42F4004242F080021A807047BA
:10177C00002C41D130F8224064040ED530F82230D0
:10178C0023F0F0031B051B0D43F4404343F080038F
:10179C0020F822300B7800EB83031A8855060CD501
:1017AC001A8822F0F0021205120D42F4004242F0A7
:1017BC00C0021A800B7800EB830348F280051A886C
:1017CC003F4C22F0F0021205120D42F4004242F09E
:1017DC00C0021A800A7830F8223023402B4320F8BC
:1017EC0022300A78374B30F822100B401D4320F87A
:1017FC002250002030BC704730F8224064040ED5D3
:10180C0030F8223023F0F0031B051B0D43F440434A
:10181C0043F0800320F822300B7800EB83031A8806
:10182C0052063ED448F280051A88264C22F0F0026B
:10183C001205120D42F4404242F080021A800A78DE
:10184C0030F8223023402B4320F822300A781C4BEE
:10185C0030F822100B401D4320F82250002030BCE1
:10186C00704730F8224065040ED530F8223023F052
:10187C00F0031B051B0D43F4404343F0800320F899
:10188C0022300B7800EB83031A88002030BC22F046
:10189C00F0029204920C42F4004242F080021A8050
:1018AC0070471A8822F0F0021205120D42F4004221
:1018BC0042F0C0021A800B7800EB8303B2E700BF42
:1018CC008FBFFFFFBF8FFFFFF0B44C788B69012CEB
:1018DC000A695AD0934298BF00260D7B88BF9E1A86
:1018EC008E6188BF13460A7815BBB0F8505000F2D1
:1018FC000C4412012C44002B00F0A8803E2B00F26B
:10190C00C9805D08DB0748BF0135AD02ADB2A552F9
:10191C000A7830F822107D4BF0BC0B4083F4405316
:10192C0043F4004343F0800320F82230002070473A
:10193C00002CEED1B0F8505000F2044412012C44AB
:10194C00002B40F0B380A55A714E25F4F8452D04B8
:10195C002D0CA552A55A45F40045A5524C78002CE7
:10196C0040F0AF80B0F850300A7800F20C4412010D
:10197C001C44A35A23F4F8431B041B0CA352A35A74
:10198C0033439BB2A3520A78C3E7934286BF9C1A97
:10199C00134600249AB20D7B013256088C619BB21F
:1019AC004A6900F580676DB30D7830F825402D013C
:1019BC006406B0F850C055D500F20C44644463532F
:1019CC004C8907EB44043EB102EB460332F8025B50
:1019DC00934224F8045BF9D10C784B7800EB840229
:1019EC00002B45D130F8243023F0F0031B051B0DE0
:1019FC0043F4004343F0C00320F824300A7800EB92
:101A0C00820216E0CC8807EB44043EB104EB860658
:101A1C0032F8025B24F8045BA642F9D1B0F85050BE
:101A2C000C7800F204422A442401A3520A7800EBF9
:101A3C0082021188374B0020F0BC0B4083F030033E
:101A4C0043F4004343F0800313807047A35A23F4FC
:101A5C00F8431B041B0CA352A35A43F40043A35298
:101A6C000A7856E700F20444644463530C89A8E7EF
:101A7C00012BDED130F8243023F0F0031B051B0DB5
:101A8C0043F4404343F0800320F824300A7800EB01
:101A9C008202CEE75D09DF061D4B08BF05F1FF355D
:101AAC0043EA85239BB2A3520A7832E73E2B16D821
:101ABC005D08DE0748BF0135AD02ADB2A5524C78CA
:101ACC00D4B1012C0A787FF424AFB0F8505000F256
:101ADC000C4412019BB22C44A3520A7819E75E09FC
:101AEC00DD060B4D08BF06F1FF3645EA8625ADB283
:101AFC00A5524C78002CE4D1B0F850400B7800F291
:101B0C000C4222441B01D5520A7802E78FBFFFFF1B
:101B1C000080FFFFBF8FFFFF4B780A7830F8221050
:101B2C005BB90C4B0B4083F4805343F4004343F0FC
:101B3C00800320F8223000207047074B0B4083F0C5
:101B4C00100343F4004343F0800320F822300020BC
:101B5C00704700BF8FBFFFFFBF8FFFFF0B7B002BBA
:101B6C0039D110B40B784C7800EB830214B330F8F5
:101B7C00232052060BD530F8232022F0F002120558
:101B8C00120D42F4004242F0C00220F82320CB7820
:101B9C00012B1DD00A78194B30F8221010BC0B40C9
:101BAC0083F0200343F4004343F0800320F82230F9
:101BBC000020704730F8234064040ED41188104B79
:101BCC000B4083F4405343F4004343F080031380F1
:101BDC00002010BC70470020704730F8232022F002
:101BEC00F0021205120D42F4404242F0800220F83D
:101BFC0023200A7800EB8202E0E700BFBF8FFFFFD3
:101C0C008FBFFFFF11B98023A0F84C300020704724
:101C1C000020704700207047B0F84400704700BFA8
:101C2C000020704700EB4202580802F580621AD07F
:101C3C00F0B4174606468D1C37F8044B013EA4B28F
:101C4C004FEA142C05F8024C05F801CC05F10205FD
:101C5C00F2D1F0BC01EB400102EB8002D80744BF8B
:101C6C0013880B707047DB0744BF13880B707047E9
:101C7C00292303800048704740000020292303805B
:101C8C00004870476C0000202923038000487047EF
:101C9C00B00000200023D0F8B82218461375704706
:101CAC0010B5D0F8B8422369012B07D1D0F8BC325B
:101CBC006178DB682078984700232361002010BDF1
:101CCC000A23038000487047A400002038B504465E
:101CDC00D0F8B852D0F8BC3269782878DB689847CD
:101CEC002A4620460423012100F020FF002038BDA5
:101CFC00002210B50B7882B013F06003D0F8B84214
:101D0C00ADF8062022D0202B04D000F085FC022058
:101D1C0002B010BD4B78023B092BF6D801A252F849
:101D2C0023F000BF131E0008071E0008171D000833
:101D3C00171D0008171D0008171D0008171D0008A7
:101D4C00F71D0008ED1D0008E51D00084B780B2B56
:101D5C00DBD801A252F823F0CF1D0008171D000894
:101D6C00171D0008171D0008171D0008171D000877
:101D7C00B51D0008171D0008171D0008171D0008C9
:101D8C00A51D0008951D000890F89C32032BBCD1B2
:101D9C008B780020E360BBE790F89C32032BB4D126
:101DAC0004F10C01012207E04B881B0A222B31D0D5
:101DBC00212B37D000210A4600F060FC002002B035
:101DCC0010BD90F89C32032B9FD102220DF106011D
:101DDC0000F054FC00209BE78B780020636097E7B1
:101DEC004B8800201B0AA36092E70123CA88236159
:101DFC00214600F059FC00208AE7211D012200F049
:101E0C003DFC002084E704F10801012200F036FCBF
:101E1C0000207DE7CA88D0F8BC32262A28BF2622AB
:101E2C001968C9E7CA880249092A28BF0922C3E7E9
:101E3C009800002038B504460025812100F020FED2
:101E4C00E5622046012100F01BFED4F8B832C4F83C
:101E5C006C514BB1D4F8BC329B689847D4F8B8029B
:101E6C0000F076FEC4F8B852002038BDF8B5044630
:101E7C00012502230322812100F0F2FD29460223D1
:101E8C000322E562204600F0EBFDC4F86C511820EB
:101E9C0000F05AFEC4F8B80270B100270646D4F818
:101EAC00BC3207755B6898473246294620460423A6
:101EBC0000F03CFE3846F8BD2846F8BD19B1C0F814
:101ECC00BC12002070470220704700BF88B108B5D3
:101EDC00D0F8B43213B10023C0F8B43209B1C0F851
:101EEC00B0120123027080F89C3200F071FD0020CA
:101EFC0008BD0220704700BF19B1C0F8B412002011
:101F0C0070470220704700BF08B500F09BFD002011
:101F1C0008BD00BF08B5D0F8B4321BB11B68984798
:101F2C0000B908BD022008BD08B5D0F8B4325B6812
:101F3C009847002008BD00BF38B5044600F52A7547
:101F4C00284600F055FB012094F8A812B4F8AE22F4
:101F5C0001F01F038342C4F89402C4F8982215D0F0
:101F6C000ED3022B06D001F08001204600F096FD26
:101F7C00002038BD2946204600F0A4FA002038BDC8
:101F8C002946204600F0F6F8002038BD29462046A8
:101F9C0000F06CFA002038BD70B5054641B9D0F898
:101FAC009432032B0FD0052B0C462ED0002070BD85
:101FBC00D0F8B4329B69C3B190F89C22032A14D197
:101FCC009847002070BD1646D0F86031D0F86421D7
:101FDC0093420CD99B1A9A42C0F860318CBF9AB2CA
:101FEC0092B2314600F070FBE0E7022070BDD0F8F1
:101FFC00B4321B6923B190F89C22032A00D1984774
:10200C00284600F069FB002070BDC5F8941200F062
:10201C0045FD204670BD00BF70B5044681B913461E
:10202C00D0F89422022A19D032F0040302D1802174
:10203C0000F034FD94F8A0320020012B0BD070BDC1
:10204C00D0F8B4325B6963B390F89C22032A28D190
:10205C009847002070BD84F8A00270BDD0E90862DA
:10206C00964220D8C369B3FBF2F502FB15350DB9C6
:10207C009A4226D9D4F8B432DB682BB194F89C225E
:10208C00032A01D1204698478021204600F006FD06
:10209C00204600F02DFB94F8A0320020012BCED16D
:1020AC00D9E7022070BDB21A0D460262194692B2EF
:1020BC0000F0F2FA2B462A462946204600F036FD5F
:1020CC00B8E7D0F898229342D4D22A4600F0E4FA2A
:1020DC00C4F89852EEE700BF70B5002240260446C3
:1020EC0001251146334600F0BBFC33468021C4F871
:1020FC005851C4F864612046002200F0B1FC002164
:10210C00D4F8B832A561666284F89C52C4F8941273
:10211C006160C4F8A41223B1D4F8B43220465B68D1
:10212C009847002070BD00BF01740020704700BFAD
:10213C000346042290F89C12002083F89D1283F829
:10214C009C22704790F89C32042B04BF90F89D326F
:10215C0080F89C320020704790F89C22032A01D012
:10216C000020704708B5D0F8B432DB6903B198474A
:10217C00002008BD30B50B7883B003F06003202B32
:10218C000D46044628D0402B26D053B18021204642
:10219C0000F084FC2046002100F080FC002003B0FD
:1021AC0030BD4B78092BF1D801A252F823F000BFB7
:1021BC003922000863220008992100087F220008B8
:1021CC00992100088B220008C722000899210008D9
:1021DC00FD220008F7210008D4F8B43229469B6888
:1021EC0020469847002003B030BD89789E4D0129C8
:1021FC002970CBD890F89C32022B00F00B81032B6A
:10220C0040F0FC80002900F025814168012909D0AB
:10221C00C9B2FFF789FE297820466160FFF77AFE84
:10222C000228B3D0204600F057FAB7E790F89C325A
:10223C00013B022BAAD8CB88022BA7D10021D0F8C6
:10224C00A422C16002B1C360022204F10C01204639
:10225C0000F014FAA2E790F89C32013B022B95D8BF
:10226C004B88012B9AD10023C0F8A43200F034FA29
:10227C0094E74B88012B91D1C0F8A432D2E78B881C
:10228C00002B83D1CB88002B80D14D887F2D3FF63E
:10229C007DAF90F89C32032B3FF478AFE9B280F815
:1022AC009E1200F027FC204600F016FA002D00F0DC
:1022BC00CD80022384F89C3270E700234A88ADF865
:1022CC000630130A013B062B3FF660AF01A151F813
:1022DC0023F000BF952300087D230008A5230008E8
:1022EC00992100089921000867230008232300087E
:1022FC00CA88012A7FF44AAF90F89C32002B3FF435
:10230C0045AF022B40F29480032B7FF43FAF011DAD
:10231C0000F0B4F942E7037C002B7FF437AFD0F820
:10232C00B4320DF106001B6B984707234370BDF8C0
:10233C000630EA886BB1002A3FF474AF934228BF91
:10234C00134601461A462046ADF8063000F096F9C1
:10235C00EA88002A7FF422AF64E7037C002B7FF429
:10236C0015AFD0F8B4320DF106005B6B9847DEE781
:10237C00027CD0F8B432002A61D19B6A0DF10600C0
:10238C00984702234370D2E7D0F8B0320DF1060122
:10239C001B68007C9847CAE7D2B2052A3FF6F6AE16
:1023AC00DFE802F026201A140E03D0F8B0329B6935
:1023BC00002B3FF4EBAE0DF10601207C9847B6E7FD
:1023CC00D0F8B0325B69002BF5D1DFE6D0F8B03233
:1023DC001B69002BEFD1D9E6D0F8B032DB68002BAB
:1023EC00E9D1D3E6D0F8B0329B68002BE3D1CDE62F
:1023FC00D0F8B0325B68002BDDD1C7E6802100F04D
:10240C004DFB0021204600F049FB29782046FFF7C0
:10241C008BFDC3E600293FF405AF01210323416086
:10242C0080F89C32FFF776FD02287FF4FBAEADE618
:10243C000023014641F8083F00F020F9AEE6DB6AC4
:10244C000DF1060098470223437070E7012384F8CE
:10245C009C32A3E60223416080F89C32FFF764FDB6
:10246C00204600F039F999E68401002038B50B7844
:10247C000D4603F06003202B04460CD0402B0AD0F1
:10248C004BB18021204600F009FB2046002100F0D2
:10249C0005FB002038BD94F89C32013B022BF0D890
:1024AC002B79012BEDD8D4F8B43229469B68204601
:1024BC009847EB88002BECD10028EAD1204600F09D
:1024CC000BF9E6E770B50B78044603F06003202B9C
:1024DC000CD0402B0AD083B18021204600F0DEFACC
:1024EC002046002100F0DAFA002070BDD4F8B43296
:1024FC0020469B689847002070BD4B788A88012B3A
:10250C00D5B23ED014D3032BE6D190F89C32022BDB
:10251C0046D0032BE0D14B8833B96A0604D0CB8864
:10252C0013B9294600F0BAFA204600F0D5F8DBE7DB
:10253C0090F89C32022B3DD0032BCDD105F00F032C
:10254C0003EB8303120600EB830342D4D3F8583118
:10255C00002BC1D005F07F0303EB830600EB86064E
:10256C0006F5AA7633B12946204600F0B3FA0028C6
:10257C003BD00123336031462046022200F07EF826
:10258C00B2E790F89C32022B0AD0032BA4D14B88D3
:10259C00002BA9D16E06C7D0294600F08DFAC3E7EF
:1025AC006B0699D0294600F079FA2046802100F07C
:1025BC0075FA99E768068FD1002311064CBF04F118
:1025CC00140104F5AA7120460B60022200F056F8A3
:1025DC008AE79B69002B3FF47FAF05F07F035E1CFD
:1025EC0006EB860600EB8606BCE73060C3E700BF4F
:1025FC000B7803704B784370CA788B7803EB02230B
:10260C0043804A790B7903EB02238380CA798B7957
:10261C0003EB0223C380704710B50446802100F001
:10262C003DFA2046BDE81040002100F037BA00BF4B
:10263C0000B3037830B4F3B10446002314F8015FFF
:10264C000133DBB2002DF9D15B000233032413807C
:10265C000B704C7004785CB1022300255A1CD2B26A
:10266C00CC548D5410F8014F0233DBB2002CF5D151
:10267C0030BC704770470223E8E700BF38B51346FB
:10268C0002250A46C0E90733C0F89452002100F035
:10269C003FFA002038BD00BF08B513460A4600219A
:1026AC0000F036FA002008BD38B5134603250A465B
:1026BC00C0F85C31C0F86031C0F89452002100F0D1
:1026CC0035FA002038BD00BF08B513460A46002174
:1026DC0000F02CFA002008BD08B504220023C0F835
:1026EC00942219461A4600F013FA002008BD00BFC8
:1026FC0008B505220023C0F8942219461A4600F0AA
:10270C0015FA002008BD00BF30B5012200244FF49B
:10271C00803302254FF4E01195B00AA80A920E926C
:10272C000B93129313910C94059401940D94CDE991
:10273C000F44CDE90644CDE90844CDE902440494A4
:10274C001195FEF7E5FA0F224FF48063294605A890
:10275C0005920893069507940994FEF7D1FC102373
:10276C0001A804940193FEF797FD15B030BD00BF8E
:10277C00002400B589B0FDF707FDFFF7C5FFCDE9D3
:10278C000444CDE90644184B224699694FF4005590
:10279C0041F01001996198694FF4005100F010005C
:1027AC0001900198986940F020009861986900F0B8
:1027BC00200002900298986940F0040098619B698F
:1027CC000A4803F004030393039BFDF769FE0122FF
:1027DC00022304A90548CDE9045207930694FDF79A
:1027EC0065FD00F069F8FEE70010024000100140A2
:1027FC00704700BF0E4B82B09A690E4942F001023D
:10280C009A619A6902F001020092009ADA6942F028
:10281C008052DA61DB6903F080530193019B4B68B2
:10282C0023F0E06343F080634B6002B0704700BF5D
:10283C000010024000000140704700BFFEE700BFDF
:10284C00FEE700BFFEE700BFFEE700BF704700BF1A
:10285C00704700BF704700BFFDF7A8BC0148FDF7EB
:10286C00B9BE00BF6C04002030B44FF41F054FF00C
:10287C0000640E4B0E4A19680E4841F001011960B4
:10288C0059680A405A601A6822F0847222F4803225
:10289C001A601A6822F480221A605A6822F4FE0226
:1028AC005A609D60846030BC704700BF00100240CD
:1028BC000000FFF800ED00E008B5002210491148B7
:1028CC00FFF704FBC0B910490E48FFF715FB80B9A0
:1028DC000E490C48FFF7F2FA40B90A48FFF714FB0F
:1028EC0000B908BDBDE80840FFF782BFFFF780FFC5
:1028FC00F3E7FFF77DFFEBE7FFF77AFFE3E700BFB6
:10290C0018010020A8010020080000200801002068
:10291C0002680E4B9A4200D07047002203F5DA335E
:10292C0010B5DC6982B044F40004DC61DB6911464B
:10293C0003F4000301931420019BFDF75BFC1420AE
:10294C0002B0BDE81040FDF78BBC00BF005C00403E
:10295C0000F50C71D0F86802FFF7EEBA00EB4113EA
:10296C00D3F83C21D0F86802FFF716BB00EB4113FB
:10297C00DA6BD0F86802FFF74FBB00BFD0F86802E3
:10298C00FFF7EABB836810B5022B044601D0FFF7B2
:10299C002FFFD4F868020121FFF7C6FBD4F86802B8
:1029AC00BDE81040FFF798BB10B50446D0F868029C
:1029BC00FFF7BEFBA36923B1024A136943F0060378
:1029CC00136110BD00ED00E0D0F86802FFF7BABB50
:1029DC0038B50446002208250221184B1848C4F8C3
:1029EC00C03218601846C3F86842C3E90151C3E904
:1029FC0006221A62FDF758FD08B1FFF7F9FE002216
:102A0C0018231146D4F8C002FEF766F958230022A9
:102A1C008021D4F8C002FEF75FF9982300228121AF
:102A2C00D4F8C002FEF758F9D4F8C002D82300221B
:102A3C000121FEF751F9002038BD00BF6C040020C5
:102A4C00005C004008B5D0F8C002FDF7ABFD0328D0
:102A5C0096BF024B0220185C08BD00BF202E000858
:102A6C0010B51C46D0F8C00213462246FEF734F8C7
:102A7C00032896BF014B0220185C10BD202E0008C5
:102A8C0008B5D0F8C002FEF759F8032896BF024BE0
:102A9C000220185C08BD00BF202E000808B5D0F835
:102AAC00C002FEF7A5F8032896BF024B0220185C63
:102ABC0008BD00BF202E000808B5D0F8C002FEF7F4
:102ACC00D3F8032896BF024B0220185C08BD00BF48
:102ADC00202E00080A06D0F8C03204D403EB4113B0
:102AEC0093F82A01704701F07F0103EB411393F82F
:102AFC002A00704708B5D0F8C002FDF7D9FF0328AB
:102B0C0096BF024B0220185C08BD00BF202E0008A7
:102B1C0008B5D0F8C002FEF755F8032896BF024B53
:102B2C000220185C08BD00BF202E000808B5D0F8A4
:102B3C00C002FEF72FF8032896BF024B0220185C48
:102B4C0008BD00BF202E00080048704788010020F7
:102B5C00704700BF704700BF0020704708B50C4B92
:102B6C00D3F8B8321B78022B09D0052B05D10022E3
:102B7C004FF400510748FDF793FC002008BD0122DB
:102B8C004FF400510348FDF78BFC002008BD00BF3B
:102B9C00A8010020001001400020704712230148BA
:102BAC000B80704734010020042301480B807047D0
:102BBC004801002010B5044C0A4604482146FFF792
:102BCC0037FD204610BD00BFD8060020502E00084F
:102BDC0010B5044C0A4604482146FFF729FD20464F
:102BEC0010BD00BFD80600205C2E000810B5044CA8
:102BFC000A4604482146FFF71BFD204610BD00BFC6
:102C0C00D8060020242E000810B5044C0A460448AF
:102C1C002146FFF70DFD204610BD00BFD806002051
:102C2C00382E00081A20444A444B12681B6808804E
:102C3C00D21801D14248704710B40024130FD8B2F7
:102C4C00092B40493E4B94BF30303730096898709F
:102C5C00C2F303600928DC70C4B294BF303437343B
:102C6C001C710024C2F3035009285C71C4B294BFD8
:102C7C00303437349C710024C2F303400928DC71D2
:102C8C00C4B294BF303437341C720024C2F3033006
:102C9C0009285C72C4B294BF303437349C7200245F
:102CAC00C2F303200928DC72C4B294BF3034373429
:102CBC001C730024C2F30310092802F00F025C738A
:102CCC00C4B298BF3034D0B288BF3734092A94BF0D
:102CDC0030303730187400200A0F092A5874D0B2DB
:102CEC0094BF3030373098740020C1F30362092A46
:102CFC00D874D0B294BF3030373018750020C1F37F
:102D0C000352092A5875C1F30341D0B298BF303031
:102D1C00CAB288BF3730092994BF303237329C731E
:102D2C009875002400201A760022D875DC735A7628
:102D3C00034810BC704700BFE8F7FF1FF0F7FF1FF8
:102D4C004C010020ECF7FF1F002103E00B4B5B58FC
:102D5C00435004310A480B4B42189A42F6D30A4AA4
:102D6C0002E0002342F8043B084B9A42F9D3FFF7E8
:102D7C007BFD00F00FF8FFF7FBFC7047782E000886
:102D8C00000000206801002068010020D808002005
:102D9C00FEE7000070B500250C4E0D4CA41BA410D2
:102DAC00A54209D100F01AF800250A4E0A4CA41BC2
:102DBC00A410A54205D170BD56F8253098470135B1
:102DCC00EEE756F8253098470135F2E7702E0008EB
:102DDC00702E0008702E0008742E0008F8B500BF85
:102DEC00F8BC08BC9E467047F8B500BFF8BC08BCE0
:042DFC009E46704738
:102E000002030405060708090A0B0C0D0E0F10102B
:102E1000000000000000000001020304060708098A
:102E2000000201024D7920437573746F6D20436F6A
:102E30006E66696700000000437573746F6D20480B
:102E4000494420496E746572666163650000000044
:102E500044694D6F6D6974650000000053557065DD
:102E60007220637573746F6D2064657669636500A5
:042E70003101000824
:042E74000D01000844
:102E78000100000010000000791E0008411E000833
:102E8800FD1C000800000000AD1C0008A11C000883
:102E9800D91C00080000000000000000000000002D
:102EA800891C00087D1C0008951C0008CD1C000822
:102EB80009022900010100C03209040000020300D0
:102EC80000000921110100012226000705810302E3
:102ED800000507050103020005000000090229009A
:102EE800010100C0320904000002030000000921AA
:102EF80011010001222600070581030200050705CC
:102F08000103020005000000092111010001222629
:102F1800000000000A060002000000400100000056
:102F280009022900010100C032090400000203005F
:102F38000000092111010001222600070581030272
:102F48000005070501030200050000000024F40045
:102F58000600FF0901A101850109011500250F756A
:102F6800089504B1828501090191828502090275DB
:102F78000895048182C00000E0000020652B00084D
:102F8800A52B0008692B0008A92B0008B52B000801
:102F9800C12B0008DD2B0008312C0008F92B000894
:102FA800152C00081201000200000040830450574D
:102FB8000002010203010000040309041A030000CF
:102FC80000000000000000000000000000000000F9
:082FD8000000000000000000F1
:0400000508002D556D
:00000001FF
