:020000040800F2
:1000000000500020355B0008295400082D540008DA
:10001000315400083554000839540008000000002D
:100020000000000000000000000000003D54000837
:1000300041540008000000004554000849540008DD
:100040007D5B00087D5B00087D5B00087D5B000830
:100050007D5B00087D5B00087D5B00087D5B000820
:100060007D5B00087D5B00087D5B00087D5B000810
:100070007D5B00087D5B00087D5B00087D5B000800
:100080007D5B00087D5B00087D5B00087D5B0008F0
:100090004D5400087D5B00087D5B00087D5B000817
:1000A0007D5B00087D5B00087D5B00087D5B0008D0
:1000B0007D5B00087D5B00087D5B00087D5B0008C0
:1000C0007D5B00087D5B00087D5B00087D5B0008B0
:1000D0007D5B00087D5B0008595400087D5B0008CB
:1000E000655400087D5B00087D5B0008000000008F
:1000F0000000000000000000000000000000000000
:0C01000000000000000000005FF808F1A3
:10010C0010B5054C237833B9044B13B10448AFF345
:10011C0000800123237010BD6C0100200000000042
:10012C00D85B000808B5034B1BB103490348AFF378
:10013C00008008BD0000000070010020D85B0008A2
:10014C0038B54FF47A730D490D4A09781268B3FB30
:10015C00F1F30546B2FBF3F000F0A2F808B90F2D4D
:10016C0001D9012038BD0446024629464FF0FF3024
:10017C0000F052F8034B20461D6038BD00000020F3
:10018C00DC00002004000020074A08B51368032097
:10019C0043F01003136000F02DF80020FFF7D0FFA0
:1001AC0005F060F8002008BD00200240034A044B13
:1001BC0011681B780B441360704700BFAC01002022
:1001CC0000000020014B1868704700BFAC010020F4
:1001DC0038B50446FFF7F6FF631C054602D0044B06
:1001EC001B781C44FFF7EEFF401BA042FAD338BD2E
:1001FC00000000204FF6FF01064A0002D36800F40D
:10020C00E0600B4043F0BF6343F400330343D3601F
:10021C00704700BF00ED00E0184B30B4DB68C3F34F
:10022C000223C3F10705042D03F1040428BF0425A0
:10023C00062C19D94FF0FF34033B9C4022EA0404EE
:10024C004FF0FF32AA4021EA020101FA03F22243E5
:10025C0012010028D2B20ADB00F1604000F56140C7
:10026C0080F8002330BC704700242346E8E7044B99
:10027C0000F00F0003441A7630BC704700ED00E02C
:10028C00FCEC00E0002807DB012300F01F01034A0F
:10029C008B40400942F82030704700BF00E100E07D
:1002AC000138B0F1807F0DD230B4F0250022072147
:1002BC00054B064C586084F82350104630BC9A60AD
:1002CC00196070470120704710E000E000ED00E07D
:1002DC0038B590F82130022B04D00422012482631B
:1002EC00204638BD03681D491A688B4222F00E0265
:1002FC001A601A6822F001021A6021D0184A93423F
:10030C001CD0143293421DD0143293421DD014329F
:10031C0093421DD0143293420CBF4FF480134FF014
:10032C008073012100240F4D426B6B6080F821100B
:10033C0080F820407AB19047204638BD1023F0E772
:10034C000123EEE74FF48073EBE74FF48053E8E7BB
:10035C004FF48033E5E71446C2E700BF08000240C3
:10036C001C000240000002400A68002A00F0DB80FA
:10037C002DE9F04F4FF0000A85B05546DFF8D0C19B
:10038C00DFF8D0E16D4FDFF8D08103E0013532FAB0
:10039C0005F378D00123AB4002EA0304A342F5D164
:1003AC004A68122A00F09E8000F28780022A00F030
:1003BC009D807CD9032A69D0112A02D1CB6803F124
:1003CC00040AFF2C66D881460368AA000F2606FA99
:1003DC0002FB23EA0B030AFA02F21343C9F80030BA
:1003EC004A68D30061D5DCF8189025F0030349F076
:1003FC000109CCF81890DCF8189003F1804309F04F
:10040C000109CDF80C9003F5803305F00309DDF8F4
:10041C000CB04FEA8909D3F808B006FA09F62BEAB2
:10042C0006067045019611D0404563D0444EB0424B
:10043C007AD0444EB0420CBF4FF0030B4FF0040B7C
:10044C00019E0BFA09F946EA090601969E603B6883
:10045C00D6034CBF2343A3433B607B6896034CBF3E
:10046C002343A3437B60BB68D6024CBF2343A34307
:10047C00BB609202FB6815D51C43FC600A68013511
:10048C0032FA05F386D105B0BDE8F08FFF2C4FF0A2
:10049C00000A98D905F18042083A4368920000F1AD
:1004AC00040993E723EA0404FC600A686EE7A2B12E
:1004BC00012A86D1D1F80CA083E7234EB2420CD08E
:1004CC0020D9224EB24208D006F58036B24204D072
:1004DC00A6F58016B2427FF474AF8A68E2B94FF089
:1004EC00040A6EE7CB6803F10C0A6AE7CB6803F1E8
:1004FC00080A66E74FF0010B0BFA09F946EA090600
:10050C000196A3E7A6F58016B242E6D006F5803632
:10051C00B2427FF456AFE0E7012A0CBF036143619E
:10052C004FF0080A4DE770474FF0020B019E0BFA93
:10053C0009F946EA0906019688E700BF0004014064
:10054C000010014000140140000021100000311087
:10055C000010024000080140000C01408368194261
:10056C0014BF01200020704702B9090401617047D3
:10057C00044A5169014200D1704708B5506105F039
:10058C0019F908BD00040140F0B587B0002874D0FB
:10059C0090F82932044603F0FF02002B68D00323A5
:1005AC00264684F82932206801F0F6FD56F810CB67
:1005BC006D4637460FCF0FC53B68271D2B60604635
:1005CC0097E80E0001F0D6FD054630B10223012557
:1005DC0084F82932284607B0F0BD0146206801F0A6
:1005EC00E5FDD4F804C0BCF1000F29D028464FF02B
:1005FC00010E2A4604EB4013451C83F82800D886CC
:10060C00E8B2604583F829E083F82B20C3E90E2279
:10061C001A64EFD30023194604EB43125D1C03F15B
:10062C000A0082F82831EBB24001634582F82911A7
:10063C0082F82B11C2F83811C2F83C112150EBD3BF
:10064C000FCE6D46D4F800C00FC5336860462B60E2
:10065C0097E80E0001F0ACFD05460028B6D1012349
:10066C0084F82400206884F8293202F0BFF9B1E73D
:10067C0080F8282204F058FF91E70125284607B09E
:10068C00F0BD00BF90F82832012B10D0012110B51D
:10069C00044680F8281205F069F8206802F0A4F9E5
:1006AC00206801F06FFD002084F8280210BD0220A4
:1006BC00704700BF2DE9F84F0446006802F098F926
:1006CC000104226843D4104602F092F9460500F169
:1006DC007181206802F08CF910F4804F206807D0EB
:1006EC00B0F8443023F480431B041B0CA0F84430B6
:1006FC0002F07EF910F4005F206807D0B0F84430A7
:10070C0023F400531B041B0CA0F8443002F070F9C6
:10071C00C50400F13181206802F06AF9000500F18E
:10072C000481206802F064F9820500F1F1802068F0
:10073C0002F05EF9C30508D52268B2F8443023F400
:10074C0080731B041B0CA2F84430BDE8F88FDFF853
:10075C0014A4DFF814B4B2F844301F04B3D5B2F8C3
:10076C00441089B211F00F0557D111F01001138804
:10077C0000F03E819BB213F4006540F07A811B04BB
:10078C00E9D540F68F7311880B4043F0800313803A
:10079C00B2F8503094F8281103EBC10302EB430379
:1007AC00B3F80C34C3F30903C4F844319BB1D4F847
:1007BC003C1181B11046B4F82E2102F01FF9D4F887
:1007CC003C31D4F8442129461344C4F83C3120462A
:1007DC0004F0D0FE2268B2F85030D4F838119BB235
:1007EC0002F20C40002940F09881C15A21F4F841E2
:1007FC000904090CC152C15A6FEA41416FEA5141D7
:10080C0089B2C1521188D64B0B4083F4405343F448
:10081C00004343F0800313809DE732F82560B6B2A5
:10082C00310426D4330696D532F8251004EB451343
:10083C000AEA010141F4004122F82510B2F85010E7
:10084C0093F82850D86B01EBC50102EB4101B1F8CC
:10085C0004141D6CC1F3090146185964DE63002DA4
:10086C0040F0EF8093F82810204604F08BFE2268AD
:10087C0071E740F68F7332F825106F010B4043F08F
:10088C00800322F8253004EB070999F8343102F57E
:10089C008060002B00F00F8199F8283132F823C0CA
:1008AC0002EB83011CF4804FB2F850C04FEAC30333
:1008BC00634400F01B81023330F81380C8F309083D
:1008CC00B8F1000F40F05D810B880BEA030343F491
:1008DC00004343F0C0030B802744D7F84421D7F8DA
:1008EC003C31D7F8400142444344C7F84421C7F88F
:1008FC003C31002800F0F780D7F8382197F8281100
:10090C00904580F01481204604F034FE226889E77B
:10091C0022682046B2F8443023F400731B041B0CED
:10092C00A2F8443004F036FE01E72368B3F8402007
:10093C00184642F00802A3F84020B3F8442022F4F1
:10094C0000621204120CA3F84420B3F8402042F0C9
:10095C000402A3F8402002F04BF8C10408D5226829
:10096C00B2F8443023F480531B041B0CA2F844301F
:10097C00204604F025FED4E622682046B2F840302A
:10098C0023F004031B041B0CA2F84030B2F84030D7
:10099C0023F008031B041B0CA2F8403004F020FECB
:1009AC002068B0F8443023F480531B041B0CA0F8CF
:1009BC004430B1E622682046B2F8443023F4806318
:1009CC001B041B0CA2F8443004F0E8FD94F8283208
:1009DC00012B3FF47EAE0025012384F8245084F8CB
:1009EC0028322946206801F0F9FF84F8285270E675
:1009FC000AEA030343F400431380B2F8503094F82E
:100A0C002800E56B03EBC00302EB4302B2F804349D
:100A1C002046C3F309031D446364E56304F0B2FD8F
:100A2C0094F824301BB3236C2268002B7FF493AE14
:100A3C0094F8241041F08001A2F84C1084F8243072
:100A4C0089E64FF0000C012793F82830104603F08C
:100A5C00070251016318283183F82820C3E90F6578
:100A6C002144C3F844C083F8297001F019FE2268B0
:100A7C0071E6B2F8503094F82811104603EBC1031C
:100A8C0002EB4302B2F80C3404F50C71C3F3090306
:100A9C00B4F82E21C4F8443101F0B0FF40F68F7346
:100AAC002268204611880B4043F08003138004F029
:100ABC005BFD22684FE6B2F8503099F828110633E6
:100ACC0003EBC10330F81380C8F30908B8F1000F29
:100ADC003FF402AF10464346B9F82E21D9F83C1129
:100AEC0001F08CFFF8E697F828110CE7063330F884
:100AFC001380C8F30908B8F1000F3FF4E5AE434684
:100B0C001046B9F83221D9F83C1101F077FF99F869
:100B1C002831216801EB8301D6E63E2926D84D0801
:100B2C00CF0748BF0135AD02ADB2C5526AE64FF0F2
:100B3C00000C01F007014F01E21907F5947782F8D8
:100B4C002811C2F84001C2F83C31C2F844C182F805
:100B5C0029C1E119206801F0A3FD226862E600BFFB
:100B6C008FBFFFFF0F8FFFFF8F8FFFFF4D09CE064B
:100B7C00064908BF05F1FF3541EA8525ADB2C552DE
:100B8C0040E610464346B9F83021BCE70080FFFF31
:100B9C0090F82822012A0DD010B50446012284F8C1
:100BAC00241080F82822006801F018FF002084F837
:100BBC00280210BD02207047F8B501F007050906A0
:100BCC004FEA45141FD40027061904F5947186F8D2
:100BDC00297101444C780D700A61CB7004B1CD8140
:100BEC00022B04BF00230B7190F82832012B12D07A
:100BFC000123044680F82832006801F0F3FA002043
:100C0C0084F82802F8BD0127061904F1280186F89A
:100C1C0029700144DEE70220F8BD00BF01F0070295
:100C2C00090610B54FEA421316D40024C11803F577
:100C3C00947381F82941C1180A7090F82832012B5D
:100C4C0015D00123044680F82832006801F052FCCC
:100C5C00002084F8280210BD0124C118283381F823
:100C6C002940C1180A7090F82832012BE9D10220D2
:100C7C0010BD00BF70B5002601F007014D014419ED
:100C8C0005F5947584F82811C4F83C214119C4F871
:100C9C0040310068C4F8446184F8296101F000FD1A
:100CAC00304670BDF8B50026012701F007014D0153
:100CBC004419283584F82810C4E90F234119006819
:100CCC0084F82970666401F0EBFC3046F8BD00BF77
:100CDC0038B5436801F007059D421BD80B061BD4A1
:100CEC0000244901431883F82941012301F594722A
:100CFC0081180D708B7090F828229A421BD00446F4
:100D0C0080F82832006801F0F3FDB5B1002084F8BA
:100D1C00280238BD012038BD01226B0103F12801E6
:100D2C00034483F82920012301440D708B7090F843
:100D3C0028229A42E3D1022038BD04F50C712068B8
:100D4C0001F05AFEE2E700BF38B5436801F00F022C
:100D5C009A421ED801F0070209064FEA42131AD430
:100D6C000025C41884F82951002503F59471014419
:100D7C000A708D7090F82832012B1AD0012304468A
:100D8C0080F82832006801F0D5FD84F828522846F6
:100D9C0038BD012038BD0125C41884F82950002520
:100DAC0003F1280101440A708D7090F82832012B50
:100DBC00E4D1022038BD00BF11F0800F0DD001F03E
:100DCC00070100EB4110283099B26AB101221B0CCB
:100DDC004381018102730020704700EB411000F544
:100DEC00947099B2002AF1D1C1800273002070472F
:100DFC00002800F055812DE9F041036882B0DD0731
:100E0C00044635D5A8494A6802F00C02042A00F0C1
:100E1C0005814A6802F00C02082A00F0FB80636826
:100E2C00B3F5803F10D0002B00F02081B3F5A02F3C
:100E3C0000F078819C4B1A6822F480321A601A6890
:100E4C0022F480221A6004E0974A136843F480333A
:100E5C001360FFF7B7F9944D064605E0FFF7B2F9BA
:100E6C00801B642800F2F5802B689A03F6D5236862
:100E7C009F074DD41A0722D5A369002B00F0BA8026
:100E8C0001228A4B884D1A60FFF79CF9064605E053
:100E9C00FFF798F9801B022800F2DB806B6A9B0736
:100EAC00F6D5834B834A1B68A2FB03235B0A019391
:100EBC0000BF019B5A1E0192002BF9D123685D07DC
:100ECC0069D5794BDA69D00000F1EC800125DA693B
:100EDC0042F08052DA61DB6903F080530093009B8F
:100EEC00754B1A68D10540F1A380E368012B37D00C
:100EFC00002B00F0E780052B6B4B1A6A00F01F816A
:100F0C0022F001021A621A6A22F004021A622CE020
:100F1C00654A516811F00C0F61D0516801F00C0159
:100F2C00082959D02369002B00F0EB800122634B78
:100F3C005D4D1A60FFF746F9064605E0FFF742F9EA
:100F4C00801B022800F285802B689807F6D52B6849
:100F5C00626923F0F80343EAC2032B60236889E734
:100F6C00514A136A43F001031362FFF72BF94E4EFB
:100F7C00804641F2883705E0FFF724F9A0EB080022
:100F8C00B84266D8336A9B07F6D525B1464AD36971
:100F9C0023F08053D361E069D0B1434D6A6802F00D
:100FAC000C02082A00F0D38002284FF00001444ABA
:100FBC0000F0DE801160FFF705F92C46054604E0D1
:100FCC00FFF700F9401B022843D823689B01F7D494
:100FDC00002002B0BDE8F0815268D603A2D4324A98
:100FEC001268950739D52269012A36D0012002B042
:100FFC00BDE8F0812D4A2C4D1360FFF7E3F806464F
:10100C0004E0FFF7DFF8801B022822D86B6A9F07E9
:10101C00F7D453E74A68D0037FF501AF224A126830
:10102C0091037FF525AF6268002A7FF421AFDDE7DD
:10103C001A681E4642F480721A60FFF7C3F807461E
:10104C003368DA053FF551AFFFF7BCF8C01B6428D5
:10105C00F6D9032002B0BDE8F081134960690A6833
:10106C0022F0F80242EAC0020A6003E703F180436F
:10107C0003F504331A681D4622F480321A601A688C
:10108C0022F480221A60FFF79DF8064604E0FFF771
:10109C0099F8801B6428DCD82B689B03F7D4E6E610
:1010AC000120704700251BE70010024080044242DB
:1010BC00DC000020D34D6210007000400000424262
:1010CC006000424203F1804303F504331A6A1E4662
:1010DC0022F001021A621A6A41F2883822F00402E4
:1010EC001A62FFF76FF8074604E0FFF76BF8C01BB6
:1010FC004045AED8336A9807F7D4002D3FF44BAF78
:10110C0044E7344A344D1360FFF75CF8064604E0BC
:10111C00FFF758F8801B02289BD82B689907F7D447
:10112C002368A7E603F18043A3F53C331A6842F425
:10113C0080221A601A6842F480321A6089E642F002
:10114C0004021A621A6A42F001021A620DE70128BF
:10115C003FF44DAF6B68226A03F4803191427FF407
:10116C0045AF606A03F47013181A18BF01203EE7EC
:10117C001160FFF727F8064605E0FFF723F8801B00
:10118C0002283FF666AF2B689901F6D4226AB2F5B5
:10119C00803F05D16B68A16823F400330B436B606F
:1011AC0001250D4B606A5968024321F474110B48F8
:1011BC000A435A6005601C46FFF704F8054605E033
:1011CC00FFF700F8401B02283FF643AF23689A0153
:1011DC00F6D5FDE60000424200100240600042429B
:1011EC0078B15D4A136803F007038B420BD2136886
:1011FC0023F007030B431360136803F007038B42C0
:10120C0001D0012070472DE9F041036886B09D079D
:10121C0014D55C0704D5514C626842F4E0626260FC
:10122C001A0704D54D4C626842F4605262604B4C14
:10123C008568626822F0F0022A436260DB0704468C
:10124C000D4620D54268454B012A1B686FD0022AF7
:10125C007ED0980727D5414E41F28838736823F029
:10126C00030313437360FEF7ADFF074604E0FEF77C
:10127C00A9FFC01B404569D87368626803F00C0372
:10128C00B3EB820FF3D1344A136803F00703AB427C
:10129C000DD9136823F007032B431360136803F075
:1012AC000703AB4203D0012006B0BDE8F0812368F0
:1012BC00590706D52949E0684A6822F4E0620243DE
:1012CC004A601A0707D5254A2169536823F46053ED
:1012DC0043EAC103536040F20122214B06ACADF846
:1012EC0004200FCB04E90F001C494A6802F00C03E0
:1012FC00082B1AD1C2F38343234413F8100CD303E5
:10130C0018D4184B03FB00F3144A174852681749BA
:10131C00C2F30312805C164AC34008681360FEF7E0
:10132C000FFF002006B0BDE8F081124BECE79F03E5
:10133C0091D4B8E74A680F4BC2F3404203FB00F369
:10134C00224412F8142CB3FBF2F3DDE70320ABE7D5
:10135C009E0180D4A7E700BF00200240001002408D
:10136C00F05B000800093D00005C00080400002050
:10137C00DC00002000127A00044B05495B68054A2A
:10138C00C3F30223CB5C1068D840704700100240B6
:10139C00105C0008DC000020044B05495B68054A22
:1013AC00C3F3C223CB5C1068D840704700100240D6
:1013BC00105C0008DC0000202DE9F04104460068B8
:1013CC0082B0C5072AD53A4BDA69D1003DD5394BE5
:1013DC0000251A68D20546D5354960680A6A12F4A8
:1013EC0040720FD000F4407393420BD001270026BB
:1013FC000B6A314A23F44070176016600862D807F4
:10140C0045D460682A4A136A23F440730343136279
:10141C001DB1D36923F08053D3612068830706D5AF
:10142C00234AA168536823F440430B43536010F0E4
:10143C00100007D000201E4AE168536823F4800393
:10144C000B43536002B0BDE8F081DA69012542F02C
:10145C008052DA61DB6903F080530193019B154BD9
:10146C001A68D205B8D41A681E4642F480721A6003
:10147C00FEF7A8FE07463368DB05ADD4FEF7A2FEE7
:10148C00C01B6428F7D9032002B0BDE8F0810E46DA
:10149C00FEF798FE41F288378046336A9A07B0D43B
:1014AC00FEF790FEA0EB0800B842F6D9EBE700BFC0
:1014BC0000100240007000404004424200283BD023
:1014CC00F8B5002390F851100446836201F0FF0236
:1014DC0061B31A46D4E90136022700210125E068E0
:1014EC0033432669034360693343E669D4F818C073
:1014FC000343206A3343266884F8517003430CF489
:10150C000070034330684FEA1C4C134320F040003A
:10151C000CF00402306033607260F369084623F407
:10152C000063F361616584F85150F8BD80F8502078
:10153C0003F0BAFEA26ACDE7012070472DE9F04115
:10154C0090F8504082B0012C5ED01F46012380F8E9
:10155C005030044616460D46FEF734FE804694F88D
:10156C005100C0B2012809D002200122002384F8C6
:10157C00512084F8503002B0BDE8F081002DF4D039
:10158C00002EF2D000230321A26884F85110B2F58A
:10159C00004F63652563E686A686A363A387C4E92B
:1015AC001033E387206803D1036843F4804303605E
:1015BC0003685B062CD5E3686268B3F5006F45D011
:1015CC00002A6ED12B780373E38E226B013B9BB206
:1015DC0001322068E38622637E1C0BD028E0236B4B
:1015EC001B780373E38E226B013B9BB20132E386C3
:1015FC0022632068E38E9BB2002B40D083689D074A
:10160C00EDD4FEF7DFFDF4E7022002B0BDE8F08177
:10161C00036843F040030360CDE7236B1B7803732F
:10162C00E38E226B013B9BB20132E386226320687E
:10163C00E38E9BB21BB383689B07EED4FEF7C2FD0F
:10164C00A0EB0800B842F2D303208EE7002A76D034
:10165C00012E74D0791C59D1E38E9BB27BB1836877
:10166C009A0768D5226B32F8023BC360E38E226383
:10167C00013B9BB2E386E38E9BB2002BEFD1791C2E
:10168C0012D183681A06FCD4A3682BB90193C368E2
:10169C00019383680193019B606D003018BF01209A
:1016AC0063E7012E98D18DE783681B06ECD5FEF716
:1016BC0089FDA0EB080087422068E0D86168426889
:1016CC00B1F5827F22F0E002A368426040D0A26AAA
:1016DC00B2F5005F07D1026822F400520260026882
:1016EC0042F40052026001222021002584F851208E
:1016FC00626D84F850500A4362656165C5E7FEF778
:10170C0061FDA0EB0800B8429ED22068E38E9BB22C
:10171C00002BB4D083689D07F1D5226B32F8023BC5
:10172C00C360E38E2263013B9BB2E386E38E9BB2E4
:10173C00002BEFD1A3E7FEF745FD20688CE735F8C9
:10174C00023BC360E38E2563013B9BB2E38681E7DA
:10175C00B3F5004F02D0B3F5806FB8D1026822F018
:10176C0040020260B3E700BF002836D090F83D304D
:10177C0070B503F0FF0204460BB302232268204E1F
:10178C0084F83D30B2421368A569E068616826D0E0
:10179C00B2F1804F18D0A6F59436B24214D006F5AB
:1017AC008066B24210D023F080032B431360D062CA
:1017BC00916201230020536184F83D3070BD80F8A4
:1017CC003C2003F0ABFDD8E7A66823F0700333434D
:1017DC00266923F440733343E5E701207047A6687C
:1017EC0023F070033343266923F44073334323F00F
:1017FC0080032B431360D062916263691363D8E753
:10180C00002C0140704700BF002836D090F83D30C6
:10181C0070B503F0FF0204460BB302232268204E7E
:10182C0084F83D30B2421368A569E068616826D03F
:10183C00B2F1804F18D0A6F59436B24214D006F50A
:10184C008066B24210D023F080032B431360D06229
:10185C00916201230020536184F83D3070BD80F803
:10186C003C20FFF7CFFFD8E7A66823F07003334383
:10187C00266923F440733343E5E701207047A668DB
:10188C0023F070033343266923F44073334323F06E
:10189C0080032B431360D062916263691363D8E7B2
:1018AC00002C01400122036801F01F01186A02FAA2
:1018BC0001F120EA01001862186A0A4A01439342B6
:1018CC0019620AD09A6802F00702062A03D01A6835
:1018DC0042F001021A60002070475A6C42F4004238
:1018EC005A64EFE7002C014010B404460120236831
:1018FC0001F01F011A6A00FA01F122EA01011962D2
:10190C00134A196A9342196213D041F21112196ADF
:10191C00114208D140F24442196A114203D11A68AB
:10192C0022F001021A600123002084F83D3010BC23
:10193C00704741F21112196A1142E6D140F2444249
:10194C00196A1142E1D15A6C22F400425A64DCE764
:10195C00002C014090F83C30012B00F0C580F0B415
:10196C000223012480F83D3080F83C400C2A36D804
:10197C00DFE802F03E35353567353535913535358F
:10198C00070003688F681D6A0E6825F480551D6278
:10199C001A6A6C4DD3F804C0DC6922F4005224F4AA
:1019AC00E644AB4242EA073244EA062404D14D69CC
:1019BC002CF4804C4CEA851C4D68C3F804C0DC61E7
:1019CC001D641A62DC690D6944F40064DC61D96938
:1019DC0021F48061D961DA6942EA0522DA610023D7
:1019EC00F0BC012280F83C3080F83D20184670474E
:1019FC0003688F681D6A0E6825F001051D621A6A5E
:101A0C00504DD3F804C09C6922F0020224F07304F8
:101A1C00AB4242EA070244EA060476D04D68C3F8AA
:101A2C0004C09C615D631A629C690D6944F00804F2
:101A3C009C61996921F0040199619A692A439A6120
:101A4C00CDE703688F681D6A0E6825F010051D62CE
:101A5C001A6A3C4DD3F804C09C6922F0200224F48D
:101A6C00E644AB4242EA071244EA06245BD04D68D6
:101A7C00C3F804C09C619D631A629C690D6944F4AF
:101A8C0000649C61996921F4806199619A6942EAC8
:101A9C0005229A61A3E703688F681D6A0E6825F416
:101AAC0080751D621A6A274DD3F804C0DC6922F4D4
:101ABC00007224F07304AB4242EA072244EA0604A3
:101ACC0014D04D68C3F804C0DC61DD631A62DC69B4
:101ADC000D6944F00804DC61D96921F00401D96175
:101AEC00DA692A43DA617AE702207047CE6822F479
:101AFC000062D1E905752CF4405C42EA06223D43B4
:101B0C0022F480624CEA051CDBE7CF6822F0080265
:101B1C00D1E905562CF4407C3A43354322F00402BB
:101B2C0045EA0C0C7AE7CE6822F08002D1E9057503
:101B3C002CF4406C42EA06123D4322F040024CEA7F
:101B4C00850C94E7002C014090F83C30012B5AD0C6
:101B5C000222F0B40125036880F83D209A680C68D5
:101B6C0022F47F4222F07702402C80F83C509A609D
:101B7C0074D04AD9602C2DD056D9702C1AD0B4F50B
:101B8C00005F0ED1D1E90152CC6899682A4342EA30
:101B9C00042221F47F410A439A609A6842F48042FD
:101BAC009A600023F0BC012280F83C3080F83D2084
:101BBC0018467047D1E90152CC6899682A4342EA29
:101BCC00042221F47F410A439A609A6842F077021A
:101BDC009A60E6E71C6A4D6824F01004CE681C621B
:101BEC0099691A6A21F4704122F0A00242EA0512A6
:101BFC0041EA063199611A629A6822F0700242F049
:101C0C0067029A60CDE702207047102C04D03DD9B2
:101C1C00202C01D0302CC4D19A6844F0070422F057
:101C2C00700214439C60BCE7502CBAD11D6A1E6A2A
:101C3C004C6826F00106CF681E629A6925F00A01ED
:101C4C0022F0F00242EA071221439A6119629A6863
:101C5C0022F0700242F057029A60A2E71D6A1E6AD7
:101C6C004C6826F00106CF681E629A6925F00A01BD
:101C7C0022F0F00242EA071221439A6119629A6833
:101C8C0022F0700242F047029A608AE7002CC3D01F
:101C9C0087E700BF90F83C20012A1AD00222F0B44A
:101CAC00034600250126046880F83D206068D1E9D0
:101CBC00002720F070011143A268284622F0800210
:101CCC003A436160A26083F83D6083F83C50F0BCFD
:101CDC0070470220704700BF90F83C30012B22D097
:101CEC000246D1E9020310B4002423F440730343E9
:101CFC00486823F480630343086823F400630343B8
:101D0C00086923F480530343486923F400530343C5
:101D1C00C86923F48043116803434B64204682F85E
:101D2C003C4010BC70470220704700BF00285ED0BA
:101D3C0038B590F83930044603F0FF02002B51D02F
:101D4C002422236884F83920DA68E06822F40052EF
:101D5C00DA601969A26821F4405101431961D9680C
:101D6C00D4E9045021F4B0512A4321F00C01024370
:101D7C000A43DA605A69A0691F4922F4407202438F
:101D8C008B425A6135D0FFF7F7FA626800EB80009E
:101D9C00920000EB8000B0FBF2F06422174D236838
:101DAC00A5FB00C1490902FB110212013232A5FB4D
:101DBC000202090101EB5212002520219A601A69D6
:101DCC00284622F490421A615A6922F02A025A617A
:101DDC00DA6842F40052DA60E56384F8391084F86A
:101DEC003A1038BD80F8382003F0D8FAA8E7012063
:101DFC007047FFF7D1FAC8E7003801401F85EB5157
:101E0C00F0B5044690F8390083B020282DD10E4649
:101E1C0000292DD001925AB31F4694F83830012B6B
:101E2C0023D0002001212123E06384F8381084F8AA
:101E3C003930FEF7C7F90546019AA284E28422687C
:101E4C00E38C9BB2002B39D0E08CA168013880B2B6
:101E5C00B1F5805FE08419D0781C3BD11068010685
:101E6C00FCD5337801365360EAE7022003B0F0BDAD
:101E7C00012003B0F0BD13681B060CD4002F33D027
:101E8C00FEF7A0F9401B874222682DD3781CF2D1B3
:101E9C0010680106FCD533882169C3F3080353602D
:101EAC00002934D10236CBE713685B060BD4DFB1C3
:101EBC00FEF788F9401B8742226815D3781CF3D1B2
:101ECC0013685906FCD52023002084F8393084F897
:101EDC003800CBE713681B06C3D42FB1FEF772F999
:101EEC00401B87422268B7D2202100250320D368EB
:101EFC0023F4D073D360536923F00103536184F846
:101F0C00391084F8385084F83A1003B0F0BD01361B
:101F1C0096E700BF90F83A30202B20D109B302B3DA
:101F2C0090F83830012B1AD030B4002322250468E5
:101F3C00C285C36380F83A50E568828545F48075A4
:101F4C0080F838308162E5606269184642F001021F
:101F5C006261E36843F02003E36030BC7047022009
:101F6C0070470120704700BF704700BF10B58468F0
:101F7C000169B4F5805F836A026820D05C1C5268EA
:101F8C008462C9B91A70C38D013B9BB2C3858BB9EE
:101F9C0020240268D16821F02001D160D16821F49D
:101FAC008071D160516921F00101516180F83A4092
:101FBC0001F0E6FA002010BD02F07F02E2E7526861
:101FCC0029B9C2F3080223F8022B8362DBE7D2B2F1
:101FDC0023F8012B8362D6E7704700BF036870B506
:101FEC001A6804461607DD6859694AD011F00101D8
:101FFC0050D0D60705D5E80503D5E06B40F00100BD
:10200C00E063560702F0020076D561B1E16B02F095
:10201C00080641F00201E163002872D11EB1E16BA8
:10202C0041F00801E163E16B002932D0960601D53D
:10203C00A80674D45D69E16B090702D415F040055C
:10204C007AD02021DA6822F49072DA605A6922F090
:10205C0001025A6184F83A105A6952065BD55A69E2
:10206C00616B22F040025A61002954D03B4B084668
:10207C004B63FEF72DF960B1606BBDE87040436BAC
:10208C001847960609D5A90607D590F83A30222BA1
:10209C004ED070BD15F4907FABD116060ED4510600
:1020AC00F7D56A06F5D52021DA68204622F04002E1
:1020BC00DA6084F83910FFF757FF70BD2806EED5AB
:1020CC0094F83920212AE4D1A168226AB1F5805F05
:1020DC0037D0511C216212785A60E28C013A92B2CC
:1020EC00E284002AD5D1DA6822F08002DA60DA685C
:1020FC0042F04002DA6070BD40B1002993D002F08A
:10210C000806E16B41F00401E16387E710078AD50B
:10211C00002984D187E72046FFF75EFF70BD94F855
:10212C003A20222A86D12046FFF720FF236881E738
:10213C00BDE87040FFF71ABF2046FFF74DFFE5637F
:10214C0070BD11882069C1F30801596010B90232C1
:10215C002262C2E701322262BFE700BF6D21000894
:10216C00002208B5436ADA851846DA84FFF734FF93
:10217C0008BD00BF84B001A880E80E0004B00020A8
:10218C00704700BF0246B0F84030002043F43F4394
:10219C00A2F84030704700BF44F2FF030246B0F88B
:1021AC00401000200B40A2F84030704700207047D0
:1021BC0084B070B4044601250020A4F84050A4F863
:1021CC004000A4F84400A4F85000B4F8406004ADFA
:1021DC0046F43F46A4F8406085E80E0070BC04B09D
:1021EC00704700BF70B40D78034630F82540BC4AE8
:1021FC00C8782240032800F24281DFE800F04E4606
:10220C00024A002048F28004224323F825200D784E
:10221C00B44E33F825202C433240224323F825209A
:10222C000A7B002A3DD1CC880A784D78640864007A
:10223C0003EB0212002D00F0E880B3F850502A4452
:10224C00A2F800440A7833F8225003EB82046D069E
:10225C000BD533F82240264046F4004646F0C00623
:10226C0023F822600C7803EB8404CB78012B00F06C
:10227C00208122889C4B134083F0200343F40043BD
:10228C0043F08003238070BC704742F480620020CE
:10229C00B8E742F4C0620020B4E742F400720020B8
:1022AC00B0E70C7833F82420324042F4014242F07B
:1022BC00800223F824200A780C89B3F8505003EBE1
:1022CC000212640802F580626400ADB254530A78BD
:1022DC004C89B3F8505003EB0212640802F581628A
:1022EC006400ADB254534A78002A42D10A7833F8CC
:1022FC00225003EB82046D040BD533F822402640A8
:10230C0046F4404646F0800623F822600C7803EB36
:10231C008404228856060CD5228822F0F00212057D
:10232C00120D42F4004242F0C00222800C7803EB02
:10233C00840448F2800622886C4D22F0F0021205CB
:10234C00120D42F4004242F0C00222800C7833F8A5
:10235C0024202A4082F44052324323F82420097866
:10236C00614A33F821402240324323F8212070BCCB
:10237C0070470A7833F8225003EB82046D040BD5B6
:10238C0033F82240264046F4404646F0800623F8B7
:10239C0022600C7803EB8404228852060CD5228828
:1023AC0022F0F0021205120D42F4004242F0C0027B
:1023BC0022800C7803EB8404228822F0F0021205B0
:1023CC00120D42F4404242F080022280CA780C780E
:1023DC00012A61D033F82450434A2A4082F020026B
:1023EC0042F4004242F0800223F82420097870BCA9
:1023FC0033F8212022F0F0029204920C42F40042B5
:10240C0042F0800223F821207047B3F850600D6928
:10241C003244A2F808440A78B3F8504003EB021295
:10242C0002F20C42A4B265B33E2D4DD86E08ED07F6
:10243C0048BF0136B602B6B216530C7833F82450A6
:10244C0003EB84026E040ED533F8242022F0F00244
:10245C001205120D42F4404242F0800223F824206F
:10246C000A7803EB82021188204B70BC0B4083F47A
:10247C00405343F4004343F0800313807047012022
:10248C00C0E6155B25F4F8452D042D0C1553155B92
:10249C0045F400451553D0E733F8242022F0C00250
:1024AC001205120D42F4004242F0800223F824205F
:1024BC009CE7238823F0C0031B051B0D43F400434A
:1024CC0043F08003238052E76E09ED06084D08BFE8
:1024DC0006F1FF3645EA8625ADB21553ADE700BFD0
:1024EC008F89FFFF8F8FFFFFBF8FFFFF8FBFFFFF16
:1024FC000080FFFF30B40A780D7B00EB82034C7830
:10250C0015BB002C00F0998030F8224064060ED5E3
:10251C0030F8223023F0F0031B051B0D43F400436D
:10252C0043F0C00320F822300B7800EB83031A88A9
:10253C00002030BC22F0C0021205120D42F4004201
:10254C0042F080021A807047002C41D130F82240B2
:10255C0064040ED530F8223023F0F0031B051B0D5C
:10256C0043F4404343F0800320F822300B7800EB17
:10257C0083031A8855060CD51A8822F0F00212052E
:10258C00120D42F4004242F0C0021A800B7800EBAC
:10259C00830348F280051A883F4C22F0F0021205A2
:1025AC00120D42F4004242F0C0021A800A7830F850
:1025BC00223023402B4320F822300A78374B30F856
:1025CC0022100B401D4320F82250002030BC7047D5
:1025DC0030F8224064040ED530F8223023F0F0039A
:1025EC001B051B0D43F4404343F0800320F82230BD
:1025FC000B7800EB83031A8852063ED448F2800510
:10260C001A88264C22F0F0021205120D42F44042B8
:10261C0042F080021A800A7830F8223023402B4393
:10262C0020F822300A781C4B30F822100B401D4346
:10263C0020F82250002030BC704730F8224065044E
:10264C000ED530F8223023F0F0031B051B0D43F49C
:10265C00404343F0800320F822300B7800EB8303D7
:10266C001A88002030BC22F0F0029204920C42F442
:10267C00004242F080021A8070471A8822F0F00261
:10268C001205120D42F4004242F0C0021A800B787F
:10269C0000EB8303B2E700BF8FBFFFFFBF8FFFFFCD
:1026AC00F0B44C788B69012C0A695AD0934298BFCC
:1026BC0000260D7B88BF9E1A8E6188BF13460A7850
:1026CC0015BBB0F8505000F20C4412012C44002BF6
:1026DC0000F0A8803E2B00F2C9805D08DB0748BFE4
:1026EC000135AD02ADB2A5520A7830F822107D4BFF
:1026FC00F0BC0B4083F4405343F4004343F080039D
:10270C0020F8223000207047002CEED1B0F8505049
:10271C0000F2044412012C44002B40F0B380A55A63
:10272C00714E25F4F8452D042D0CA552A55A45F4EF
:10273C000045A5524C78002C40F0AF80B0F85030DA
:10274C000A7800F20C4412011C44A35A23F4F843F7
:10275C001B041B0CA352A35A33439BB2A3520A78FB
:10276C00C3E7934286BF9C1A134600249AB20D7B92
:10277C00013256088C619BB24A6900F580676DB3D3
:10278C000D7830F825402D016406B0F850C055D5B1
:10279C0000F20C44644463534C8907EB44043EB18F
:1027AC0002EB460332F8025B934224F8045BF9D146
:1027BC000C784B7800EB8402002B45D130F8243098
:1027CC0023F0F0031B051B0D43F4004343F0C0033F
:1027DC0020F824300A7800EB820216E0CC8807EB54
:1027EC0044043EB104EB860632F8025B24F8045B29
:1027FC00A642F9D1B0F850500C7800F204422A44A9
:10280C002401A3520A7800EB82021188374B002076
:10281C00F0BC0B4083F0300343F4004343F08003DF
:10282C0013807047A35A23F4F8431B041B0CA352C8
:10283C00A35A43F40043A3520A7856E700F2044427
:10284C00644463530C89A8E7012BDED130F82430A3
:10285C0023F0F0031B051B0D43F4404343F08003AE
:10286C0020F824300A7800EB8202CEE75D09DF06FF
:10287C001D4B08BF05F1FF3543EA85239BB2A352DC
:10288C000A7832E73E2B16D85D08DE0748BF0135C3
:10289C00AD02ADB2A5524C78D4B1012C0A787FF4BC
:1028AC0024AFB0F8505000F20C4412019BB22C44EF
:1028BC00A3520A7819E75E09DD060B4D08BF06F135
:1028CC00FF3645EA8625ADB2A5524C78002CE4D1F2
:1028DC00B0F850400B7800F20C4222441B01D55248
:1028EC000A7802E78FBFFFFF0080FFFFBF8FFFFF5B
:1028FC004B780A7830F822105BB90C4B0B4083F400
:10290C00805343F4004343F0800320F8223000202E
:10291C007047074B0B4083F0100343F4004343F024
:10292C00800320F822300020704700BF8FBFFFFFCC
:10293C00BF8FFFFF0B7B002B39D110B40B784C7879
:10294C0000EB830214B330F8232052060BD530F879
:10295C00232022F0F0021205120D42F4004242F044
:10296C00C00220F82320CB78012B1DD00A78194BFC
:10297C0030F8221010BC0B4083F0200343F40043CA
:10298C0043F0800320F822300020704730F82340B9
:10299C0064040ED41188104B0B4083F4405343F461
:1029AC00004343F080031380002010BC70470020CC
:1029BC00704730F8232022F0F0021205120D42F479
:1029CC00404242F0800220F823200A7800EB820279
:1029DC00E0E700BFBF8FFFFF8FBFFFFF11B9802360
:1029EC00A0F84C3000207047002070470020704742
:1029FC00B0F84400704700BF0020704700EB420263
:102A0C00580802F580621AD0F0B4174606468D1CA1
:102A1C0037F8044B013EA4B24FEA142C05F8024CD3
:102A2C0005F801CC05F10205F2D1F0BC01EB400137
:102A3C0002EB8002D80744BF13880B707047DB078A
:102A4C0044BF13880B7070472923038000487047DC
:102A5C004000002029230380004870476C000020B0
:102A6C002923038000487047B00000200023D0F8D1
:102A7C00B82218461375704710B5D0F8B8422369C0
:102A8C00012B07D1D0F8BC326178DB6820789847ED
:102A9C0000232361002010BD0A23038000487047E7
:102AAC00A400002038B50446D0F8B852D0F8BC3297
:102ABC0069782878DB6898472A4620460423012148
:102ACC0002F040FE002038BD002210B50B7882B019
:102ADC0013F06003D0F8B842ADF8062022D0202BBA
:102AEC0004D000F09BFC022002B010BD4B78023BDE
:102AFC00092BF6D801A252F823F000BFEB2B0008EB
:102B0C00DF2B0008EF2A0008EF2A0008EF2A000844
:102B1C00EF2A0008EF2A0008CF2B0008C52B00086D
:102B2C00BD2B00084B780B2BDBD801A252F823F0FD
:102B3C00A72B0008EF2A0008EF2A0008EF2A00084C
:102B4C00EF2A0008EF2A00088D2B0008EF2A000856
:102B5C00EF2A0008EF2A00087D2B00086D2B0008D7
:102B6C0090F89C32032BBCD18B780020E360BBE740
:102B7C0090F89C32032BB4D104F10C01012207E034
:102B8C004B881B0A222B31D0212B37D000210A462F
:102B9C0000F076FC002002B010BD90F89C32032BA4
:102BAC009FD102220DF1060100F06AFC00209BE788
:102BBC008B780020636097E74B8800201B0AA3608A
:102BCC0092E70123CA882361214600F06FFC0020A4
:102BDC008AE7211D012200F053FC002084E704F158
:102BEC000801012200F04CFC00207DE7CA88D0F8D7
:102BFC00BC32222A28BF22221968C9E7CA88024996
:102C0C00092A28BF0922C3E79800002038B50446DA
:102C1C000025812102F040FDE5622046012102F0F1
:102C2C003BFDD4F8B832C4F86C514BB1D4F8BC327B
:102C3C009B689847D4F8B80202F096FDC4F8B852D5
:102C4C00002038BDF8B5044601250223032281215A
:102C5C0002F012FD294602230322E562204602F00F
:102C6C000BFDC4F86C51182002F07AFDC4F8B802C0
:102C7C0070B100270646D4F8BC3207755B689847DC
:102C8C00324629462046042302F05CFD3846F8BD46
:102C9C002846F8BD38B590F89C52032D01D0002081
:102CAC0038BDD0F8B8522C7D0CB1012038BD13467C
:102CBC000A4601212975812102F036FD204638BDD6
:102CCC0019B1C0F8BC12002070470220704700BF39
:102CDC0088B108B5D0F8B43213B10023C0F8B432BF
:102CEC0009B1C0F8B0120123027080F89C3202F0D6
:102CFC007BFC002008BD0220704700BF19B1C0F852
:102D0C00B412002070470220704700BF08B502F0D3
:102D1C00A5FC002008BD00BF08B5D0F8B4321BB12B
:102D2C001B68984700B908BD022008BD08B5D0F84B
:102D3C00B4325B689847002008BD00BF38B5044624
:102D4C0000F52A75284600F055FB012094F8A812CE
:102D5C00B4F8AE2201F01F038342C4F89402C4F805
:102D6C00982215D00ED3022B06D001F080012046FC
:102D7C0002F0A0FC002038BD2946204600F0A4FA41
:102D8C00002038BD2946204600F0F6F8002038BD5A
:102D9C002946204600F06CFA002038BD70B5054677
:102DAC0041B9D0F89432032B0FD0052B0C462ED002
:102DBC00002070BDD0F8B4329B69C3B190F89C224E
:102DCC00032A14D19847002070BD1646D0F8603104
:102DDC00D0F8642193420CD99B1A9A42C0F8603106
:102DEC008CBF9AB292B2314600F070FBE0E7022041
:102DFC0070BDD0F8B4321B6923B190F89C22032A21
:102E0C0000D19847284600F069FB002070BDC5F83A
:102E1C00941202F04FFC204670BD00BF70B5044602
:102E2C0081B91346D0F89422022A19D032F0040347
:102E3C0002D1802102F03EFC94F8A0320020012B3C
:102E4C000BD070BDD0F8B4325B6963B390F89C22A0
:102E5C00032A28D19847002070BD84F8A00270BDC9
:102E6C00D0E90862964220D8C369B3FBF2F502FBA5
:102E7C0015350DB99A4226D9D4F8B432DB682BB18A
:102E8C0094F89C22032A01D12046984780212046A1
:102E9C0002F010FC204600F02DFB94F8A03200202C
:102EAC00012BCED1D9E7022070BDB21A0D460262B9
:102EBC00194692B200F0F2FA2B462A4629462046D1
:102ECC0002F040FCB8E7D0F898229342D4D22A46BC
:102EDC0000F0E4FAC4F89852EEE700BF70B5002297
:102EEC004026044601251146334602F0C5FB334605
:102EFC008021C4F85851C4F864612046002202F0C5
:102F0C00BBFB0021D4F8B832A561666284F89C52F0
:102F1C00C4F894126160C4F8A41223B1D4F8B4328A
:102F2C0020465B689847002070BD00BF01740020EC
:102F3C00704700BF0346042290F89C12002083F8CF
:102F4C009D1283F89C22704790F89C32042B04BF8E
:102F5C0090F89D3280F89C320020704790F89C22AB
:102F6C00032A01D00020704708B5D0F8B432DB69D1
:102F7C0003B19847002008BD30B50B7883B003F03F
:102F8C006003202B0D46044628D0402B26D053B18D
:102F9C008021204602F08EFB2046002102F08AFBA5
:102FAC00002003B030BD4B78092BF1D801A252F8A8
:102FBC0023F000BF3D300008673000089D2F00084B
:102FCC00833000089D2F00088F300008CB3000089C
:102FDC009D2F000801310008FB2F0008D4F8B432F3
:102FEC0029469B6820469847002003B030BD89785D
:102FFC009E4D01292970CBD890F89C32022B00F001
:10300C000B81032B40F0FC80002900F025814168E6
:10301C00012909D0C9B2FFF789FE297820466160E1
:10302C00FFF77AFE0228B3D0204600F057FAB7E734
:10303C0090F89C32013B022BAAD8CB88022BA7D14B
:10304C000021D0F8A422C16002B1C360022204F1B5
:10305C000C01204600F014FAA2E790F89C32013BD8
:10306C00022B95D84B88012B9AD10023C0F8A4329F
:10307C0000F034FA94E74B88012B91D1C0F8A432BC
:10308C00D2E78B88002B83D1CB88002B80D14D8845
:10309C007F2D3FF67DAF90F89C32032B3FF478AF39
:1030AC00E9B280F89E1202F031FB204600F016FACD
:1030BC00002D00F0CD80022384F89C3270E70023B1
:1030CC004A88ADF80630130A013B062B3FF660AF79
:1030DC0001A151F823F000BF99310008813100089B
:1030EC00A93100089D2F00089D2F00086B310008A6
:1030FC0027310008CA88012A7FF44AAF90F89C3225
:10310C00002B3FF445AF022B40F29480032B7FF44D
:10311C003FAF011D00F0B4F942E7037C002B7FF4B4
:10312C0037AFD0F8B4320DF106001B6B984707236C
:10313C004370BDF80630EA886BB1002A3FF474AFD7
:10314C00934228BF134601461A462046ADF8063076
:10315C0000F096F9EA88002A7FF422AF64E7037C3A
:10316C00002B7FF415AFD0F8B4320DF106005B6B79
:10317C009847DEE7027CD0F8B432002A61D19B6A12
:10318C000DF10600984702234370D2E7D0F8B03215
:10319C000DF106011B68007C9847CAE7D2B2052ADC
:1031AC003FF6F6AEDFE802F026201A140E03D0F834
:1031BC00B0329B69002B3FF4EBAE0DF10601207C85
:1031CC009847B6E7D0F8B0325B69002BF5D1DFE653
:1031DC00D0F8B0321B69002BEFD1D9E6D0F8B03261
:1031EC00DB68002BE9D1D3E6D0F8B0329B68002B1A
:1031FC00E3D1CDE6D0F8B0325B68002BDDD1C7E669
:10320C00802102F057FA0021204602F053FA297867
:10321C002046FFF78BFDC3E600293FF405AF0121E3
:10322C000323416080F89C32FFF776FD02287FF47F
:10323C00FBAEADE60023014641F8083F00F020F953
:10324C00AEE6DB6A0DF1060098470223437070E787
:10325C00012384F89C32A3E60223416080F89C325F
:10326C00FFF764FD204600F039F999E6880100204B
:10327C0038B50B780D4603F06003202B04460CD0B8
:10328C00402B0AD04BB18021204602F013FA204685
:10329C00002102F00FFA002038BD94F89C32013B5B
:1032AC00022BF0D82B79012BEDD8D4F8B432294667
:1032BC009B6820469847EB88002BECD10028EAD17C
:1032CC00204600F00BF9E6E770B50B78044603F0E6
:1032DC006003202B0CD0402B0AD083B180212046D8
:1032EC0002F0E8F92046002102F0E4F9002070BD5C
:1032FC00D4F8B43220469B689847002070BD4B78B8
:10330C008A88012BD5B23ED014D3032BE6D190F88A
:10331C009C32022B46D0032BE0D14B8833B96A0682
:10332C0004D0CB8813B9294602F0C4F9204600F02A
:10333C00D5F8DBE790F89C32022B3DD0032BCDD196
:10334C0005F00F0303EB8303120600EB830342D457
:10335C00D3F85831002BC1D005F07F0303EB830663
:10336C0000EB860606F5AA7633B12946204602F014
:10337C00BDF900283BD001233360314620460222A0
:10338C0000F07EF8B2E790F89C32022B0AD0032BA7
:10339C00A4D14B88002BA9D16E06C7D0294602F0C8
:1033AC0097F9C3E76B0699D0294602F083F92046BA
:1033BC00802102F07FF999E768068FD1002311066E
:1033CC004CBF04F1140104F5AA7120460B600222D3
:1033DC0000F056F88AE79B69002B3FF47FAF05F0AD
:1033EC007F035E1C06EB860600EB8606BCE73060AE
:1033FC00C3E700BF0B7803704B784370CA788B78A7
:10340C0003EB022343804A790B7903EB022383807D
:10341C00CA798B7903EB0223C380704710B504463D
:10342C00802102F047F92046BDE81040002102F04F
:10343C0041B900BF00B3037830B4F3B104460023A4
:10344C0014F8015F0133DBB2002DF9D15B000233BC
:10345C00032413800B704C7004785CB1022300259C
:10346C005A1CD2B2CC548D5410F8014F0233DBB23B
:10347C00002CF5D130BC704770470223E8E700BF41
:10348C0038B5134602250A46C0E90733C0F89452F2
:10349C00002102F049F9002038BD00BF08B51346E1
:1034AC000A46002102F040F9002008BD38B5134649
:1034BC0003250A46C0F85C31C0F86031C0F894525C
:1034CC00002102F03FF9002038BD00BF08B51346BB
:1034DC000A46002102F036F9002008BD08B5042286
:1034EC000023C0F8942219461A4602F01DF9002058
:1034FC0008BD00BF08B505220023C0F89422194668
:10350C001A4602F01FF9002008BD00BF08B10023C5
:10351C0003707047A0B108B50378022B0FD00221BD
:10352C00002201700748FDF71FF86420FCF750FEDD
:10353C00BDE80840012204490448FEF7EBBC08BD75
:10354C00704700BF000C01408C010020500200208D
:10355C0000B583B08DF8071010B10378022B02D0A0
:10356C0003B05DF804FB0A2301220DF107010348A7
:10357C00FEF746FC03B05DF804FB00BF50020020D0
:10358C0008B50E4B834200D008BD0D4B197889B19C
:10359C00102928BF10210123013903FA01F189B246
:1035AC00084800F019F8BDE8084001220449034816
:1035BC00FEF7B0BC034800F023F8F4E750020020FB
:1035CC008C0100209002002018B104210148FEF764
:1035DC0069B97047B801002070B149B138B50C46D3
:1035EC00064D04212846FEF75DF92B689C6338BD17
:1035FC0004210248FEF778B9704700BFB8010020DB
:10360C0018B104210148FEF76FB97047B8010020CA
:10361C00002210210148FCF7A7BF00BF000C01409D
:10362C00002801F03A812DE9F04F4FF00108D54BFD
:10363C0099B0036041460022D348FCF795FF414600
:10364C000022D248FCF790FF42460221CF48FCF7FB
:10365C008BFF18AC00221021CC4804F8018DFCF72C
:10366C0083FF41460022C948FCF77EFF4346424691
:10367C002146C748FDF762FF42464146C348FCF766
:10368C0073FF4FF47A70FCF7A3FDEF2318AD0327FB
:10369C002C4600221021BD4805F8023DFCF764FFC2
:1036AC0041460022B948FCF75FFF43464246294693
:1036BC00B748FDF743FF42464146B448FCF754FF78
:1036CC0042461021B14804F8037DFCF74DFF4146FA
:1036DC000022AE48FCF748FF434642462146AC4820
:1036EC00FDF72CFF42464146A848FCF73DFF8023DE
:1036FC0018AD2C464FF0020942461021A34805F89C
:10370C00043DFCF731FF41460022A048FCF72CFF9A
:10371C004346424629469E48FDF710FF4246414625
:10372C009A48FCF721FF42461021984804F8059D61
:10373C00FCF71AFF414600229448FCF715FF43465C
:10374C00424621469248FDF7F9FE424641468F48D3
:10375C00FCF70AFFCA2318AC002210218B4804F88E
:10376C00063DFCF701FF414600228848FCF7FCFEB1
:10377C004346424621468648FDF7E0FE4246414616
:10378C008248FCF7F1FEC32318AD08262C464246AE
:10379C0010217E4805F8073DFCF7E6FE4146002265
:1037AC007A48FCF7E1FE4346424629467848FDF745
:1037BC00C5FE424641467548FCF7D6FE42461021EE
:1037CC00724804F8086DFCF7CFFE414600226F48A2
:1037DC00FCF7CAFE4346424621466D48FDF7AEFE55
:1037EC00424641466948FCF7BFFE502318AC42469E
:1037FC001021664804F8093DFCF7B6FE414600224C
:10380C006248FCF7B1FE4346424621466048FDF74C
:10381C0095FE424641465D48FCF7A6FECB2318AC0C
:10382C0000221021594804F80A3DFCF79DFE414640
:10383C0000225648FCF798FE43464246214654481F
:10384C00FDF77CFE424641465048FCF78DFE39237D
:10385C0018AC424610214D4804F80B3DFCF784FE91
:10386C00414600224948FCF77FFE4346424621462A
:10387C004748FDF763FE4246414644480024FCF7A6
:10388C0073FE2C230DF1600A5546424610213F4829
:10389C000AF80C3DFCF768FE414622463B48FCF713
:1038AC0063FE4346424651463948FDF747FE4246C1
:1038BC0041463648FCF758FE42461021334805F87D
:1038CC000D4DFCF751FE224641463048FCF74CFEAC
:1038DC004346424629462E48FDF730FE42464146B5
:1038EC002A48FCF741FE342318AD424610212748E4
:1038FC0005F80E3DFCF738FE224641462348FCF7FE
:10390C0033FE4346424629462148FDF717FE424600
:10391C0041461E48FCF728FE18AD424610211B48B4
:10392C0005F80F9DFCF720FE224641461748FCF790
:10393C001BFE4346424629461548FDF7FFFD42460D
:10394C0041461248FCF710FECF2318AD2246102139
:10395C000E4805F8103DFCF707FE224641460B4881
:10396C00FCF702FE4346424629460948FDF7E6FDB0
:10397C00424641460548FCF7F7FD0DF16009424609
:10398C00102107E04001F000000C0140000801404C
:10399C00F8010020D4484D4609F8114DFCF7E4FD20
:1039AC0022464146D048FCF7DFFD43464246494695
:1039BC00CE48FDF7C3FD42464146CB48FCF7D4FD4B
:1039CC006FF03E0342461021C74805F8123DFCF744
:1039DC00CBFD22464146C448FCF7C6FD4346424651
:1039EC002946C248FDF7AAFD42464146BE48FCF7AF
:1039FC00BBFD30230DF160094D464FF0E80B4246FC
:103A0C001021B94809F8133DFCF7AEFD224641469A
:103A1C00B548FCF7A9FD434642464946B348FDF775
:103A2C008DFD42464146B048FCF79EFD22461021D2
:103A3C00AD4805F814BDFCF797FD22464146AA484F
:103A4C00FCF792FD434642462946A848FDF776FD11
:103A5C0042464146A448FCF787FD852318AD4246F3
:103A6C001021A14805F8153DFCF77EFD2246414684
:103A7C009D48FCF779FD4346424629469B48FDF795
:103A8C005DFD424641469848FCF76EFD18AD424636
:103A9C001021954805F8164DFCF766FD2246414667
:103AAC009148FCF761FD4346424629468F48FDF795
:103ABC0045FD424641468C48FCF756FD782318AD2F
:103ACC0042461021884805F8173DFCF74DFD22466B
:103ADC0041468548FCF748FD434642462946834803
:103AEC00FDF72CFD424641467F48FCF73DFDEA239D
:103AFC0018AD224610217C4805F8183DFCF734FD22
:103B0C00224641467848FCF72FFD4346424629465B
:103B1C007648FDF713FD424641467348FCF724FDF9
:103B2C0018AD42461021704805F8194DFCF71CFDE4
:103B3C00224641466C48FCF717FD4346424629464F
:103B4C006A48FDF7FBFC424641466748FCF70CFD12
:103B5C0018AD42461021644805F81A4DFCF704FDD7
:103B6C00224641466048FCF7FFFC43464246294644
:103B7C005E48FDF7E3FC424641465B48FCF7F4FC2B
:103B8C00ED2318AD22461021574805F81B3DFCF7D4
:103B9C00EBFC224641465448FCF7E6FC43464246C1
:103BAC0029465248FDF7CAFC424641464E48FCF7AE
:103BBC00DBFC642318AD424610214B4805F81C3D34
:103BCC00FCF7D2FC224641464748FCF7CDFC434665
:103BDC00424629464548FDF7B1FC4246414642481B
:103BEC00FCF7C2FC18AD424610213F4805F81D7D7C
:103BFC00FCF7BAFC224641463B48FCF7B5FC434671
:103C0C00424629463948FDF799FC4246414636481A
:103C1C00FCF7AAFC122318AD42461021324805F8D5
:103C2C001E3DFCF7A1FC224641462F48FCF79CFCAC
:103C3C004346424629462D48FDF780FC4246414604
:103C4C002948FCF791FC812318AD424610212648E7
:103C5C0005F81F3DFCF788FC224641462248FCF73C
:103C6C0083FC4346424629462048FDF767FC424602
:103C7C0041461D48FCF778FCF72318AD224610216D
:103C8C00194805F8203DFCF76FFC224641461648C2
:103C9C00FCF76AFC4346424629461448FDF74EFCA5
:103CAC00424641461048FCF75FFC202318AD4246C3
:103CBC0010210D4805F8213DFCF756FC22464146E3
:103CCC000948FCF751FC4346424629460748FDF794
:103CDC0035FC424641460448FCF746FCC02318AD6F
:103CEC002246102104E000BF00080140F80100202A
:103CFC00DB4805F8223DFCF737FC22464146D84804
:103D0C00FCF732FC434642462946D648FDF716FCE2
:103D1C0042464146D248FCF727FC232318AD4246C5
:103D2C001021CF4805F8233DFCF71EFC22464146E6
:103D3C00CB48FCF719FC434642462946C948102596
:103D4C00FDF7FCFB42464146C548FCF70DFC6FF005
:103D5C003E030DF1600AD14622462946C0480AF8B6
:103D6C00243DFCF701FC22464146BD48FCF7FCFB18
:103D7C00434642465146BB48FDF7E0FB42464146AE
:103D8C00B748FCF7F1FB42462946B54809F8255DD2
:103D9C00FCF7EAFB22464146B148FCF7E5FB4346FB
:103DAC0042464946AF48FDF7C9FB42464146AC483E
:103DBC00FCF7DAFBC5230DF1600922462946A84819
:103DCC0009F8263DFCF7D0FB22464146A448FCF7F7
:103DDC00CBFB434642464946A248FDF7AFFB424661
:103DEC0041469F48FCF7C0FB3E230DF1600942465B
:103DFC0029469B4809F8273DFCF7B6FB224641466D
:103E0C009748FCF7B1FB4346424649469548FDF7B7
:103E1C0095FB424641469248FCF7A6FB28230DF140
:103E2C006009424629468E4809F8283DFCF79CFB60
:103E3C00224641468A48FCF797FB43464246494690
:103E4C008848FDF77BFB424641468548FCF78CFBD6
:103E5C00C7230DF1600922462946814809F8293DFE
:103E6C00FCF782FB224641467D48FCF77DFB43462E
:103E7C00424649467B48FDF761FB4246414678483D
:103E8C00FCF772FB86230DF1600A42462946744802
:103E9C00D1460AF82A3DFCF767FB2246414670489A
:103EAC00FCF762FB4346424651466E48FDF746FB23
:103EBC00424641466A48FCF757FB4FF0360C224607
:103ECC002946674809F82BCDFCF74EFB22464146A4
:103EDC006348FCF749FB4346424649466148FDF7B7
:103EEC002DFB424641465E48FCF73EFB0DF1600956
:103EFC00424629465A4809F82CBDFCF735FB2246A8
:103F0C0041465748FCF730FB434642464946554824
:103F1C00FDF714FB424641465148FCF725FB3A237A
:103F2C000DF16009224629464D4809F82D3DFCF754
:103F3C001BFB224641464A48FCF716FB43464246C9
:103F4C0049464848FDF7FAFA424641464448FCF7D0
:103F5C000BFB55230DF1600942462946404809F8F0
:103F6C002E3DFCF701FB224641463D48FCF7FCFA8E
:103F7C004346424649463B48FDF7E0FA4246414635
:103F8C003748FCF7F1FAB1230DF1600922462946B6
:103F9C00334809F82F3DFCF7E7FA224641463048F2
:103FAC00FCF7E2FA4346424649462E48FDF7C6FA6C
:103FBC00424641462A48FCF7D7FA0DF160094246C1
:103FCC002946274809F8304DFCF7CEFA22464146DF
:103FDC002348FCF7C9FA4346424649462148FDF7B7
:103FEC00ADFA424641461E48FCF7BEFA18230DF1C5
:103FFC006009424629461A4809F8313DFCF7B4FAE3
:10400C00224641461648FCF7AFFA4346424649461B
:10401C001448FDF793FA424641461148FCF7A4FABE
:10402C00B6230DF16009224629460D4809F8323DA8
:10403C00FCF79AFA224641460948FCF795FA4346A2
:10404C00494642460748FDF779FA4246414604483C
:10405C00FCF78AFA0DF160094246294604E000BFDC
:10406C0000080140F8010020DC4809F8336DFCF72A
:10407C007BFA22464146D948FCF776FA4346494634
:10408C004246D748FDF75AFA42464146D348FCF718
:10409C006BFA82230DF1600942462946CF4809F894
:1040AC00343DFCF761FA22464146CC48FCF75CFAF9
:1040BC00434649464246CA48FDF740FA4246414605
:1040CC00C648FCF751FA27230DF1600942462946F0
:1040DC00C24809F8353DFCF747FA22464146BF482D
:1040EC00FCF742FA434649464246BD48FDF726FADC
:1040FC0042464146B948FCF737FAF2230DF1600904
:10410C0022462946B54809F8363DFCF72DFA2246D9
:10411C004146B248FCF728FA434649464246B04865
:10412C00FDF70CFA42464146AC48FCF71DFA0DF17E
:10413C00600942462946A94809F8374DFCF714FA9C
:10414C0022464146A548FCF70FFA434649464246EB
:10415C00A348FDF7F3F942464146A048FCF704FAA0
:10416C0026230DF16009224629469C4809F8383D62
:10417C00FCF7FAF9224641469848FCF7F5F9434614
:10418C00494642469648FDF7D9F94246414693487E
:10419C00FCF7EAF90DF16009424629468F4809F807
:1041AC00398DFCF7E1F9224641468C48FCF7DCF9E5
:1041BC004346494642468A48FDF7C0F942464146C5
:1041CC008648FCF7D1F9E0230DF160082246294618
:1041DC00824808F83A3DFCF7C7F9224601217F488E
:1041EC00FCF7C2F9012341461A467D48FDF7A6F9B2
:1041FC0001224FF00F0B11467848FCF7B5F90DF181
:10420C00600829460122754808F83BBDFCF7ACF95B
:10421C00224601217148FCF7A7F9012341461A46B1
:10422C006F48FDF78BF901224FF0310811466B48AE
:10423C00FCF79AF90DF1600929460122674809F843
:10424C003C8DFCF791F9224601216448FCF78CF96E
:10425C00012349461A466248FDF770F901225F486E
:10426C001146FCF781F92B230DF160092946012237
:10427C005A4809F83D3DFCF777F922460121574889
:10428C00FCF772F9012349461A465548FDF756F9D1
:10429C00012252481146FCF767F94FF00C0E0DF154
:1042AC006009294601224D4809F83EEDFCF75CF9FE
:1042BC00224601214948FCF757F9012349461A4681
:1042CC004748FDF73BF901224FF00E0911464348D0
:1042DC00FCF74AF90DF1600A294601223F480AF819
:1042EC003F9DFCF741F9224601213C48FCF73CF983
:1042FC00012351461A463A48FDF720F90122374866
:10430C001146FCF731F90DF1600A294601223348B8
:10431C000AF8406DFCF728F9224601212F48FCF7DA
:10432C0023F9012351461A462D48FDF707F90122BE
:10433C002A481146FCF718F94E230DF1600A29465C
:10434C00012226480AF8413DFCF70EF922460121CC
:10435C002248FCF709F9012351461A462048FDF77B
:10436C00EDF801221D481146FCF7FEF8F1230DF182
:10437C00600A2946012219480AF8423DFCF7F4F874
:10438C00224601211548FCF7EFF8012351461A4645
:10439C001348FDF7D3F8012210481146FCF7E4F856
:1043AC0037230DF1600A294601220C480AF8433DD7
:1043BC00FCF7DAF8224601210848FCF7D5F801236E
:1043CC0051461A460648FDF7B9F801220348114632
:1043DC00FCF7CAF84FF0070C04E000BF00080140DE
:1043EC00F80100200DF1600A29460122D3480AF891
:1043FC0044CDFCF7B9F822460121D048FCF7B4F8BB
:10440C00012351461A46CE48FDF798F80122CB48B5
:10441C001146FCF7A9F80DF1600A29460122C7489C
:10442C000AF8455DFCF7A0F822460121C348FCF7C9
:10443C009BF8012351461A46C148FDF77FF801222B
:10444C00BE481146FCF790F818AD01221021BB486C
:10445C0005F8467DFCF788F822460121B748FCF7A1
:10446C0083F8012329461A46B548FDF767F801225F
:10447C00B2481146FCF778F818AD01221021AF486C
:10448C0005F8479DFCF770F822460121AB48FCF774
:10449C006BF8012329461A46A948FDF74FF801226B
:1044AC00A6481146FCF760F8092318AD012210212B
:1044BC00A24805F8483DFCF757F8224601219F48D1
:1044CC00FCF752F8012329461A469D48FDF736F8A9
:1044DC0001229A481146FCF747F818AD0122102129
:1044EC00964805F8494DFCF73FF8224601219348C0
:1044FC00FCF73AF8012329461A469148FDF71EF8B5
:10450C0001228E481146FCF72FF8E12318AD224604
:10451C0010218A4805F84A3DFCF726F8224601216D
:10452C008648FCF721F8012329461A468448FDF7F2
:10453C0005F8012281481146FCF716F818AD012246
:10454C0010217E4805F84B4DFCF70EF82246012150
:10455C007A48FCF709F8012329461A467848FCF7F3
:10456C00EDFF012275481146FBF7FEFF18AC012246
:10457C001021724804F84C9DFBF7F6FF0022012134
:10458C006E48FBF7F1FF012321461A466C48FCF7F5
:10459C00D5FF012269481146FBF7E6FF142318AC3E
:1045AC0001221021654804F84D3DFBF7DDFF002288
:1045BC0001216248FBF7D8FF012321461A466048C7
:1045CC00FCF7BCFF01225D481146FBF7CDFF18AC90
:1045DC0001221021594804F84E7DFBF7C5FF00223B
:1045EC0001215648FBF7C0FF012321461A465448C7
:1045FC00FCF7A4FF0122112511465048FBF7B4FF2C
:10460C0018AC012210214D4804F84F5DFBF7ACFFAC
:10461C00002201214948FBF7A7FF012321461A4636
:10462C004748FCF78BFF01224FF007071146434820
:10463C00FBF79AFF18AC01221021404804F8507D7A
:10464C00FBF792FF002201213C48FBF78DFF012371
:10465C0021461A463A48FCF771FF012237481146A9
:10466C00FBF782FF18AC01221021344804F8518D5D
:10467C00FBF77AFF002201213048FBF775FF01237D
:10468C0021461A462E48FCF759FF01222B481146A9
:10469C00FBF76AFF6FF03E0318AC0122102127488C
:1046AC0004F8523DFBF760FF002201212348FBF781
:1046BC005BFF012321461A462148FCF73FFF0122EC
:1046CC001E481146FBF750FF482318AC012210215D
:1046DC001A4804F8533DFBF747FF00220121174805
:1046EC00FBF742FF012321461A461548FCF726FF2B
:1046FC00012212481146FBF737FF18AC012210219A
:10470C000E4804F8546DFBF72FFF002201210B48D3
:10471C00FBF72AFF012321461A460948FCF70EFF36
:10472C00012206481146FBF71FFF18AC012210218D
:10473C00024804F855BDFBF717FF03E000080140E1
:10474C00F8010020002201215448FBF70DFF012342
:10475C0021461A465248FCF7F1FE01224F481146F9
:10476C00FBF702FF4FF00C0E18AC012210214B4846
:10477C0004F856EDFBF7F8FE002201214748FBF741
:10478C00F3FE012321461A464548FCF7D7FE0122C9
:10479C0042481146FBF7E8FE18AC012210213F48B5
:1047AC0004F8578DFBF7E0FE002201213B48FBF794
:1047BC00DBFE012321461A463948FCF7BFFE0122D5
:1047CC0036481146FBF7D0FE4FF0360C18AC0122E0
:1047DC001021324804F858CDFBF7C6FE0022012107
:1047EC002E48FBF7C1FE012321461A462C48FCF744
:1047FC00A5FE012229481146FBF7B6FE18AC012292
:10480C001021264804F859BDFBF7AEFE0022012109
:10481C002248FBF7A9FE012321461A462048FCF743
:10482C008DFE01221D481146FBF79EFE18AC00229E
:10483C0010211A4804F85A5DFBF796FE002201215C
:10484C001648FBF791FE012321461A461448FCF743
:10485C0075FE012211481146FBF786FE7820FBF706
:10486C00B7FC292318AC002210210C4804F85B3D3E
:10487C00FBF77AFE002201210848FBF775FE0123A5
:10488C0021461A460648FCF759FE012203481146F8
:10489C00FBF76AFE19B0BDE8F08F704700080140C5
:1048AC00F801002048B12DE9F04F068885B00EB113
:1048BC0047881FB905B0BDE8F08F70472A2305461D
:1048CC00884604AC00221021A84804F8023DFBF7EE
:1048DC004BFE00220121A548FBF746FE0123214691
:1048EC001A46A348FCF72AFE0122002411469F48D1
:1048FC00FBF73AFE0DF1100B012210219B480BF82F
:10490C00034DFBF731FE224601219848FBF72CFEA4
:10491C00012359461A469648FCF710FE012293488B
:10492C001146FBF721FE0DF1100B012210218F48CF
:10493C000BF8044DFBF718FE224601218B48FBF7C0
:10494C0013FE012359461A468948FCF7F7FD01224C
:10495C0006F1FF3A1FFA8AFA11468448FBF704FE67
:10496C000DF1100B4FEA1A23012210217F480BF88E
:10497C00053DFBF7F9FD224601217C48FBF7F4FDD0
:10498C00012359461A467A48FCF7D8FD012277488C
:10499C001146FBF7E9FD0DF1100B012210217348B4
:1049AC000BF806ADFBF7E0FD224601216F48FBF743
:1049BC00DBFD012359461A466D48FCF7BFFD012269
:1049CC006A481146FBF7D0FD2B230DF1100A224645
:1049DC00102166480AF8073DFBF7C6FD2246012167
:1049EC006248FBF7C1FD012351461A466048FCF7AB
:1049FC00A5FD01225D481146FBF7B6FD0DF1100A2D
:104A0C000122102159480AF8084DFBF7ADFD22464A
:104A1C0001215648FBF7A8FD012351461A4654487C
:104A2C00FCF78CFD012251481146FBF79DFD0DF161
:104A3C00100A012210214D480AF8094DFBF794FD8C
:104A4C00224601214948FBF78FFD012351461A46A6
:104A5C004748FCF773FD012207F1FF391FFA89F96A
:104A6C0011464248FBF780FD0DF1100A4FEA19235D
:104A7C00012210213D480AF80A3DFBF775FD22463C
:104A8C0001213A48FBF770FD012351461A4638487C
:104A9C00FCF754FD012235481146FBF765FD0DF17D
:104AAC00100A0122102131480AF80B9DFBF75CFD1E
:104ABC00224601212D48FBF757FD012351461A468A
:104ACC002B48FCF73BFD012228481146FBF74CFD17
:104ADC004FF02C0C6B882A8807FB06F603FB02F7B9
:104AEC000DF11009BE4222464FF010011F4809F883
:104AFC0001CD28BF3E46FBF737FD224601211B485E
:104B0C00FBF732FD012349461A461948FCF716FDFE
:104B1C00012216481146FBF727FD012210211348EC
:104B2C00FBF722FD224601211048FBF71DFD4FEA41
:104B3C0018238DF804808DF8033086B10C4D0123B9
:104B4C000DF103011A462846FCF7F8FC012301A9D4
:104B5C001C441A462846FCF7F1FCB442EFD1012262
:104B6C0002481146FBF700FDA4E600BF0008014017
:104B7C00F80100202DE9F04F87B0BDF84050BDF88A
:104B8C004480002800F07881002B00F07581002D06
:104B9C0000F072810488A14280F26E81B0F802C0EC
:104BAC00624580F2698103EB010A1FFA8AFA05EB70
:104BBC000209544521EAE1761FFA89F922EAE277E3
:104BCC0040F25D8105FB03F5BBB20093CC45B3B25B
:104BDC00019300F269810CF1FF391FFA89F9CC4578
:104BEC009CBF0CF1FF391FFA89F92A2304460DF1F9
:104BFC00180B00221021AF480BF8023DFBF7B4FC58
:104C0C0000220121AB48FBF7AFFC012359461A46A1
:104C1C00A948FCF793FC0122A6481146FBF7A4FC1B
:104C2C00019B0DF1180B1B0A01221021A1480BF856
:104C3C00033DFBF799FC002201219E48FBF794FCF5
:104C4C00012359461A469C48FCF778FC01229948E6
:104C5C001146FBF789FC0DF1180B01221021954828
:104C6C000BF8046DFBF780FC002201219148FBF747
:104C7C007BFC012359461A468F48FCF75FFC012246
:104C8C008C481146FBF770FC06AE4FEA1A23012242
:104C9C001021884806F8053DFBF766FC002201212F
:104CAC008448FBF761FC012331461A468248FCF725
:104CBC0045FC01227F481146FBF756FC06AE01224B
:104CCC0010217C4806F806ADFBF74EFC00220121B2
:104CDC007848FBF749FC012331461A467648FCF725
:104CEC002DFC012273481146FBF73EFC2B2306AE2C
:104CFC00002210216F4806F8073DFBF735FC002217
:104D0C0001216C48FBF730FC012331461A466A48F6
:104D1C00FCF714FC012267481146FBF725FC009BAD
:104D2C0006AE1B0A01221021624806F8083DFBF76B
:104D3C001BFC002201215F48FBF716FC01233146C6
:104D4C001A465D48FCF7FAFB01225A481146FBF75C
:104D5C000BFC06AE01221021564806F8097DFBF724
:104D6C0003FC002201215348FBF7FEFB01233146D3
:104D7C001A465148FCF7E2FB01224E481146FBF75C
:104D8C00F3FB06AE4FEA192301221021494806F81D
:104D9C000A3DFBF7E9FB002201214648FBF7E4FB47
:104DAC00012331461A464448FCF7C8FB012241480E
:104DBC001146FBF7D9FB06AE012210213D4806F83F
:104DCC000B9DFBF7D1FB002201213A48FBF7CCFBF2
:104DDC00012331461A463848FCF7B0FB01222C2738
:104DEC0011463448FBF7C0FB2188638806AE03FBF1
:104DFC0001F300229D424FF010012E4828BF1D46A2
:104E0C0006F8017DFBF7B0FB002201212948FBF7D6
:104E1C00ABFB012331461A462748FCF78FFB0122D6
:104E2C0024481146FBF7A0FB012210212148FBF777
:104E3C009BFB002201211F48FBF796FB4FEA18232E
:104E4C008DF80C808DF80B308DB100241A4E012397
:104E5C000DF10B011A463046FCF770FB012303A938
:104E6C001C441A463046FCF769FBAC42EFD10122D8
:104E7C0010481146FBF778FB07B0BDE8F08F03FB39
:104E8C0005F5BBB2621E0093CC45B3B21FFA82FA91
:104E9C00019309D80CF1FF3954451FFA89F93FF6F3
:104EAC009EAE1FFA82FA9AE654453FF69EAE621EFB
:104EBC00F7E700BF00080140F801002030B50E4CA8
:104ECC0083B002AD05F8010D002220462021FBF72E
:104EDC004BFB012329461A460848FCF72FFB2046BA
:104EEC0001222021FBF740FB204600222021FBF76A
:104EFC003BFB03B030BD00BF000C0140F8010020AB
:104F0C0030B5012200244FF4803302254FF4E01118
:104F1C0095B00AA80A920E920B93129313910C94CB
:104F2C00059401940D94CDE90F44CDE90644CDE9E7
:104F3C000844CDE9024404941195FBF759FF0F2264
:104F4C004FF48063294605A80592089306950794AB
:104F5C000994FCF745F9102301A804940193FCF77C
:104F6C002BFA15B030BD00BF002480B59AB0FBF70A
:104F7C000BF9FFF7C5FFCDE91244CDE91444874B7B
:104F8C004FF400579A69012542F010029A610226EB
:104F9C009969224601F010010191019998693946ED
:104FAC0040F020009861D3F818C07D480CF0200C1C
:104FBC00CDF808C0DDF808C0D3F818C04CF0040CCC
:104FCC00C3F818C0D3F818C00CF0040CCDF80CC002
:104FDC00DDF80CC0D3F818C04CF0080CC3F818C09E
:104FEC009B6903F008030493049BFBF7BDFA22466C
:104FFC0013216C48FBF7B8FA224633216A48FBF7B9
:10500C00B3FA12A96648CDE9127515961494FBF7FC
:10501C00ABF9132312A96348CDE9135415961293D7
:10502C00FBF7A2F9212312A95F48CDE91354159679
:10503C001293FBF799F91222112312A95A48CDE9C0
:10504C001456CDE91223FBF78FF94FF47042574BEE
:10505C0012A95548CDE912231495FBF785F9224680
:10506C0021462820FBF7D8F82820FBF70BF94FF442
:10507C00827600F02DFA4FF4007508210A224C4B71
:10508C004C48C3E90651186018465E60DA62C3E901
:10509C000244C3E90444C3E908449C62FCF70EFAD9
:1050AC002146202212A8079405940B94CDE90844BC
:1050BC000A940694CDE90C44CDE90E44CDE9104494
:1050CC0000F07CFD472240F2E7333B4D3B4928463C
:1050DC006A602960EB60AC60C5E90444AC61FCF724
:1050EC0043FB4FF4805307A928460793FCF72CFD8C
:1050FC002846FCF789FB05A92846CDE9054460261E
:10510C00FCF7C8FD40F2F31322460BA92846CDE963
:10511C000B63CDE90D44CDE90F441194FCF71AFC57
:10512C0004220BA928460C94FCF714FC12A928465F
:10513C001797CDE91244CDE9144416941994FCF751
:10514C00CBFD284600F000F90C224FF416511C4BF5
:10515C001C4D1846C3E90051C3E902441C61C3E964
:10516C0006445A61FCF7E2FD1749184800F038F87C
:10517C001748FEF729FA1648FEF74AFA1548FEF7C3
:10518C004FFA4FF6FF711348FFF78CFB1248FEF7EE
:10519C00BDF91148FEF7BEF9FEE700BF0010024052
:1051AC000010014000080140000C014000003110CB
:1051BC00F801002000300140B8010020002C014013
:1051CC005002002000440040C94E0008900200200C
:1051DC0090020020B0010020B4010020704700BFF5
:1051EC0028B100234160037009B118460847704785
:1051FC0028B10022436802700BB110461847704763
:10520C00E8B102F00203D2070AD5022925D00329FE
:10521C0018D0012904D1002B14BF2223022301E052
:10522C003BB90123017842680B4303703AB118462D
:10523C0010470329F5D8DFE801F0030E0C0A70477C
:10524C001123EFE7002B14BF88230823EAE78123FF
:10525C00E8E74123E6E72123E4E7002B14BF4423CE
:10526C000423DFE70E4B82B09A690E4942F001022B
:10527C009A619A6902F001020092009ADA6942F08E
:10528C008052DA61DB6903F080530193019B4B6818
:10529C0023F0E06343F080634B6002B0704700BFC3
:1052AC00001002400000014070B500240268194B48
:1052BC0086B09A42CDE90244CDE9044401D006B04F
:1052CC0070BDA0210226032503F560439A6912489C
:1052DC0042F480529A619A6902F480520092009AC8
:1052EC009A6942F004029A619B69029103F00403EB
:1052FC00019302A9019B03960595FBF735F8402312
:10530C0002A90548CDE903440293FBF72DF806B03A
:10531C0070BD00BF00300140000801400268094B1D
:10532C009A4200D0704703F564439A6982B042F404
:10533C0000629A619B6903F400630193019B02B0C4
:10534C00704700BF002C0140002330B50168114AA2
:10535C0087B09142CDE90233CDE9043301D007B0D7
:10536C0030BD02244FF4407503F1804303F5043340
:10537C009A6902A942F004029A619B69064803F0FB
:10538C00040301930295019B03940594FAF7ECFF37
:10539C0007B030BD002C01400008014070B500245E
:1053AC0002681C4B86B09A42CDE90244CDE9044414
:1053BC0001D006B070BD04210226032503F5E633A7
:1053CC00DA69154842F40032DA61DA6902F4003223
:1053DC000092009A9A690A439A619B6902910B4068
:1053EC00019302A9019B03960595FAF7BDFF0823CB
:1053FC0009480DEB03010293CDE90344FAF7B4FF1E
:10540C00224621462620FAF707FF2620FAF73AFF14
:10541C0006B070BD0044004000080140704700BF5A
:10542C00FEE700BFFEE700BFFEE700BFFEE700BFE0
:10543C00704700BF704700BF704700BFFAF7B6BE99
:10544C000148FBF737B900BF5C0500200148FCF7A9
:10545C00C5BD00BF5002002008B54FF48050FBF7CB
:10546C0087F84FF40050FBF783F84FF48040FBF7BC
:10547C007FF8BDE808404FF40040FBF779B800BF57
:10548C0030B44FF41F054FF000640E4B0E4A1968F0
:10549C000E4841F00101196059680A405A601A68B7
:1054AC0022F0847222F480321A601A6822F480226C
:1054BC001A605A6822F4FE025A609D60846030BC07
:1054CC00704700BF001002400000FFF800ED00E044
:1054DC0008B5002210491148FDF7FAFBC0B9104974
:1054EC000E48FDF70BFC80B90E490C48FDF7E8FBA4
:1054FC0040B90A48FDF70AFC00B908BDBDE80840F0
:10550C00FFF76CBEFFF76AFEF3E7FFF767FEEBE70A
:10551C00FFF764FEE3E700BF1C01002098020020A7
:10552C00080000200401002002680E4B9A4200D0B3
:10553C007047002203F5DA3310B5DC6982B044F40D
:10554C000004DC61DB69114603F4000301931420B1
:10555C00019BFAF761FE142002B0BDE81040FAF787
:10556C0091BE00BF005C004000F50C71D0F86802E1
:10557C00FDF7E4BB00EB4113D3F83C21D0F86802F3
:10558C00FDF70CBC00EB4113DA6BD0F86802FDF7A9
:10559C0045BC00BFD0F86802FDF7E0BC836810B5CD
:1055AC00022B044601D0FFF719FED4F86802012142
:1055BC00FDF7BCFCD4F86802BDE81040FDF78EBCCA
:1055CC0010B50446D0F86802FDF7B4FCA36923B10A
:1055DC00024A136943F00603136110BD00ED00E0AD
:1055EC00D0F86802FDF7B0BC38B504460022082597
:1055FC000221184B1848C4F8C03218601846C3F87A
:10560C006842C3E90151C3E906221A62FAF7BCFFEA
:10561C0008B1FFF7E3FD002218231146D4F8C002AD
:10562C00FBF7CAFB582300228021D4F8C002FBF7F9
:10563C00C3FB982300228121D4F8C002FBF7BCFBEA
:10564C00D4F8C002D82300220121FBF7B5FB0020BF
:10565C0038BD00BF5C050020005C004008B5D0F8E8
:10566C00C002FBF70FF8032896BF024B0220185C10
:10567C0008BD00BF185C000810B51C46D0F8C0026D
:10568C0013462246FBF798FA032896BF014B0220DB
:10569C00185C10BD185C000808B5D0F8C002FBF708
:1056AC00BDFA032896BF024B0220185C08BD00BF50
:1056BC00185C000808B5D0F8C002FBF709FB0328FA
:1056CC0096BF024B0220185C08BD00BF185C000896
:1056DC0008B5D0F8C002FBF737FB032896BF024B86
:1056EC000220185C08BD00BF185C00080A06D0F840
:1056FC00C03204D403EB411393F82A01704701F034
:10570C007F0103EB411393F82A00704708B5D0F8DA
:10571C00C002FBF73DFA032896BF024B0220185C2F
:10572C0008BD00BF185C000808B5D0F8C002FBF734
:10573C00B9FA032896BF024B0220185C08BD00BFC3
:10574C00185C000808B5D0F8C002FBF793FA0328E0
:10575C0096BF024B0220185C08BD00BF185C000805
:10576C000048704790010020704700BF704700BF91
:10577C000020704708B50C4BD3F8B8321B78022BBD
:10578C0009D0052B05D100224FF400510748FAF738
:10579C00EBFE002008BD01224FF400510348FAF73C
:1057AC00E3FE002008BD00BF98020020001001405D
:1057BC000020704730B54FF4805183B06848FAF739
:1057CC00CDFE01285DD04FF400516548FAF7C6FEB6
:1057DC000128044630D04FF480416148FAF7BEFEF0
:1057EC00012874D04FF400415D48FAF7B7FE012848
:1057FC0000F09280002401224FF400515948FAF72E
:10580C00B3FE594B0522194658485C70FDF742FA15
:10581C0021465748FDF79CFE5648FFF7E9FC3C2310
:10582C004FF6FF724121CDE900325348BE23AA2224
:10583C00FFF7A0F903B030BD142500224FF400513E
:10584C004848FAF791FE484B0522194647485D70C7
:10585C00FDF720FA214602224648FFF7D1FC3C23F3
:10586C004FF4FC627321CDE9003243482823AA226D
:10587C00FFF780F902213E4803B0BDE83040FDF748
:10588C0067BE0A25044600224FF400513548FAF74A
:10589C006BFE354B0522194634485D70FDF7FAF95D
:1058AC00022200213348FFF7ABFC3C234FF4784233
:1058BC004121CDE9003230482823AA22FFF75AF9BA
:1058CC0021462B4803B0BDE83040FDF741BE1E24F5
:1058DC0000224FF400512348FAF746FE224B0522D2
:1058EC00194622485C70FDF7D5F902222148114671
:1058FC00FFF786FC3C234FF6E072A521CDE9003280
:10590C001D482823AA22FFF735F90321184803B0B4
:10591C00BDE83040FDF71CBE282400224FF4005196
:10592C001048FAF721FE104B052219460F485C70FF
:10593C00FDF7B0F9022203210E48FFF761FC1F218D
:10594C003C222346CDE900210B48AA22D721FFF7A0
:10595C0011F90421064803B0BDE83040FDF7F8BD4D
:10596C00000C01400010014014010020980200209E
:10597C00B401002090020020B00100201223014845
:10598C000B80704738010020042301480B807047BE
:10599C004C01002010B5044C0A4604482146FDF782
:1059AC0049FD204610BD00BFC8070020485C000818
:1059BC0010B5044C0A4604482146FDF73BFD204631
:1059CC0010BD00BFC8070020545C000810B5044C83
:1059DC000A4604482146FDF72DFD204610BD00BFA8
:1059EC00C80700201C5C000810B5044C0A4604488B
:1059FC002146FDF71FFD204610BD00BFC807002043
:105A0C00305C00081A20444A444B12681B6808801A
:105A1C00D21801D14248704710B40024130FD8B2E9
:105A2C00092B40493E4B94BF303037300968987091
:105A3C00C2F303600928DC70C4B294BF303437342D
:105A4C001C710024C2F3035009285C71C4B294BFCA
:105A5C00303437349C710024C2F303400928DC71C4
:105A6C00C4B294BF303437341C720024C2F30330F8
:105A7C0009285C72C4B294BF303437349C72002451
:105A8C00C2F303200928DC72C4B294BF303437341B
:105A9C001C730024C2F30310092802F00F025C737C
:105AAC00C4B298BF3034D0B288BF3734092A94BFFF
:105ABC0030303730187400200A0F092A5874D0B2CD
:105ACC0094BF3030373098740020C1F30362092A38
