:020000040800F2
:1000000000500020AD4C00081146000815460008BD
:10001000194600081D46000821460008000000009F
:10002000000000000000000000000000254600085D
:1000300029460008000000002D460008314600084F
:10004000F54C0008F54C0008F54C0008F54C00088C
:10005000F54C0008F54C0008F54C0008F54C00087C
:10006000F54C0008F54C0008F54C0008F54C00086C
:10007000F54C0008F54C0008F54C0008F54C00085C
:10008000F54C0008F54C0008F54C0008F54C00084C
:1000900035460008F54C0008F54C0008F54C000802
:1000A000F54C0008F54C0008F54C0008F54C00082C
:1000B000F54C0008F54C0008F54C0008F54C00081C
:1000C000F54C0008F54C0008F54C0008F54C00080C
:1000D000F54C0008F54C0008F54C0008F54C0008FC
:1000E00041460008F54C0008F54C000800000000EF
:1000F0000000000000000000000000000000000000
:0C01000000000000000000005FF808F1A3
:10010C0010B5054C237833B9044B13B10448AFF345
:10011C0000800123237010BD6C0100200000000042
:10012C00404D000808B5034B1BB103490348AFF31E
:10013C00008008BD0000000070010020404D000848
:10014C0038B54FF47A730D490D4A09781268B3FB30
:10015C00F1F30546B2FBF3F000F0A2F808B90F2D4D
:10016C0001D9012038BD0446024629464FF0FF3024
:10017C0000F052F8034B20461D6038BD00000020F3
:10018C00DC00002004000020074A08B51368032097
:10019C0043F01003136000F02DF80020FFF7D0FFA0
:1001AC0004F0D4F9002008BD00200240034A044B9F
:1001BC0011681B780B441360704700BFA801002026
:1001CC0000000020014B1868704700BFA8010020F8
:1001DC0038B50446FFF7F6FF631C054602D0044B06
:1001EC001B781C44FFF7EEFF401BA042FAD338BD2E
:1001FC00000000204FF6FF01064A0002D36800F40D
:10020C00E0600B4043F0BF6343F400330343D3601F
:10021C00704700BF00ED00E0184B30B4DB68C3F34F
:10022C000223C3F10705042D03F1040428BF0425A0
:10023C00062C19D94FF0FF34033B9C4022EA0404EE
:10024C004FF0FF32AA4021EA020101FA03F22243E5
:10025C0012010028D2B20ADB00F1604000F56140C7
:10026C0080F8002330BC704700242346E8E7044B99
:10027C0000F00F0003441A7630BC704700ED00E02C
:10028C00FCEC00E0002807DB012300F01F01034A0F
:10029C008B40400942F82030704700BF00E100E07D
:1002AC000138B0F1807F0DD230B4F0250022072147
:1002BC00054B064C586084F82350104630BC9A60AD
:1002CC00196070470120704710E000E000ED00E07D
:1002DC000A68002A00F0DB802DE9F04F4FF0000A8D
:1002EC0085B05546DFF8D0C1DFF8D0E16D4FDFF8AF
:1002FC00D08103E0013532FA05F378D00123AB400D
:10030C0002EA0304A342F5D14A68122A00F09E8047
:10031C0000F28780022A00F09D807CD9032A69D0E4
:10032C00112A02D1CB6803F1040AFF2C66D881464E
:10033C000368AA000F2606FA02FB23EA0B030AFA4B
:10034C0002F21343C9F800304A68D30061D5DCF8D7
:10035C00189025F0030349F00109CCF81890DCF84B
:10036C00189003F1804309F00109CDF80C9003F5C6
:10037C00803305F00309DDF80CB04FEA8909D3F896
:10038C0008B006FA09F62BEA06067045019611D05C
:10039C00404563D0444EB0427AD0444EB0420CBF7C
:1003AC004FF0030B4FF0040B019E0BFA09F946EAD0
:1003BC00090601969E603B68D6034CBF2343A343BA
:1003CC003B607B6896034CBF2343A3437B60BB68B5
:1003DC00D6024CBF2343A343BB609202FB6815D5E6
:1003EC001C43FC600A68013532FA05F386D105B06E
:1003FC00BDE8F08FFF2C4FF0000A98D905F1804230
:10040C00083A4368920000F1040993E723EA0404D4
:10041C00FC600A686EE7A2B1012A86D1D1F80CA063
:10042C0083E7234EB2420CD020D9224EB24208D0E0
:10043C0006F58036B24204D0A6F58016B2427FF49F
:10044C0074AF8A68E2B94FF0040A6EE7CB6803F127
:10045C000C0A6AE7CB6803F1080A66E74FF0010B58
:10046C000BFA09F946EA09060196A3E7A6F58016E8
:10047C00B242E6D006F58036B2427FF456AFE0E7E2
:10048C00012A0CBF036143614FF0080A4DE7704726
:10049C004FF0020B019E0BFA09F946EA0906019688
:1004AC0088E700BF00040140001001400014014027
:1004BC000000211000003110001002400008014023
:1004CC00000C01408368194214BF012000207047C2
:1004DC0002B9090401617047044A5169014200D113
:1004EC00704708B5506104F053FA08BD0004014090
:1004FC00F0B587B0002874D090F82932044603F088
:10050C00FF02002B68D00323264684F8293220688A
:10051C0001F0D0F856F810CB6D4637460FCF0FC50B
:10052C003B68271D2B60604697E80E0001F0B0F881
:10053C00054630B10223012584F82932284607B03C
:10054C00F0BD0146206801F0BFF8D4F804C0BCF13E
:10055C00000F29D028464FF0010E2A4604EB401319
:10056C00451C83F82800D886E8B2604583F829E05A
:10057C0083F82B20C3E90E221A64EFD3002319460B
:10058C0004EB43125D1C03F10A0082F82831EBB234
:10059C004001634582F8291182F82B11C2F83811F9
:1005AC00C2F83C112150EBD30FCE6D46D4F800C0ED
:1005BC000FC5336860462B6097E80E0001F086F893
:1005CC0005460028B6D1012384F82400206884F85D
:1005DC00293201F099FCB1E780F8282204F092F856
:1005EC0091E70125284607B0F0BD00BF90F82832EE
:1005FC00012B10D0012110B5044680F8281204F00C
:10060C00A3F9206801F07EFC206801F049F8002075
:10061C0084F8280210BD0220704700BF2DE9F84F66
:10062C000446006801F072FC0104226843D41046B1
:10063C0001F06CFC460500F17181206801F066FC4C
:10064C0010F4804F206807D0B0F8443023F4804376
:10065C001B041B0CA0F8443001F058FC10F4005F94
:10066C00206807D0B0F8443023F400531B041B0C53
:10067C00A0F8443001F04AFCC50400F13181206837
:10068C0001F044FC000500F10481206801F03EFCFF
:10069C00820500F1F180206801F038FCC30508D513
:1006AC002268B2F8443023F480731B041B0CA2F8AC
:1006BC004430BDE8F88FDFF814A4DFF814B4B2F8B6
:1006CC0044301F04B3D5B2F8441089B211F00F05B1
:1006DC0057D111F01001138800F03E819BB213F436
:1006EC00006540F07A811B04E9D540F68F731188C0
:1006FC000B4043F080031380B2F8503094F828116B
:10070C0003EBC10302EB4303B3F80C34C3F309034B
:10071C00C4F844319BB1D4F83C1181B11046B4F803
:10072C002E2101F0F9FBD4F83C31D4F844212946B0
:10073C001344C4F83C31204604F00AF82268B2F89D
:10074C005030D4F838119BB202F20C40002940F022
:10075C009881C15A21F4F8410904090CC152C15ABB
:10076C006FEA41416FEA514189B2C1521188D64BAF
:10077C000B4083F4405343F4004343F08003138055
:10078C009DE732F82560B6B2310426D4330696D5EF
:10079C0032F8251004EB45130AEA010141F400413B
:1007AC0022F82510B2F8501093F82850D86B01EBB2
:1007BC00C50102EB4101B1F804141D6CC1F3090130
:1007CC0046185964DE63002D40F0EF8093F8281032
:1007DC00204603F0C5FF226871E740F68F7332F8AC
:1007EC0025106F010B4043F0800322F8253004EBF9
:1007FC00070999F8343102F58060002B00F00F8165
:10080C0099F8283132F823C002EB83011CF4804F95
:10081C00B2F850C04FEAC303634400F01B810233AB
:10082C0030F81380C8F30908B8F1000F40F05D816F
:10083C000B880BEA030343F4004343F0C0030B8023
:10084C002744D7F84421D7F83C31D7F8400142442B
:10085C004344C7F84421C7F83C31002800F0F78026
:10086C00D7F8382197F82811904580F0148120464C
:10087C0003F06EFF226889E722682046B2F8443004
:10088C0023F400731B041B0CA2F8443003F070FF1C
:10089C0001E72368B3F84020184642F00802A3F899
:1008AC004020B3F8442022F400621204120CA3F886
:1008BC004420B3F8402042F00402A3F8402001F099
:1008CC0025FBC10408D52268B2F8443023F48053C8
:1008DC001B041B0CA2F84430204603F05FFFD4E647
:1008EC0022682046B2F8403023F004031B041B0C92
:1008FC00A2F84030B2F8403023F008031B041B0C64
:10090C00A2F8403003F05AFF2068B0F8443023F4CA
:10091C0080531B041B0CA0F84430B1E6226820461F
:10092C00B2F8443023F480631B041B0CA2F844304F
:10093C0003F022FF94F82832012B3FF47EAE002501
:10094C00012384F8245084F828322946206801F0C9
:10095C00D3FA84F8285270E60AEA030343F40043FE
:10096C001380B2F8503094F82800E56B03EBC00309
:10097C0002EB4302B2F804342046C3F309031D44CE
:10098C006364E56303F0ECFE94F824301BB3236C32
:10099C002268002B7FF493AE94F8241041F0800170
:1009AC00A2F84C1084F8243089E64FF0000C012793
:1009BC0093F82830104603F00702510163182831D0
:1009CC0083F82820C3E90F652144C3F844C083F899
:1009DC00297001F0F3F8226871E6B2F8503094F8FF
:1009EC002811104603EBC10302EB4302B2F80C349E
:1009FC0004F50C71C3F30903B4F82E21C4F8443187
:100A0C0001F08AFA40F68F732268204611880B4059
:100A1C0043F08003138003F095FE22684FE6B2F892
:100A2C00503099F82811063303EBC10330F81380CA
:100A3C00C8F30908B8F1000F3FF402AF1046434663
:100A4C00B9F82E21D9F83C1101F066FAF8E697F8BE
:100A5C0028110CE7063330F81380C8F30908B8F1F5
:100A6C00000F3FF4E5AE43461046B9F83221D9F8F1
:100A7C003C1101F051FA99F82831216801EB8301FE
:100A8C00D6E63E2926D84D08CF0748BF0135AD0222
:100A9C00ADB2C5526AE64FF0000C01F007014F01F0
:100AAC00E21907F5947782F82811C2F84001C2F8D0
:100ABC003C31C2F844C182F829C1E119206801F027
:100ACC007DF8226862E600BF8FBFFFFF0F8FFFFF2C
:100ADC008F8FFFFF4D09CE06064908BF05F1FF3584
:100AEC0041EA8525ADB2C55240E610464346B9F8F9
:100AFC003021BCE70080FFFF90F82822012A0DD09E
:100B0C0010B50446012284F8241080F828220068CD
:100B1C0001F0F2F9002084F8280210BD0220704781
:100B2C00F8B501F0070509064FEA45141FD4002754
:100B3C00061904F5947186F8297101444C780D70EE
:100B4C000A61CB7004B1CD81022B04BF00230B7161
:100B5C0090F82832012B12D00123044680F8283259
:100B6C00006800F0CDFD002084F82802F8BD0127B4
:100B7C00061904F1280186F829700144DEE70220E9
:100B8C00F8BD00BF01F00702090610B54FEA421389
:100B9C0016D40024C11803F5947381F82941C118A7
:100BAC000A7090F82832012B15D00123044680F8E6
:100BBC002832006800F02CFF002084F8280210BDB9
:100BCC000124C118283381F82940C1180A7090F803
:100BDC002832012BE9D1022010BD00BF70B50026D0
:100BEC0001F007014D01441905F5947584F828119D
:100BFC00C4F83C214119C4F840310068C4F8446180
:100C0C0084F8296100F0DAFF304670BDF8B5002693
:100C1C00012701F007014D014419283584F82810EB
:100C2C00C4E90F234119006884F82970666400F048
:100C3C00C5FF3046F8BD00BF38B5436801F0070565
:100C4C009D421BD80B061BD400244901431883F882
:100C5C002941012301F5947281180D708B7090F865
:100C6C0028229A421BD0044680F82832006801F0F2
:100C7C00CDF8B5B1002084F8280238BD012038BD6C
:100C8C0001226B0103F12801034483F8292001237D
:100C9C0001440D708B7090F828229A42E3D1022007
:100CAC0038BD04F50C71206801F034F9E2E700BF9F
:100CBC0038B5436801F00F029A421ED801F00702C2
:100CCC0009064FEA42131AD40025C41884F8295196
:100CDC00002503F5947101440A708D7090F8283248
:100CEC00012B1AD00123044680F82832006801F049
:100CFC00AFF884F82852284638BD012038BD0125AC
:100D0C00C41884F82950002503F1280101440A7005
:100D1C008D7090F82832012BE4D1022038BD00BF31
:100D2C0011F0800F0DD001F0070100EB41102830BD
:100D3C0099B26AB101221B0C43810181027300201C
:100D4C00704700EB411000F5947099B2002AF1D174
:100D5C00C180027300207047002800F055812DE9F6
:100D6C00F041036882B0DD07044635D5A8494A68CE
:100D7C0002F00C02042A00F005814A6802F00C0211
:100D8C00082A00F0FB806368B3F5803F10D0002B7D
:100D9C0000F02081B3F5A02F00F078819C4B1A68ED
:100DAC0022F480321A601A6822F480221A6004E05D
:100DBC00974A136843F480331360FFF703FA944D9A
:100DCC00064605E0FFF7FEF9801B642800F2F5806B
:100DDC002B689A03F6D523689F074DD41A0722D5A2
:100DEC00A369002B00F0BA8001228A4B884D1A604F
:100DFC00FFF7E8F9064605E0FFF7E4F9801B022847
:100E0C0000F2DB806B6A9B07F6D5834B834A1B6829
:100E1C00A2FB03235B0A019300BF019B5A1E0192A4
:100E2C00002BF9D123685D0769D5794BDA69D000BD
:100E3C0000F1EC800125DA6942F08052DA61DB695D
:100E4C0003F080530093009B754B1A68D10540F159
:100E5C00A380E368012B37D0002B00F0E780052B33
:100E6C006B4B1A6A00F01F8122F001021A621A6A97
:100E7C0022F004021A622CE0654A516811F00C0F42
:100E8C0061D0516801F00C01082959D02369002B5D
:100E9C0000F0EB800122634B5D4D1A60FFF792F975
:100EAC00064605E0FFF78EF9801B022800F28580CC
:100EBC002B689807F6D52B68626923F0F80343EA90
:100ECC00C2032B60236889E7514A136A43F001037C
:100EDC001362FFF777F94E4E804641F2883705E0F2
:100EEC00FFF770F9A0EB0800B84266D8336A9B078D
:100EFC00F6D525B1464AD36923F08053D361E06916
:100F0C00D0B1434D6A6802F00C02082A00F0D3807D
:100F1C0002284FF00001444A00F0DE801160FFF718
:100F2C0051F92C46054604E0FFF74CF9401B02280A
:100F3C0043D823689B01F7D4002002B0BDE8F081B0
:100F4C005268D603A2D4324A1268950739D5226961
:100F5C00012A36D0012002B0BDE8F0812D4A2C4D7B
:100F6C001360FFF72FF9064604E0FFF72BF9801BFF
:100F7C00022822D86B6A9F07F7D453E74A68D0033C
:100F8C007FF501AF224A126891037FF525AF6268A5
:100F9C00002A7FF421AFDDE71A681E4642F4807206
:100FAC001A60FFF70FF907463368DA053FF551AFC2
:100FBC00FFF708F9C01B6428F6D9032002B0BDE87E
:100FCC00F081134960690A6822F0F80242EAC00213
:100FDC000A6003E703F1804303F504331A681D46E6
:100FEC0022F480321A601A6822F480221A60FFF709
:100FFC00E9F8064604E0FFF7E5F8801B6428DCD826
:10100C002B689B03F7D4E6E60120704700251BE70D
:10101C000010024080044242DC000020D34D6210DC
:10102C0000700040000042426000424203F18043E5
:10103C0003F504331A6A1E4622F001021A621A6A78
:10104C0041F2883822F004021A62FFF7BBF8074617
:10105C0004E0FFF7B7F8C01B4045AED8336A9807D9
:10106C00F7D4002D3FF44BAF44E7344A344D1360B2
:10107C00FFF7A8F8064604E0FFF7A4F8801B022847
:10108C009BD82B689907F7D42368A7E603F1804314
:10109C00A3F53C331A6842F480221A601A6842F4B1
:1010AC0080321A6089E642F004021A621A6A42F02F
:1010BC0001021A620DE701283FF44DAF6B68226AFA
:1010CC0003F4803191427FF445AF606A03F47013EE
:1010DC00181A18BF01203EE71160FFF773F8064697
:1010EC0005E0FFF76FF8801B02283FF666AF2B6810
:1010FC009901F6D4226AB2F5803F05D16B68A168DC
:10110C0023F400330B436B6001250D4B606A596867
:10111C00024321F474110B480A435A6005601C46C3
:10112C00FFF750F8054605E0FFF74CF8401B022886
:10113C003FF643AF23689A01F6D5FDE60000424224
:10114C00001002406000424278B15D4A136803F01F
:10115C0007038B420BD2136823F007030B43136076
:10116C00136803F007038B4201D0012070472DE96F
:10117C00F041036886B09D0714D55C0704D5514C2B
:10118C00626842F4E06262601A0704D54D4C6268F2
:10119C0042F4605262604B4C8568626822F0F00247
:1011AC002A436260DB0704460D4620D54268454B56
:1011BC00012A1B686FD0022A7ED0980727D5414E92
:1011CC0041F28838736823F0030313437360FEF70E
:1011DC00F9FF074604E0FEF7F5FFC01B404569D850
:1011EC007368626803F00C03B3EB820FF3D1344ADB
:1011FC00136803F00703AB420DD9136823F0070300
:10120C002B431360136803F00703AB4203D0012098
:10121C0006B0BDE8F0812368590706D52949E06876
:10122C004A6822F4E06202434A601A0707D5254A4D
:10123C002169536823F4605343EAC103536040F2BD
:10124C000122214B06ACADF804200FCB04E90F00B2
:10125C001C494A6802F00C03082B1AD1C2F38343D1
:10126C00234413F8100CD30318D4184B03FB00F3CE
:10127C00144A174852681749C2F30312805C164A85
:10128C00C34008681360FEF75BFF002006B0BDE8A2
:10129C00F081124BECE79F0391D4B8E74A680F4BEF
:1012AC00C2F3404203FB00F3224412F8142CB3FBAC
:1012BC00F2F3DDE70320ABE79E0180D4A7E700BF84
:1012CC000020024000100240584D000800093D006B
:1012DC00684D000804000020DC00002000127A0099
:1012EC002DE9F0410446006882B0C5072AD53A4B77
:1012FC00DA69D1003DD5394B00251A68D20546D59F
:10130C00354960680A6A12F440720FD000F44073D9
:10131C0093420BD0012700260B6A314A23F440700C
:10132C00176016600862D80745D460682A4A136AA9
:10133C0023F44073034313621DB1D36923F080532C
:10134C00D3612068830706D5234AA168536823F428
:10135C0040430B43536010F0100007D000201E4A8E
:10136C00E168536823F480030B43536002B0BDE87B
:10137C00F081DA69012542F08052DA61DB6903F011
:10138C0080530193019B154B1A68D205B8D41A6887
:10139C001E4642F480721A60FEF714FF074633684B
:1013AC00DB05ADD4FEF70EFFC01B6428F7D9032074
:1013BC0002B0BDE8F0810E46FEF704FF41F288371B
:1013CC008046336A9A07B0D4FEF7FCFEA0EB080007
:1013DC00B842F6D9EBE700BF0010024000700040A5
:1013EC004004424200283BD0F8B5002390F851103D
:1013FC000446836201F0FF0261B31A46D4E9013658
:10140C00022700210125E068334326690343606904
:10141C003343E669D4F818C00343206A3343266883
:10142C0084F8517003430CF40070034330684FEAA6
:10143C001C4C134320F040000CF00402306033606D
:10144C007260F369084623F40063F361616584F804
:10145C005150F8BD80F8502003F09AF8A26ACDE7FD
:10146C00012070472DE9F04190F8504082B0012CDA
:10147C005ED01F46012380F85030044616460D46B8
:10148C00FEF7A0FE804694F85100C0B2012809D0A6
:10149C0002200122002384F8512084F8503002B03D
:1014AC00BDE8F081002DF4D0002EF2D000230321F2
:1014BC00A26884F85110B2F5004F63652563E68687
:1014CC00A686A363A387C4E91033E387206803D1FE
:1014DC00036843F48043036003685B062CD5E36820
:1014EC006268B3F5006F45D0002A6ED12B78037378
:1014FC00E38E226B013B9BB201322068E3862263B0
:10150C007E1C0BD028E0236B1B780373E38E226BBD
:10151C00013B9BB20132E38622632068E38E9BB2CF
:10152C00002B40D083689D07EDD4FEF74BFEF4E70B
:10153C00022002B0BDE8F081036843F04003036071
:10154C00CDE7236B1B780373E38E226B013B9BB2BD
:10155C000132E38622632068E38E9BB21BB383685F
:10156C009B07EED4FEF72EFEA0EB0800B842F2D398
:10157C0003208EE7002A76D0012E74D0791C59D125
:10158C00E38E9BB27BB183689A0768D5226B32F8E5
:10159C00023BC360E38E2263013B9BB2E386E38E86
:1015AC009BB2002BEFD1791C12D183681A06FCD4A4
:1015BC00A3682BB90193C368019383680193019BC2
:1015CC00606D003018BF012063E7012E98D18DE7C4
:1015DC0083681B06ECD5FEF7F5FDA0EB08008742EF
:1015EC002068E0D861684268B1F5827F22F0E002A1
:1015FC00A368426040D0A26AB2F5005F07D10268CE
:10160C0022F400520260026842F40052026001228D
:10161C002021002584F85120626D84F850500A4333
:10162C0062656165C5E7FEF7CDFDA0EB0800B84229
:10163C009ED22068E38E9BB2002BB4D083689D07AA
:10164C00F1D5226B32F8023BC360E38E2263013B7F
:10165C009BB2E386E38E9BB2002BEFD1A3E7FEF7A0
:10166C00B1FD20688CE735F8023BC360E38E25633F
:10167C00013B9BB2E38681E7B3F5004F02D0B3F593
:10168C00806FB8D1026822F040020260B3E700BF5D
:10169C0084B001A880E80E0004B00020704700BFA1
:1016AC000246B0F84030002043F43F43A2F84030EB
:1016BC00704700BF44F2FF030246B0F84010002010
:1016CC000B40A2F8403070470020704784B070B4D3
:1016DC00044601250020A4F84050A4F84000A4F8CA
:1016EC004400A4F85000B4F8406004AD46F43F4602
:1016FC00A4F8406085E80E0070BC04B0704700BFD1
:10170C0070B40D78034630F82540BC4AC8782240A6
:10171C00032800F24281DFE800F04E46024A002026
:10172C0048F28004224323F825200D78B44E33F878
:10173C0025202C433240224323F825200A7B002A03
:10174C003DD1CC880A784D786408640003EB021212
:10175C00002D00F0E880B3F850502A44A2F8004461
:10176C000A7833F8225003EB82046D060BD533F85C
:10177C002240264046F4004646F0C00623F822607C
:10178C000C7803EB8404CB78012B00F020812288A9
:10179C009C4B134083F0200343F4004343F080033D
:1017AC00238070BC704742F480620020B8E742F49A
:1017BC00C0620020B4E742F400720020B0E70C785D
:1017CC0033F82420324042F4014242F0800223F8E4
:1017DC0024200A780C89B3F8505003EB02126408E9
:1017EC0002F580626400ADB254530A784C89B3F8A8
:1017FC00505003EB0212640802F581626400ADB232
:10180C0054534A78002A42D10A7833F8225003EB19
:10181C0082046D040BD533F82240264046F4404632
:10182C0046F0800623F822600C7803EB84042288AF
:10183C0056060CD5228822F0F0021205120D42F445
:10184C00004242F0C00222800C7803EB840448F280
:10185C00800622886C4D22F0F0021205120D42F423
:10186C00004242F0C00222800C7833F824202A4037
:10187C0082F44052324323F824200978614A33F829
:10188C0021402240324323F8212070BC70470A7853
:10189C0033F8225003EB82046D040BD533F822404D
:1018AC00264046F4404646F0800623F822600C7829
:1018BC0003EB8404228852060CD5228822F0F00215
:1018CC001205120D42F4004242F0C00222800C7844
:1018DC0003EB8404228822F0F0021205120D42F46C
:1018EC00404242F080022280CA780C78012A61D0F2
:1018FC0033F82450434A2A4082F0200242F400423A
:10190C0042F0800223F82420097870BC33F821209F
:10191C0022F0F0029204920C42F4004242F0800257
:10192C0023F821207047B3F850600D693244A2F8B7
:10193C0008440A78B3F8504003EB021202F20C424E
:10194C00A4B265B33E2D4DD86E08ED0748BF0136E5
:10195C00B602B6B216530C7833F8245003EB84025B
:10196C006E040ED533F8242022F0F0021205120D6D
:10197C0042F4404242F0800223F824200A7803EB20
:10198C0082021188204B70BC0B4083F4405343F40B
:10199C00004343F08003138070470120C0E6155BC1
:1019AC0025F4F8452D042D0C1553155B45F4004515
:1019BC001553D0E733F8242022F0C0021205120D83
:1019CC0042F4004242F0800223F824209CE7238852
:1019DC0023F0C0031B051B0D43F4004343F08003AD
:1019EC00238052E76E09ED06084D08BF06F1FF365D
:1019FC0045EA8625ADB21553ADE700BF8F89FFFFD1
:101A0C008F8FFFFFBF8FFFFF8FBFFFFF0080FFFF98
:101A1C0030B40A780D7B00EB82034C7815BB002C9C
:101A2C0000F0998030F8224064060ED530F8223050
:101A3C0023F0F0031B051B0D43F4004343F0C003DC
:101A4C0020F822300B7800EB83031A88002030BC7E
:101A5C0022F0C0021205120D42F4004242F0800244
:101A6C001A807047002C41D130F8224064040ED506
:101A7C0030F8223023F0F0031B051B0D43F44043D8
:101A8C0043F0800320F822300B7800EB83031A8894
:101A9C0055060CD51A8822F0F0021205120D42F4EC
:101AAC00004242F0C0021A800B7800EB830348F22C
:101ABC0080051A883F4C22F0F0021205120D42F4F8
:101ACC00004242F0C0021A800A7830F822302340DB
:101ADC002B4320F822300A78374B30F822100B4079
:101AEC001D4320F82250002030BC704730F82240B3
:101AFC0064040ED530F8223023F0F0031B051B0DC7
:101B0C0043F4404343F0800320F822300B7800EB81
:101B1C0083031A8852063ED448F280051A88264C54
:101B2C0022F0F0021205120D42F4404242F0800203
:101B3C001A800A7830F8223023402B4320F82230C8
:101B4C000A781C4B30F822100B401D4320F8225011
:101B5C00002030BC704730F8224065040ED530F8B8
:101B6C00223023F0F0031B051B0D43F4404343F0DC
:101B7C00800320F822300B7800EB83031A880020B6
:101B8C0030BC22F0F0029204920C42F4004242F07B
:101B9C0080021A8070471A8822F0F0021205120D8A
:101BAC0042F4004242F0C0021A800B7800EB83032F
:101BBC00B2E700BF8FBFFFFFBF8FFFFFF0B44C78C1
:101BCC008B69012C0A695AD0934298BF00260D7B71
:101BDC0088BF9E1A8E6188BF13460A7815BBB0F871
:101BEC00505000F20C4412012C44002B00F0A88041
:101BFC003E2B00F2C9805D08DB0748BF0135AD0202
:101C0C00ADB2A5520A7830F822107D4BF0BC0B40D7
:101C1C0083F4405343F4004343F0800320F8223014
:101C2C0000207047002CEED1B0F8505000F2044464
:101C3C0012012C44002B40F0B380A55A714E25F4B0
:101C4C00F8452D042D0CA552A55A45F40045A55276
:101C5C004C78002C40F0AF80B0F850300A7800F28D
:101C6C000C4412011C44A35A23F4F8431B041B0C10
:101C7C00A352A35A33439BB2A3520A78C3E79342AD
:101C8C0086BF9C1A134600249AB20D7B013256086B
:101C9C008C619BB24A6900F580676DB30D7830F8A2
:101CAC0025402D016406B0F850C055D500F20C4407
:101CBC00644463534C8907EB44043EB102EB460386
:101CCC0032F8025B934224F8045BF9D10C784B7820
:101CDC0000EB8402002B45D130F8243023F0F003C4
:101CEC001B051B0D43F4004343F0C00320F82430C4
:101CFC000A7800EB820216E0CC8807EB44043EB174
:101D0C0004EB860632F8025B24F8045BA642F9D198
:101D1C00B0F850500C7800F204422A442401A3522B
:101D2C000A7800EB82021188374B0020F0BC0B4084
:101D3C0083F0300343F4004343F080031380704777
:101D4C00A35A23F4F8431B041B0CA352A35A43F4C9
:101D5C000043A3520A7856E700F2044464446353E8
:101D6C000C89A8E7012BDED130F8243023F0F003E6
:101D7C001B051B0D43F4404343F0800320F8243033
:101D8C000A7800EB8202CEE75D09DF061D4B08BF27
:101D9C0005F1FF3543EA85239BB2A3520A7832E75B
:101DAC003E2B16D85D08DE0748BF0135AD02ADB23B
:101DBC00A5524C78D4B1012C0A787FF424AFB0F83A
:101DCC00505000F20C4412019BB22C44A3520A78DE
:101DDC0019E75E09DD060B4D08BF06F1FF3645EA33
:101DEC008625ADB2A5524C78002CE4D1B0F8504009
:101DFC000B7800F20C4222441B01D5520A7802E700
:101E0C008FBFFFFF0080FFFFBF8FFFFF4B780A786B
:101E1C0030F822105BB90C4B0B4083F4805343F425
:101E2C00004343F0800320F8223000207047074B1A
:101E3C000B4083F0100343F4004343F0800320F87D
:101E4C0022300020704700BF8FBFFFFFBF8FFFFF06
:101E5C000B7B002B39D110B40B784C7800EB830240
:101E6C0014B330F8232052060BD530F8232022F07F
:101E7C00F0021205120D42F4004242F0C00220F8AA
:101E8C002320CB78012B1DD00A78194B30F8221067
:101E9C0010BC0B4083F0200343F4004343F0800359
:101EAC0020F822300020704730F8234064040ED410
:101EBC001188104B0B4083F4405343F4004343F020
:101ECC0080031380002010BC70470020704730F84E
:101EDC00232022F0F0021205120D42F4404242F08F
:101EEC00800220F823200A7800EB8202E0E700BF92
:101EFC00BF8FFFFF8FBFFFFF11B98023A0F84C30BD
:101F0C00002070470020704700207047B0F8440054
:101F1C00704700BF0020704700EB4202580802F5E2
:101F2C0080621AD0F0B4174606468D1C37F8044B65
:101F3C00013EA4B24FEA142C05F8024C05F801CC72
:101F4C0005F10205F2D1F0BC01EB400102EB80027D
:101F5C00D80744BF13880B707047DB0744BF138846
:101F6C000B70704729230380004870474000002005
:101F7C0029230380004870476C000020292303802C
:101F8C0000487047B00000200023D0F8B822184653
:101F9C001375704710B5D0F8B8422369012B07D1DF
:101FAC00D0F8BC326178DB68207898470023236135
:101FBC00002010BD0A23038000487047A4000020B5
:101FCC0038B50446D0F8B852D0F8BC3269782878C5
:101FDC00DB6898472A4620460423012102F0A0FC26
:101FEC00002038BD002210B50B7882B013F06003CE
:101FFC00D0F8B842ADF8062022D0202B04D000F047
:10200C009BFC022002B010BD4B78023B092BF6D88A
:10201C0001A252F823F000BF07210008FB200008A2
:10202C000B2000080B2000080B2000080B200008D8
:10203C000B200008EB200008E1200008D920000844
:10204C004B780B2BDBD801A252F823F0C3200008ED
:10205C000B2000080B2000080B2000080B200008A8
:10206C000B200008A92000080B2000080B200008FA
:10207C000B200008992000088920000890F89C3259
:10208C00032BBCD18B780020E360BBE790F89C322B
:10209C00032BB4D104F10C01012207E04B881B0A7D
:1020AC00222B31D0212B37D000210A4600F076FCB0
:1020BC00002002B010BD90F89C32032B9FD102225D
:1020CC000DF1060100F06AFC00209BE78B780020E4
:1020DC00636097E74B8800201B0AA36092E70123FB
:1020EC00CA882361214600F06FFC00208AE7211D7D
:1020FC00012200F053FC002084E704F108010122C6
:10210C0000F04CFC00207DE7CA88D0F8BC32222AB3
:10211C0028BF22221968C9E7CA880249092A28BFA0
:10212C000922C3E79800002038B504460025812118
:10213C0002F0A0FBE5622046012102F09BFBD4F8E3
:10214C00B832C4F86C514BB1D4F8BC329B68984788
:10215C00D4F8B80202F0F6FBC4F8B852002038BD2F
:10216C00F8B50446012502230322812102F072FBFB
:10217C00294602230322E562204602F06BFBC4F8D9
:10218C006C51182002F0DAFBC4F8B80270B10027C9
:10219C000646D4F8BC3207755B6898473246294628
:1021AC002046042302F0BCFB3846F8BD2846F8BD97
:1021BC0038B590F89C52032D01D0002038BDD0F8D2
:1021CC00B8522C7D0CB1012038BD13460A460121B2
:1021DC002975812102F096FB204638BD19B1C0F853
:1021EC00BC12002070470220704700BF88B108B5B0
:1021FC00D0F8B43213B10023C0F8B43209B1C0F82E
:10220C00B0120123027080F89C3202F0DBFA00203D
:10221C0008BD0220704700BF19B1C0F8B4120020ED
:10222C0070470220704700BF08B502F005FB002084
:10223C0008BD00BF08B5D0F8B4321BB11B68984775
:10224C0000B908BD022008BD08B5D0F8B4325B68EF
:10225C009847002008BD00BF38B5044600F52A7524
:10226C00284600F055FB012094F8A812B4F8AE22D1
:10227C0001F01F038342C4F89402C4F8982215D0CD
:10228C000ED3022B06D001F08001204602F000FB99
:10229C00002038BD2946204600F0A4FA002038BDA5
:1022AC002946204600F0F6F8002038BD2946204685
:1022BC0000F06CFA002038BD70B5054641B9D0F875
:1022CC009432032B0FD0052B0C462ED0002070BD62
:1022DC00D0F8B4329B69C3B190F89C22032A14D174
:1022EC009847002070BD1646D0F86031D0F86421B4
:1022FC0093420CD99B1A9A42C0F860318CBF9AB2A7
:10230C0092B2314600F070FBE0E7022070BDD0F8CD
:10231C00B4321B6923B190F89C22032A00D1984750
:10232C00284600F069FB002070BDC5F8941202F03D
:10233C00AFFA204670BD00BF70B5044681B9134694
:10234C00D0F89422022A19D032F0040302D1802151
:10235C0002F09EFA94F8A0320020012B0BD070BD35
:10236C00D0F8B4325B6963B390F89C22032A28D16D
:10237C009847002070BD84F8A00270BDD0E90862B7
:10238C00964220D8C369B3FBF2F502FB15350DB9A3
:10239C009A4226D9D4F8B432DB682BB194F89C223B
:1023AC00032A01D1204698478021204602F070FA7A
:1023BC00204600F02DFB94F8A0320020012BCED14A
:1023CC00D9E7022070BDB21A0D460262194692B2CC
:1023DC0000F0F2FA2B462A462946204602F0A0FAD3
:1023EC00B8E7D0F898229342D4D22A4600F0E4FA07
:1023FC00C4F89852EEE700BF70B5002240260446A0
:10240C0001251146334602F025FA33468021C4F8E3
:10241C005851C4F864612046002202F01BFA0021D6
:10242C00D4F8B832A561666284F89C52C4F8941250
:10243C006160C4F8A41223B1D4F8B43220465B68AE
:10244C009847002070BD00BF01740020704700BF8A
:10245C000346042290F89C12002083F89D1283F806
:10246C009C22704790F89C32042B04BF90F89D324C
:10247C0080F89C320020704790F89C22032A01D0EF
:10248C000020704708B5D0F8B432DB6903B1984727
:10249C00002008BD30B50B7883B003F06003202B0F
:1024AC000D46044628D0402B26D053B1802120461F
:1024BC0002F0EEF92046002102F0EAF9002003B008
:1024CC0030BD4B78092BF1D801A252F823F000BF94
:1024DC005925000883250008B92400089F25000809
:1024EC00B9240008AB250008E7250008B92400082A
:1024FC001D26000817250008D4F8B43229469B681D
:10250C0020469847002003B030BD89789E4D0129A4
:10251C002970CBD890F89C32022B00F00B81032B46
:10252C0040F0FC80002900F025814168012909D088
:10253C00C9B2FFF789FE297820466160FFF77AFE61
:10254C000228B3D0204600F057FAB7E790F89C3237
:10255C00013B022BAAD8CB88022BA7D10021D0F8A3
:10256C00A422C16002B1C360022204F10C01204616
:10257C0000F014FAA2E790F89C32013B022B95D89C
:10258C004B88012B9AD10023C0F8A43200F034FA06
:10259C0094E74B88012B91D1C0F8A432D2E78B88F9
:1025AC00002B83D1CB88002B80D14D887F2D3FF61B
:1025BC007DAF90F89C32032B3FF478AFE9B280F8F2
:1025CC009E1202F091F9204600F016FA002D00F050
:1025DC00CD80022384F89C3270E700234A88ADF842
:1025EC000630130A013B062B3FF660AF01A151F8F0
:1025FC0023F000BFB52600089D260008C52600085C
:10260C00B9240008B92400088726000843260008CE
:10261C00CA88012A7FF44AAF90F89C32002B3FF411
:10262C0045AF022B40F29480032B7FF43FAF011D8A
:10263C0000F0B4F942E7037C002B7FF437AFD0F8FD
:10264C00B4320DF106001B6B984707234370BDF89D
:10265C000630EA886BB1002A3FF474AF934228BF6E
:10266C00134601461A462046ADF8063000F096F99E
:10267C00EA88002A7FF422AF64E7037C002B7FF406
:10268C0015AFD0F8B4320DF106005B6B9847DEE75E
:10269C00027CD0F8B432002A61D19B6A0DF106009D
:1026AC00984702234370D2E7D0F8B0320DF10601FF
:1026BC001B68007C9847CAE7D2B2052A3FF6F6AEF3
:1026CC00DFE802F026201A140E03D0F8B0329B6912
:1026DC00002B3FF4EBAE0DF10601207C9847B6E7DA
:1026EC00D0F8B0325B69002BF5D1DFE6D0F8B03210
:1026FC001B69002BEFD1D9E6D0F8B032DB68002B88
:10270C00E9D1D3E6D0F8B0329B68002BE3D1CDE60B
:10271C00D0F8B0325B68002BDDD1C7E6802102F027
:10272C00B7F80021204602F0B3F829782046FFF7CD
:10273C008BFDC3E600293FF405AF01210323416063
:10274C0080F89C32FFF776FD02287FF4FBAEADE6F5
:10275C000023014641F8083F00F020F9AEE6DB6AA1
:10276C000DF1060098470223437070E7012384F8AB
:10277C009C32A3E60223416080F89C32FFF764FD93
:10278C00204600F039F999E68801002038B50B781D
:10279C000D4603F06003202B04460CD0402B0AD0CE
:1027AC004BB18021204602F073F82046002102F044
:1027BC006FF8002038BD94F89C32013B022BF0D806
:1027CC002B79012BEDD8D4F8B43229469B682046DE
:1027DC009847EB88002BECD10028EAD1204600F07A
:1027EC000BF9E6E770B50B78044603F06003202B79
:1027FC000CD0402B0AD083B18021204602F048F83F
:10280C002046002102F044F8002070BDD4F8B43208
:10281C0020469B689847002070BD4B788A88012B16
:10282C00D5B23ED014D3032BE6D190F89C32022BB8
:10283C0046D0032BE0D14B8833B96A0604D0CB8841
:10284C0013B9294602F024F8204600F0D5F8DBE74E
:10285C0090F89C32022B3DD0032BCDD105F00F0309
:10286C0003EB8303120600EB830342D4D3F85831F5
:10287C00002BC1D005F07F0303EB830600EB86062B
:10288C0006F5AA7633B12946204602F01DF8002839
:10289C003BD00123336031462046022200F07EF803
:1028AC00B2E790F89C32022B0AD0032BA4D14B88B0
:1028BC00002BA9D16E06C7D0294601F0F7FFC3E75C
:1028CC006B0699D0294601F0E3FF2046802101F0E8
:1028DC00DFFF99E768068FD1002311064CBF04F186
:1028EC00140104F5AA7120460B60022200F056F880
:1028FC008AE79B69002B3FF47FAF05F07F035E1CDA
:10290C0006EB860600EB8606BCE73060C3E700BF2B
:10291C000B7803704B784370CA788B7803EB0223E7
:10292C0043804A790B7903EB02238380CA798B7934
:10293C0003EB0223C380704710B50446802101F0DD
:10294C00A7FF2046BDE81040002101F0A1BF00BF49
:10295C0000B3037830B4F3B10446002314F8015FDC
:10296C000133DBB2002DF9D15B0002330324138059
:10297C000B704C7004785CB1022300255A1CD2B247
:10298C00CC548D5410F8014F0233DBB2002CF5D12E
:10299C0030BC704770470223E8E700BF38B51346D8
:1029AC0002250A46C0E90733C0F89452002101F011
:1029BC00A9FF002038BD00BF08B513460A46002108
:1029CC0001F0A0FF002008BD38B5134603250A46C8
:1029DC00C0F85C31C0F86031C0F89452002101F0AD
:1029EC009FFF002038BD00BF08B513460A460021E2
:1029FC0001F096FF002008BD08B504220023C0F8A2
:102A0C00942219461A4601F07DFF002008BD00BF34
:102A1C0008B505220023C0F8942219461A4601F085
:102A2C007FFF002008BD00BF002801F03A812DE98E
:102A3C00F04F4FF00108D54B99B00360414600228E
:102A4C00D348FDF745FD41460022D248FDF740FD35
:102A5C0042460221CF48FDF73BFD18AC0022102165
:102A6C00CC4804F8018DFDF733FD41460022C948DE
:102A7C00FDF72EFD434642462146C748FEF7F2FCC1
:102A8C0042464146C348FDF723FD4FF47A70FDF7EB
:102A9C009FFBEF2318AD03272C4600221021BD48C5
:102AAC0005F8023DFDF714FD41460022B948FDF73B
:102ABC000FFD434642462946B748FEF7D3FC424633
:102ACC004146B448FDF704FD42461021B14804F8D4
:102ADC00037DFDF7FDFC41460022AE48FDF7F8FCF6
:102AEC00434642462146AC48FEF7BCFC42464146B2
:102AFC00A848FDF7EDFC802318AD2C464FF00209D9
:102B0C0042461021A34805F8043DFDF7E1FC41467F
:102B1C000022A048FDF7DCFC4346424629469E486D
:102B2C00FEF7A0FC424641469A48FDF7D1FC4246CE
:102B3C001021984804F8059DFDF7CAFC4146002277
:102B4C009448FDF7C5FC4346424621469248FEF7A1
:102B5C0089FC424641468F48FDF7BAFCCA2318ACA3
:102B6C00002210218B4804F8063DFDF7B1FC4146CC
:102B7C0000228848FDF7ACFC434642462146864875
:102B8C00FEF770FC424641468248FDF7A1FCC32388
:102B9C0018AD08262C46424610217E4805F8073D04
:102BAC00FDF796FC414600227A48FDF791FC43461E
:102BBC00424629467848FEF755FC42464146754840
:102BCC00FDF786FC42461021724804F8086DFDF7AB
:102BDC007FFC414600226F48FDF77AFC4346424693
:102BEC0021466D48FEF73EFC424641466948FDF7DA
:102BFC006FFC502318AC42461021664804F8093D7E
:102C0C00FDF766FC414600226248FDF761FC434635
:102C1C00424621466048FEF725FC424641465D4847
:102C2C00FDF756FCCB2318AC00221021594804F8B0
:102C3C000A3DFDF74DFC414600225648FDF748FC85
:102C4C004346424621465448FEF70CFC4246414658
:102C5C005048FDF73DFC392318AC424610214D4835
:102C6C0004F80B3DFDF734FC414600224948FDF7C2
:102C7C002FFC4346424621464748FEF7F3FB4246AB
:102C8C00414644480024FDF723FC2C230DF1600A37
:102C9C005546424610213F480AF80C3DFDF718FCFA
:102CAC00414622463B48FDF713FC434642465146FB
:102CBC003948FEF7D7FB424641463648FDF708FC3B
:102CCC0042461021334805F80D4DFDF701FC224614
:102CDC0041463048FDF7FCFB4346424629462E4808
:102CEC00FEF7C0FB424641462A48FDF7F1FB342370
:102CFC0018AD42461021274805F80E3DFDF7E8FBBC
:102D0C00224641462348FDF7E3FB4346424629460B
:102D1C002148FEF7A7FB424641461E48FDF7D8FB6B
:102D2C0018AD424610211B4805F80F9DFDF7D0FB4E
:102D3C00224641461748FDF7CBFB434642462946FF
:102D4C001548FEF78FFB424641461248FDF7C0FB83
:102D5C00CF2318AD224610210E4805F8103DFDF783
:102D6C00B7FB224641460B48FDF7B2FB43464246B1
:102D7C0029460948FEF776FB424641460548FDF7D1
:102D8C00A7FB0DF160094246102107E04001F0005D
:102D9C00000C014000080140B0010020D4484D4611
:102DAC0009F8114DFDF794FB22464146D048FDF73A
:102DBC008FFB434642464946CE48FEF753FB4246FC
:102DCC004146CB48FDF784FB6FF03E034246102191
:102DDC00C74805F8123DFDF77BFB22464146C44827
:102DEC00FDF776FB434642462946C248FEF73AFBBE
:102DFC0042464146BE48FDF76BFB30230DF160099E
:102E0C004D464FF0E80B42461021B94809F8133DE6
:102E1C00FDF75EFB22464146B548FDF759FB43469C
:102E2C0042464946B348FEF71DFB42464146B04870
:102E3C00FDF74EFB22461021AD4805F814BDFDF7F9
:102E4C0047FB22464146AA48FDF742FB4346424611
:102E5C002946A848FEF706FB42464146A448FDF722
:102E6C0037FB852318AD42461021A14805F8153DC6
:102E7C00FDF72EFB224641469D48FDF729FB4346B4
:102E8C00424629469B48FEF7EDFA42464146984891
:102E9C00FDF71EFB18AD42461021954805F8164D5E
:102EAC00FDF716FB224641469148FDF711FB4346C0
:102EBC00424629468F48FEF7D5FA424641468C4891
:102ECC00FDF706FB782318AD42461021884805F81B
:102EDC00173DFDF7FDFA224641468548FDF7F8FA05
:102EEC004346424629468348FEF7BCFA42464146D1
:102EFC007F48FDF7EDFAEA2318AD224610217C48F5
:102F0C0005F8183DFDF7E4FA224641467848FDF7EE
:102F1C00DFFA4346424629467648FEF7A3FA424674
:102F2C0041467348FDF7D4FA18AD4246102170485B
:102F3C0005F8194DFDF7CCFA224641466C48FDF7D1
:102F4C00C7FA4346424629466A48FEF78BFA424680
:102F5C0041466748FDF7BCFA18AD4246102164485B
:102F6C0005F81A4DFDF7B4FA224641466048FDF7C4
:102F7C00AFFA4346424629465E48FEF773FA42468C
:102F8C0041465B48FDF7A4FAED2318AD224610210B
:102F9C00574805F81B3DFDF79BFA2246414654481D
:102FAC00FDF796FA4346424629465248FEF75AFA2E
:102FBC00424641464E48FDF78BFA642318AD424613
:102FCC0010214B4805F81C3DFDF782FA224641467C
:102FDC004748FDF77DFA4346424629464548FEF7E9
:102FEC0041FA424641464248FDF772FA18AD424654
:102FFC0010213F4805F81D7DFDF76AFA224641462F
:10300C003B48FDF765FA4346424629463948FEF7E8
:10301C0029FA424641463648FDF75AFA122318ADB2
:10302C0042461021324805F81E3DFDF751FA224662
:10303C0041462F48FDF74CFA4346424629462D4857
:10304C00FEF710FA424641462948FDF741FA812322
:10305C0018AD42461021264805F81F3DFDF738FAF9
:10306C00224641462248FDF733FA4346424629465A
:10307C002048FEF7F7F9424641461D48FDF728FA6D
:10308C00F72318AD22461021194805F8203DFDF70D
:10309C001FFA224641461648FDF71AFA43464246A5
:1030AC0029461448FEF7DEF9424641461048FDF722
:1030BC000FFA202318AD424610210D4805F8213D8A
:1030CC00FDF706FA224641460948FDF701FA434648
:1030DC00424629460748FEF7C5F942464146044890
:1030EC00FDF7F6F9C02318AD2246102104E000BF0D
:1030FC0000080140B0010020DB4805F8223DFDF737
:10310C00E7F922464146D848FDF7E2F943464246E4
:10311C002946D648FEF7A6F942464146D248FDF765
:10312C00D7F9232318AD42461021CF4805F8233D8B
:10313C00FDF7CEF922464146CB48FDF7C9F9434687
:10314C0042462946C9481025FEF78CF942464146AD
:10315C00C548FDF7BDF96FF03E030DF1600AD1468D
:10316C0022462946C0480AF8243DFDF7B1F922460B
:10317C004146BD48FDF7ACF9434642465146BB4873
:10318C00FEF770F942464146B748FDF7A1F94246B1
:10319C002946B54809F8255DFDF79AF922464146BE
:1031AC00B148FDF795F9434642464946AF48FEF70C
:1031BC0059F942464146AC48FDF78AF9C5230DF151
:1031CC00600922462946A84809F8263DFDF780F9F2
:1031DC0022464146A448FDF77BF943464246494600
:1031EC00A248FEF73FF9424641469F48FDF770F969
:1031FC003E230DF16009424629469B4809F8273DBC
:10320C00FDF766F9224641469748FDF761F94346BA
:10321C00424649469548FEF725F9424641469248B2
:10322C00FDF756F928230DF16009424629468E48D0
:10323C0009F8283DFDF74CF9224641468A48FDF72E
:10324C0047F94346424649468848FEF70BF9424641
:10325C0041468548FDF73CF9C7230DF1600922462C
:10326C002946814809F8293DFDF732F922464146A5
:10327C007D48FDF72DF94346424649467B48FEF70B
:10328C00F1F8424641467848FDF722F986230DF1C4
:10329C00600A424629467448D1460AF82A3DFDF791
:1032AC0017F9224641467048FDF712F9434642464B
:1032BC0051466E48FEF7D6F8424641466A48FDF73D
:1032CC0007F94FF0360C22462946674809F82BCDF2
:1032DC00FDF7FEF8224641466348FDF7F9F84346F0
:1032EC00424649466148FEF7BDF8424641465E48B3
:1032FC00FDF7EEF80DF16009424629465A4809F8E7
:10330C002CBDFDF7E5F8224641465748FDF7E0F89D
:10331C004346424649465548FEF7A4F842464146C4
:10332C005148FDF7D5F83A230DF16009224629469C
:10333C004D4809F82D3DFDF7CBF8224641464A4849
:10334C00FDF7C6F84346424649464848FEF78AF818
:10335C00424641464448FDF7BBF855230DF1600940
:10336C0042462946404809F82E3DFDF7B1F8224661
:10337C0041463D48FDF7ACF84346424649463B487A
:10338C00FEF770F8424641463748FDF7A1F8B123E5
:10339C000DF1600922462946334809F82F3DFDF707
:1033AC0097F8224641463048FDF792F8434642468C
:1033BC0049462E48FEF756F8424641462A48FDF744
:1033CC0087F80DF1600942462946274809F8304D27
:1033DC00FDF77EF8224641462348FDF779F843462F
:1033EC00424649462148FEF73DF8424641461E48B2
:1033FC00FDF76EF818230DF16009424629461A486C
:10340C0009F8313DFDF764F8224641461648FDF7B0
:10341C005FF84346424649461448FEF723F84246B5
:10342C0041461148FDF754F8B6230DF160092246C8
:10343C0029460D4809F8323DFDF74AF82246414627
:10344C000948FDF745F84346494642460748FEF70A
:10345C0009F8424641460448FDF73AF80DF1600977
:10346C004246294604E000BF00080140B00100209C
:10347C00DC4809F8336DFDF72BF822464146D94854
:10348C00FDF726F8434649464246D748FDF7EAFF82
:10349C0042464146D348FDF71BF882230DF16009E3
:1034AC0042462946CF4809F8343DFDF711F822462B
:1034BC004146CC48FDF70CF8434649464246CA48BB
:1034CC00FDF7D0FF42464146C648FDF701F82723D9
:1034DC000DF1600942462946C24809F8353DFCF712
:1034EC00F7FF22464146BF48FCF7F2FF43464946E8
:1034FC004246BD48FDF7B6FF42464146B948FCF787
:10350C00E7FFF2230DF1600922462946B54809F878
:10351C00363DFCF7DDFF22464146B248FCF7D8FFAA
:10352C00434649464246B048FDF79CFF4246414659
:10353C00AC48FCF7CDFF0DF1600942462946A9487D
:10354C0009F8374DFCF7C4FF22464146A548FCF765
:10355C00BFFF434649464246A348FDF783FF424618
:10356C004146A048FCF7B4FF26230DF16009224622
:10357C0029469C4809F8383DFCF7AAFF22464146EB
:10358C009848FCF7A5FF4346494642469648FDF746
:10359C0069FF424641469348FCF79AFF0DF16009DA
:1035AC00424629468F4809F8398DFCF791FF22468F
:1035BC0041468C48FCF78CFF4346494642468A48B4
:1035CC00FDF750FF424641468648FCF781FFE02359
:1035DC000DF1600822462946824808F83A3DFCF76E
:1035EC0077FF224601217F48FCF772FF01234146F9
:1035FC001A467D48FDF736FF01224FF00F0B11469E
:10360C007848FCF765FF0DF16008294601227548E2
:10361C0008F83BBDFCF75CFF224601217148FCF722
:10362C0057FF012341461A466F48FDF71BFF012245
:10363C004FF0310811466B48FCF74AFF0DF1600959
:10364C0029460122674809F83C8DFCF741FF2246C8
:10365C0001216448FCF73CFF012349461A466248A5
:10366C00FDF700FF01225F481146FCF731FF2B23C9
:10367C000DF16009294601225A4809F83D3DFCF735
:10368C0027FF224601215748FCF722FF0123494618
:10369C001A465548FDF7E6FE012252481146FCF742
:1036AC0017FF4FF00C0E0DF16009294601224D4811
:1036BC0009F83EEDFCF70CFF224601214948FCF7C6
:1036CC0007FF012349461A464748FDF7CBFE012266
:1036DC004FF00E0911464348FCF7FAFE0DF1600A53
:1036EC00294601223F480AF83F9DFCF7F1FE22468D
:1036FC0001213C48FCF7ECFE012351461A463A489E
:10370C00FDF7B0FE012237481146FCF7E1FE0DF142
:10371C00600A2946012233480AF8406DFCF7D8FEAE
:10372C00224601212F48FCF7D3FE012351461A46AD
:10373C002D48FDF797FE01222A481146FCF7C8FEDA
:10374C004E230DF1600A2946012226480AF8413D14
:10375C00FCF7BEFE224601212248FCF7B9FE0123EC
:10376C0051461A462048FDF77DFE01221D481146A0
:10377C00FCF7AEFEF1230DF1600A2946012219482F
:10378C000AF8423DFCF7A4FE224601211548FCF73D
:10379C009FFE012351461A461348FDF763FE012292
:1037AC0010481146FCF794FE37230DF1600A2946A8
:1037BC0001220C480AF8433DFCF78AFE22460121FF
:1037CC000848FCF785FE012351461A460648FDF7CA
:1037DC0049FE012203481146FCF77AFE4FF0070C14
:1037EC0004E000BF00080140B00100200DF1600AA8
:1037FC0029460122D3480AF844CDFCF769FE22463B
:10380C000121D048FCF764FE012351461A46CE48EC
:10381C00FDF728FE0122CB481146FCF759FE0DF1AD
:10382C00600A29460122C7480AF8455DFCF750FE9C
:10383C0022460121C348FCF74BFE012351461A4690
:10384C00C148FDF70FFE0122BE481146FCF740FEB1
:10385C0018AD01221021BB4805F8467DFCF738FE57
:10386C0022460121B748FCF733FE012329461A46AC
:10387C00B548FDF7F7FD0122B2481146FCF728FECA
:10388C0018AD01221021AF4805F8479DFCF720FE2A
:10389C0022460121AB48FCF71BFE012329461A46A0
:1038AC00A948FDF7DFFD0122A6481146FCF710FEE2
:1038BC00092318AD01221021A24805F8483DFCF758
:1038CC0007FE224601219F48FCF702FE01232946F0
:1038DC001A469D48FDF7C6FD01229A481146FCF791
:1038EC00F7FD18AD01221021964805F8494DFCF75B
:1038FC00EFFD224601219348FCF7EAFD01232946FE
:10390C001A469148FDF7AEFD01228E481146FCF790
:10391C00DFFDE12318AD224610218A4805F84A3D07
:10392C00FCF7D6FD224601218648FCF7D1FD012388
:10393C0029461A468448FDF795FD01228148114617
:10394C00FCF7C6FD18AD012210217E4805F84B4D41
:10395C00FCF7BEFD224601217A48FCF7B9FD012394
:10396C0029461A467848FDF77DFD01227548114617
:10397C00FCF7AEFD18AC01221021724804F84C9DE6
:10398C00FCF7A6FD002201216E48FCF7A1FD0123E6
:10399C0021461A466C48FDF765FD0122694811461F
:1039AC00FCF796FD142318AC01221021654804F88D
:1039BC004D3DFCF78DFD002201216248FCF788FD8E
:1039CC00012321461A466048FDF74CFD01225D4853
:1039DC001146FCF77DFD18AC01221021594804F862
:1039EC004E7DFCF775FD002201215648FCF770FD59
:1039FC00012321461A465448FDF734FD01221125B6
:103A0C0011465048FCF764FD18AC012210214D48BA
:103A1C0004F84F5DFCF75CFD002201214948FCF7DE
:103A2C0057FD012321461A464748FDF71BFD01228D
:103A3C004FF0070711464348FCF74AFD18AC01222A
:103A4C001021404804F8507DFCF742FD0022012172
:103A5C003C48FCF73DFD012321461A463A48FDF748
:103A6C0001FD012237481146FCF732FD18AC01224A
:103A7C001021344804F8518DFCF72AFD0022012155
:103A8C003048FCF725FD012321461A462E48FDF748
:103A9C00E9FC01222B481146FCF71AFD6FF03E039E
:103AAC0018AC01221021274804F8523DFCF710FDF8
:103ABC00002201212348FCF70BFD012321461A4665
:103ACC002148FDF7CFFC01221E481146FCF700FDF2
:103ADC00482318AC012210211A4804F8533DFCF776
:103AEC00F7FC002201211748FCF7F2FC01232146C8
:103AFC001A461548FDF7B6FC012212481146FCF790
:103B0C00E7FC18AC012210210E4804F8546DFCF7A8
:103B1C00DFFC002201210B48FCF7DAFC01232146D3
:103B2C001A460948FDF79EFC012206481146FCF78F
:103B3C00CFFC18AC01221021024804F855BDFCF74B
:103B4C00C7FC03E000080140B00100200022012165
:103B5C005448FCF7BDFC012321461A465248FDF798
:103B6C0081FC01224F481146FCF7B2FC4FF00C0EC1
:103B7C0018AC012210214B4804F856EDFCF7A8FCB8
:103B8C00002201214748FCF7A3FC012321461A46D9
:103B9C004548FDF767FC012242481146FCF798FCAA
:103BAC0018AC012210213F4804F8578DFCF790FC0B
:103BBC00002201213B48FCF78BFC012321461A46CD
:103BCC003948FDF74FFC012236481146FCF780FCC2
:103BDC004FF0360C18AC01221021324804F858CDA5
:103BEC00FCF776FC002201212E48FCF771FC012326
:103BFC0021461A462C48FDF735FC0122294811466E
:103C0C00FCF766FC18AC01221021264804F859BDBB
:103C1C00FCF75EFC002201212248FCF759FC012331
:103C2C0021461A462048FDF71DFC01221D4811466D
:103C3C00FCF74EFC18AC002210211A4804F85A5D0F
:103C4C00FCF746FC002201211648FCF741FC01233D
:103C5C0021461A461448FDF705FC0122114811466D
:103C6C00FCF736FC7820FCF7B3FA292318AC0022B9
:103C7C0010210C4804F85B3DFCF72AFC00220121C2
:103C8C000848FCF725FC012321461A460648FDF797
:103C9C00E9FB012203481146FCF71AFC19B0BDE8F8
:103CAC00F08F704700080140B001002060B12DE991
:103CBC00F04F058885B025B1B0F80280B8F1000F3F
:103CCC0003D105B0BDE8F08F70472A2304460F4698
:103CDC0004AE00221021A84806F8023DFCF7F8FBC0
:103CEC0000220121A448FCF7F3FB012331461A46BC
:103CFC00A248FDF7B7FB0122002611469E48FCF7AF
:103D0C00E7FB0DF1100B012210219B480BF8036D02
:103D1C00FCF7DEFB324601219748FCF7D9FB012367
:103D2C0059461A469548FDF79DFB012292481146CB
:103D3C00FCF7CEFB0DF1100B012210218E480BF875
:103D4C00046DFCF7C5FB324601218B48FCF7C0FB28
:103D5C00012359461A468948FDF784FB012205F1D7
:103D6C00FF3A1FFA8AFA11468348FCF7B1FB0DF1B2
:103D7C00100B4FEA1A23012210217F480BF8053D46
:103D8C00FCF7A6FB324601217B48FCF7A1FB012383
:103D9C0059461A467948FDF765FB012276481146CB
:103DAC00FCF796FB0DF1100B0122102172480BF859
:103DBC0006ADFCF78DFB324601216F48FCF788FB02
:103DCC00012359461A466D48FDF74CFB01226A48FF
:103DDC001146FCF77DFB2B230DF1100A3246102106
:103DEC0065480AF8073DFCF773FB3246012162482F
:103DFC00FCF76EFB012351461A466048FDF732FB77
:103E0C0001225D481146FCF763FB0DF1100A0122FB
:103E1C00102159480AF8086DFCF75AFB324601216B
:103E2C005548FCF755FB012351461A465348FDF7FC
:103E3C0019FB012250481146FCF74AFB0DF1100A00
:103E4C00012210214C480AF8096DFCF741FB32465F
:103E5C0001214948FCF73CFB012351461A464748CF
:103E6C00FDF700FB012208F1FF391FFA89F9114611
:103E7C004148FCF72DFB0DF1100A4FEA19230122E2
:103E8C0010213D480AF80A3DFCF722FB324601217D
:103E9C003948FCF71DFB012351461A463748FDF7FC
:103EAC00E1FA012234481146FCF712FB0DF1100A1D
:103EBC000122102130480AF80B9DFCF709FB324611
:103ECC0001212D48FCF704FB012351461A462B48CF
:103EDC00FDF7C8FA012228481146FCF7F9FA4FF011
:103EEC002C0C6388228808FB05F503FB02F80DF106
:103EFC001009454532464FF010011F4809F801CD15
:103F0C0028BF4546FCF7E4FA324601211A48FCF773
:103F1C00DFFA012349461A461848FDF7A3FA012295
:103F2C0015481146FCF7D4FA012210211248FCF76F
:103F3C00CFFA324601211048FCF7CAFA3B0A8DF839
:103F4C0004708DF8033085B10C4C01230DF1030185
:103F5C001A462046FDF786FA012301A91E441A468B
:103F6C002046FDF77FFAAE42EFD1012202481146FE
:103F7C00FCF7AEFAA5E600BF00080140B001002036
:103F8C002DE9F04F85B0BDF83840BDF83C50002805
:103F9C0000F06C81002B00F06981002C00F0668130
:103FAC00B0F800C0614580F06181B0F802E0724564
:103FBC0080F05C815F18BFB2A618BC45B6B240F267
:103FCC005881B64504FB03F800F264810EF1FF360C
:103FDC00B6B2B6459CBF0EF1FF36B6B22A230446E4
:103FEC0091468B460DF1100A00221021AC480AF8BC
:103FFC00023DFCF76DFA00220121A948FCF768FA92
:10400C00012351461A46A748FDF72CFA0122A44871
:10401C001146FCF75DFA0DF1100A4FEA1B23012241
:10402C0010219F480AF8033DFCF752FA00220121A7
:10403C009B48FCF74DFA012351461A469948FDF767
:10404C0011FA012296481146FCF742FA0DF1100ABA
:10405C000122102192480AF804BDFCF739FA00221B
:10406C0001218F48FCF734FA012351461A468D483A
:10407C00FDF7F8F901228A481146FCF729FA0DF1EF
:10408C00100A3B0A0122102185480AF8053DFCF76D
:10409C001FFA002201218248FCF71AFA012351462B
:1040AC001A468048FDF7DEF901227D481146FCF7DF
:1040BC000FFA0DF1100A0122102179480AF8067D39
:1040CC00FCF706FA002201217548FCF701FA0123DE
:1040DC0051461A467348FDF7C5F90122704811463E
:1040EC00FCF7F6F92B2304AF002210216C4807F8DB
:1040FC00073DFCF7EDF9002201216948FCF7E8F9CE
:10410C00012339461A466748FDF7ACF90122644889
:10411C001146FCF7DDF904AF4FEA192301221021F7
:10412C005F4807F8083DFCF7D3F9002201215C48F1
:10413C00FCF7CEF9012339461A465A48FDF792F995
:10414C00012257481146FCF7C3F904AF0122102194
:10415C00534807F8099DFCF7BBF900220121504890
:10416C00FCF7B6F9012339461A464E48FDF77AF9A1
:10417C0001224B481146FCF7ABF904AF330A01227C
:10418C001021474807F80A3DFCF7A2F9002201214B
:10419C004348FCF79DF9012339461A464148FDF77F
:1041AC0061F901223E481146FCF792F904AF012255
:1041BC0010213B4807F80B6DFCF78AF9002201210E
:1041CC003748FCF785F9012339461A463548FDF77F
:1041DC0049F9012232481146FCF77AF92C2321883F
:1041EC00648804AE04FB01F4002244454FF0100136
:1041FC002B4828BF444606F8013DFCF769F900221C
:10420C0001212748FCF764F9012331461A46254859
:10421C00FDF728F9012222481146FCF759F9012231
:10422C0010211F48FCF754F9002201211C48FCF70F
:10423C004FF92B0A8DF804508DF803308CB1002502
:10424C00184E01230DF103011A463046FDF70AF909
:10425C00012301A91D441A463046FDF703F9A54276
:10426C00EFD101220E481146FCF732F905B0BDE83A
:10427C00F08F0CF1FF39B64504FB03F81FFA89F7F0
:10428C0008D80EF1FF36BC45B6B23FF6A2AE1FFA07
:10429C0089F79EE6BC453FF6A1AE0CF1FF39F6E777
:1042AC0000080140B001002030B50E4C83B002ADC7
:1042BC0005F8010D002220462021FCF709F9012305
:1042CC0029461A460848FDF7CDF820460122202140
:1042DC00FCF7FEF8204600222021FCF7F9F803B089
:1042EC0030BD00BF000C0140B001002030B50122F0
:1042FC0000244FF4803302254FF4E01195B00AA846
:10430C000A920E920B93129313910C9405940194B0
:10431C000D94CDE90F44CDE90644CDE90844CDE92F
:10432C00024404941195FCF717FD0F224FF480639F
:10433C00294605A805920893069507940994FCF75D
:10434C0003FF102301A804940193FCF7C9FF15B0D7
:10435C0030BD00BF002480B58AB0FBF715FFFFF716
:10436C00C5FFCDE90644CDE908444C4B224699697A
:10437C00022641F01001996198694FF4005100F048
:10438C001000029002989D69454845F020059D61FA
:10439C009D69444F05F020050395039D9D6945F0EB
:1043AC0004059D619D6905F004050495049D9D69B6
:1043BC0045F008059D619B69012503F008030593F1
:1043CC00059BFCF785F8224640F213213648FCF792
:1043DC007FF8224621213548FCF77AF84FF4005338
:1043EC0006A92F48CDE9063509960894FBF770FF0E
:1043FC0040F2132306A92C48CDE9075409960693DD
:10440C00FBF766FF212306A928480996CDE9075436
:10441C000693FBF75DFF4FF47042254B06A923482A
:10442C00CDE906230895FBF753FF224621462820A9
:10443C00FBF7F2FE2820FBF725FF0A2500F036F9E2
:10444C004FF4827608224FF400711A4B1846C3E9D8
:10445C000612C3E90244C3E90444C3E908449C625C
:10446C00C3E90076DD62FCF7BDFF1349134800F089
:10447C002BF81348FEF7D8FA4FF6FF711048FFF7E8
:10448C0015FC4FF4784028221423CDE9002029464E
:10449C001A460B48FFF774FDFEE700BF0010024000
:1044AC00001001400030014000080140000C0140A8
:1044BC0000003110B0010020B542000808020020B5
:1044CC00AC010020704700BF28B10023416003708D
:1044DC0009B118460847704728B10022436802709A
:1044EC000BB1104618477047E8B102F00203D2072F
:1044FC000AD5022925D0032918D0012904D1002B73
:10450C0014BF2223022301E03BB901230178426846
:10451C000B4303703AB1184610470329F5D8DFE86E
:10452C0001F0030E0C0A70471123EFE7002B14BFA8
:10453C0088230823EAE78123E8E74123E6E72123E0
:10454C00E4E7002B14BF44230423DFE70E4B82B0B7
:10455C009A690E4942F001029A619A6902F00102CD
:10456C000092009ADA6942F08052DA61DB6903F05A
:10457C0080530193019B4B6823F0E06343F080630D
:10458C004B6002B0704700BF0010024000000140B9
:10459C0070B500240268194B86B09A42CDE90244EA
:1045AC00CDE9044401D006B070BDA021022603253C
:1045BC0003F560439A69124842F480529A619A69F1
:1045CC0002F480520092009A9A6942F004029A61B5
:1045DC009B69029103F00403019302A9019B0396CA
:1045EC000595FBF775FE402302A90548CDE9034468
:1045FC000293FBF76DFE06B070BD00BF00300140AA
:10460C0000080140704700BFFEE700BFFEE700BF97
:10461C00FEE700BFFEE700BF704700BF704700BF5A
:10462C00704700BFFBF7C2BD0148FBF7F7BF00BFE7
:10463C00D404002008B54FF48050FBF74DFF4FF425
:10464C000050FBF749FF4FF48040FBF745FFBDE8F6
:10465C0008404FF40040FBF73FBF00BF30B44FF4AD
:10466C001F054FF000640E4B0E4A19680E4841F0BE
:10467C000101196059680A405A601A6822F0847264
:10468C0022F480321A601A6822F480221A605A6866
:10469C0022F4FE025A609D60846030BC704700BFFB
:1046AC00001002400000FFF800ED00E008B5002209
:1046BC0010491148FDF79AFDC0B910490E48FDF795
:1046CC00ABFD80B90E490C48FDF788FD40B90A488E
:1046DC00FDF7AAFD00B908BDBDE80840FFF7F2BE22
:1046EC00FFF7F0FEF3E7FFF7EDFEEBE7FFF7EAFE6F
:1046FC00E3E700BF1C01002010020020080000208E
:10470C000401002002680E4B9A4200D07047002230
:10471C0003F5DA3310B5DC6982B044F40004DC61D3
:10472C00DB69114603F4000301931420019BFBF792
:10473C0073FD142002B0BDE81040FBF7A3BD00BF11
:10474C00005C004000F50C71D0F86802FDF784BDE8
:10475C0000EB4113D3F83C21D0F86802FDF7ACBD57
:10476C0000EB4113DA6BD0F86802FDF7E5BD00BF32
:10477C00D0F86802FDF780BE836810B5022B0446A2
:10478C0001D0FFF79FFED4F868020121FDF75CFE13
:10479C00D4F86802BDE81040FDF72EBE10B50446F3
:1047AC00D0F86802FDF754FEA36923B1024A1369DD
:1047BC0043F00603136110BD00ED00E0D0F8680271
:1047CC00FDF750BE38B50446002208250221184BCF
:1047DC001848C4F8C03218601846C3F86842C3E9D8
:1047EC000151C3E906221A62FBF782FE08B1FFF7FA
:1047FC0069FE002218231146D4F8C002FCF790FA87
:10480C00582300228021D4F8C002FCF789FA98239F
:10481C0000228121D4F8C002FCF782FAD4F8C0023D
:10482C00D82300220121FCF77BFA002038BD00BF01
:10483C00D4040020005C004008B5D0F8C002FBF79F
:10484C00D5FE032896BF024B0220185C08BD00BFA2
:10485C00784D000810B51C46D0F8C002134622460D
:10486C00FCF75EF9032896BF014B0220185C10BDC3
:10487C00784D000808B5D0F8C002FCF783F903287E
:10488C0096BF024B0220185C08BD00BF784D000893
:10489C0008B5D0F8C002FCF7CFF9032896BF024B3D
:1048AC000220185C08BD00BF784D000808B5D0F890
:1048BC00C002FCF7FDF9032896BF024B0220185CDE
:1048CC0008BD00BF784D00080A06D0F8C03204D4E9
:1048DC0003EB411393F82A01704701F07F0103EBBE
:1048EC00411393F82A00704708B5D0F8C002FCF7C2
:1048FC0003F9032896BF024B0220185C08BD00BFC9
:10490C00784D000808B5D0F8C002FCF77FF90328F1
:10491C0096BF024B0220185C08BD00BF784D000802
:10492C0008B5D0F8C002FCF759F9032896BF024B22
:10493C000220185C08BD00BF784D00080048704785
:10494C008C010020704700BF704700BF00207047EB
:10495C0008B50C4BD3F8B8321B78022B09D0052BB9
:10496C0005D100224FF400510748FBF7B1FD0020A0
:10497C0008BD01224FF400510348FBF7A9FD0020AC
:10498C0008BD00BF1002002000100140002070473D
:10499C0038B54FF480515148FBF794FD01284BD0AA
:1049AC004FF400514D48FBF78DFD0128044628D0EB
:1049BC004FF480414948FBF785FD0128044657D048
:1049CC004FF400414548FBF77DFD012804466AD0B1
:1049DC00002401224FF400514148FBF779FD414B73
:1049EC000522194640485C70FDF7E2FB22463F4821
:1049FC004FF40071FBF76CFDBDE838403C48FFF705
:104A0C006BBD142500224FF400513548FBF760FDB7
:104A1C00344B0522194634485D70FDF7C9FB22461C
:104A2C004FF400713148FBF753FD2146BDE8384087
:104A3C0002222F48FFF758BD04460A2500224FF4E6
:104A4C0000512748FBF744FD264B05221946264802
:104A5C005D70FDF7ADFB22464FF400712348FBF768
:104A6C0037FDBDE83840022200212148FFF73CBD4C
:104A7C001E2500224FF400511948FBF729FD194B54
:104A8C000522194618485D70FDF792FB22464FF43B
:104A9C0000711648FBF71CFDBDE838400222144893
:104AAC001146FFF721BD282500224FF400510C4878
:104ABC00FBF70EFD0B4B052219460B485D70FDF7FD
:104ACC0077FB22464FF400710848FBF701FDBDE867
:104ADC003840022203210648FFF706BD000C0140B6
:104AEC0000100140140100201002002000080140B9
:104AFC0008020020122301480B8070473801002067
:104B0C00042301480B8070474C01002010B5044C65
:104B1C000A4604482146FDF71BFF204610BD00BF86
:104B2C0040070020A84D000810B5044C0A46044864
:104B3C002146FDF70DFF204610BD00BF40070020A9
:104B4C00B44D000810B5044C0A4604482146FDF744
:104B5C00FFFE204610BD00BF400700207C4D000822
:104B6C0010B5044C0A4604482146FDF7F1FE2046D8
:104B7C0010BD00BF40070020904D00081A20444A89
:104B8C00444B12681B680880D21801D14248704708
:104B9C0010B40024130FD8B2092B40493E4B94BFDC
:104BAC003030373009689870C2F303600928DC7024
:104BBC00C4B294BF303437341C710024C2F3035098
:104BCC0009285C71C4B294BF303437349C71002412
:104BDC00C2F303400928DC71C4B294BF30343734BB
:104BEC001C720024C2F3033009285C72C4B294BF57
:104BFC00303437349C720024C2F303200928DC7251
:104C0C00C4B294BF303437341C730024C2F3031085
:104C1C00092802F00F025C73C4B298BF3034D0B2D2
:104C2C0088BF3734092A94BF3030373018740020CD
:104C3C000A0F092A5874D0B294BF303037309874A8
:104C4C000020C1F30362092AD874D0B294BF30306B
:104C5C00373018750020C1F30352092A5875C1F377
:104C6C000341D0B298BF3030CAB288BF373009295F
:104C7C0094BF303237329C739875002400201A761A
:104C8C000022D875DC735A76034810BC704700BFFD
:104C9C00E8F7FF1FF0F7FF1F50010020ECF7FF1F94
:104CAC00002103E00B4B5B58435004310A480B4B7B
:104CBC0042189A42F6D30A4A02E0002342F8043B17
:104CCC00084B9A42F9D3FFF7C9FC00F00FF8FFF735
:104CDC0041FB7047D04D0008000000206C01002003
:104CEC006C01002040090020FEE7000070B5002593
:104CFC000C4E0D4CA41BA410A54209D100F01AF8BF
:104D0C0000250A4E0A4CA41BA410A54205D170BD67
:104D1C0056F8253098470135EEE756F82530984778
:104D2C000135F2E7C84D0008C84D0008C84D000811
:104D3C00CC4D0008F8B500BFF8BC08BC9E467047C7
:0C4D4C00F8B500BFF8BC08BC9E467047DC
:104D580002030405060708090A0B0C0D0E0F1010B4
:104D68000000000000000000010203040607080913
:104D7800000201024D7920437573746F6D20436FF3
:104D88006E66696700000000437573746F6D204894
:104D9800494420496E7465726661636500000000CD
:104DA80044694D6F6D697465000000005355706566
:104DB8007220637573746F6D20646576696365002E
:044DC80031010008AD
:044DCC000D010008CD
:104DD00001000000100000006D21000835210008CE
:104DE000F11F000800000000A11F0008951F000827
:104DF000CD1F0008000000000000000000000000BF
:104E00007D1F0008711F0008891F0008C11F0008CE
:104E100009022900010100C0320904000002030058
:104E2000000009211101000122220007058103026F
:104E30000005070501030200050000000902290022
:104E4000010100C032090400000203000000092132
:104E50001101000122220007058103020005070558
:104E600001030200050000000921110100012222B6
:104E7000000000000A0600020000004001000000DF
:104E800009022900010100C03209040000020300E8
:104E900000000921110100012222000705810302FF
:104EA0000005070501030200050000000024F400CE
:104EB0000600FF0901A1018501090175089504B1EA
:104EC0008285010901918285020902750895048194
:104ED00082C00000E00000205949000899490008FC
:104EE0005D4900080200000000000000014B0008BE
:104EF0000D4B0008194B0008354B0008894B000882
:104F0000514B00086D4B00081201000200000040E8
:104F10008304505700020102030100000403090446
:104F20001A03000000000000000000000000000064
:0C4F300000000000000000000000000075
:0400000508004CADF6
:00000001FF
