:020000040800F2
:10000000005000207D010008C5010008C50100085E
:10001000C5010008C5010008C50100080000000076
:10002000000000000000000000000000C501000802
:10003000C501000800000000C5010008C501000856
:10004000C5010008C5010008C5010008C501000878
:10005000C5010008C5010008C5010008C501000868
:10006000C5010008C5010008C5010008C501000858
:10007000C5010008C5010008C5010008C501000848
:10008000C5010008C5010008C5010008C501000838
:10009000C5010008C5010008C5010008C501000828
:1000A000C5010008C5010008C5010008C501000818
:1000B000C5010008C5010008C5010008C501000808
:1000C000C5010008C5010008C5010008C5010008F8
:1000D000C5010008C5010008C5010008C5010008E8
:1000E000C5010008C5010008C501000800000000A6
:1000F0000000000000000000000000000000000000
:0C01000000000000000000005FF808F1A3
:10010C0010B5054C237833B9044B13B10448AFF345
:10011C0000800123237010BD0000002000000000AF
:10012C000003000808B5034B1BB103490348AFF3A8
:10013C00008008BD0000000004000020000300083F
:10014C00074A08B5936943F480739361054B064ADB
:10015C0093601B6883F30888044B9847002008BD04
:10016C00001002400010000800ED00E00410000830
:10017C00002103E00B4B5B58435004310A480B4BF6
:10018C0042189A42F6D30A4A02E0002342F8043B92
:10019C00084B9A42F9D300F011F800F087F8FFF7FA
:1001AC00CFFF704720030008000000200000002053
:1001BC00000000201C000020FEE70000374B82B03E
:1001CC001A6842F001021A605968354A0A405A60AE
:1001DC001A6822F0847222F480321A601A6822F4AF
:1001EC0080221A605A6822F4FE025A604FF41F02F1
:1001FC009A600022009201921A6842F480321A60CE
:10020C001A6802F400320192009A01320092019AAB
:10021C001AB9009AB2F5A06FF2D11A6812F4003232
:10022C0018BF01220192019A012A30D11D4A11688E
:10023C0041F010011160116821F003011160116887
:10024C0041F0020111605A685A605A685A605A6843
:10025C0042F480625A605A6822F47C125A605A68DE
:10026C0042F4E8125A601A6842F080721A601A68F6
:10027C009201FCD55A6822F003025A605A6842F087
:10028C0002025A605A6802F00C02082AFAD14FF0A6
:10029C000062054B9A6002B0704700BF001002402C
:1002AC000000FFF80020024000ED00E070B50025D2
:1002BC000C4E0D4CA41BA410A54209D100F01AF849
:1002CC0000250A4E0A4CA41BA410A54205D170BDF2
:1002DC0056F8253098470135EEE756F82530984703
:1002EC000135F2E71803000818030008180300088A
:1002FC001C030008F8B500BFF8BC08BC9E4670474C
:0C030C00F8B500BFF8BC08BC9E46704766
:0403180031010008A7
:04031C000D010008C7
:040000050800017D71
:00000001FF
